{
  "_format": "hh-sol-artifact-1",
  "contractName": "Whitelistable",
  "sourceName": "contracts/Whitelistable.sol",
  "abi": [
    {
      "inputs": [
        {
          "internalType": "address",
          "name": "signerPubKey",
          "type": "address"
        }
      ],
      "stateMutability": "nonpayable",
      "type": "constructor"
    },
    {
      "anonymous": false,
      "inputs": [
        {
          "indexed": true,
          "internalType": "address",
          "name": "previousOwner",
          "type": "address"
        },
        {
          "indexed": true,
          "internalType": "address",
          "name": "newOwner",
          "type": "address"
        }
      ],
      "name": "OwnershipTransferred",
      "type": "event"
    },
    {
      "inputs": [],
      "name": "DOMAIN_SEPARATOR",
      "outputs": [
        {
          "internalType": "bytes32",
          "name": "",
          "type": "bytes32"
        }
      ],
      "stateMutability": "view",
      "type": "function"
    },
    {
      "inputs": [],
      "name": "MINTER_TYPEHASH",
      "outputs": [
        {
          "internalType": "bytes32",
          "name": "",
          "type": "bytes32"
        }
      ],
      "stateMutability": "view",
      "type": "function"
    },
    {
      "inputs": [],
      "name": "owner",
      "outputs": [
        {
          "internalType": "address",
          "name": "",
          "type": "address"
        }
      ],
      "stateMutability": "view",
      "type": "function"
    },
    {
      "inputs": [],
      "name": "renounceOwnership",
      "outputs": [],
      "stateMutability": "nonpayable",
      "type": "function"
    },
    {
      "inputs": [
        {
          "internalType": "address",
          "name": "newSigningKey",
          "type": "address"
        }
      ],
      "name": "setWhitelistSigningAddress",
      "outputs": [],
      "stateMutability": "nonpayable",
      "type": "function"
    },
    {
      "inputs": [
        {
          "internalType": "address",
          "name": "newOwner",
          "type": "address"
        }
      ],
      "name": "transferOwnership",
      "outputs": [],
      "stateMutability": "nonpayable",
      "type": "function"
    }
  ],
  "bytecode": "0x6080604052600180546001600160a01b031916905534801561002057600080fd5b5060405161056f38038061056f83398101604081905261003f91610192565b61004833610142565b600180546001600160a01b0319166001600160a01b038316178155604080518082018252600d81526c15da1a5d195b1a5cdd135a5b9d609a1b60209182015281518083018352928352603160f81b9281019290925280517f8b73c3c69bb8fe3d512ecc4cf759cc79239f7b179b0ffacaa9a75d522b39400f928101929092527f67c8313423c530a1c0e73e7591c862f362ecb90b95e1fed6dbefb108ff8329ef908201527fc89efdaa54c0f20c7adf612882df0950f5a951637e0307cdcb4c672f298b8bc660608201524660808201523060a082015260c00160408051601f198184030181529190528051602090910120600255506101c2565b600080546001600160a01b038381166001600160a01b0319831681178455604051919092169283917f8be0079c531659141344cd1fd0a4f28419497f9722a3daafe3b4186f6b6457e09190a35050565b6000602082840312156101a457600080fd5b81516001600160a01b03811681146101bb57600080fd5b9392505050565b61039e806101d16000396000f3fe608060405234801561001057600080fd5b50600436106100725760003560e01c8063cd77083311610050578063cd770833146100b8578063f2fde38b146100cb578063fa4d280c146100de57600080fd5b80633644e51514610077578063715018a6146100935780638da5cb5b1461009d575b600080fd5b61008060025481565b6040519081526020015b60405180910390f35b61009b610105565b005b6000546040516001600160a01b03909116815260200161008a565b61009b6100c6366004610338565b610170565b61009b6100d9366004610338565b6101f9565b6100807f68e83002b91b0fd96d4df3566b5122221117e3ec6c2468fda594f6491f89b1c981565b6000546001600160a01b031633146101645760405162461bcd60e51b815260206004820181905260248201527f4f776e61626c653a2063616c6c6572206973206e6f7420746865206f776e657260448201526064015b60405180910390fd5b61016e60006102db565b565b6000546001600160a01b031633146101ca5760405162461bcd60e51b815260206004820181905260248201527f4f776e61626c653a2063616c6c6572206973206e6f7420746865206f776e6572604482015260640161015b565b6001805473ffffffffffffffffffffffffffffffffffffffff19166001600160a01b0392909216919091179055565b6000546001600160a01b031633146102535760405162461bcd60e51b815260206004820181905260248201527f4f776e61626c653a2063616c6c6572206973206e6f7420746865206f776e6572604482015260640161015b565b6001600160a01b0381166102cf5760405162461bcd60e51b815260206004820152602660248201527f4f776e61626c653a206e6577206f776e657220697320746865207a65726f206160448201527f6464726573730000000000000000000000000000000000000000000000000000606482015260840161015b565b6102d8816102db565b50565b600080546001600160a01b0383811673ffffffffffffffffffffffffffffffffffffffff19831681178455604051919092169283917f8be0079c531659141344cd1fd0a4f28419497f9722a3daafe3b4186f6b6457e09190a35050565b60006020828403121561034a57600080fd5b81356001600160a01b038116811461036157600080fd5b939250505056fea26469706673582212203178aab19ffc592bc4def686ebef40488b325a594246623e0027e486491e22b864736f6c634300080d0033",
  "linkReferences": {},
  "deployedLinkReferences": {}
}