{
  "_format": "hh-sol-artifact-1",
  "contractName": "EDOToken",
  "sourceName": "contracts/EDOToken.sol",
  "abi": [
    {
      "inputs": [
        {
          "internalType": "address",
          "name": "_vsamurai",
          "type": "address"
        },
        {
          "internalType": "address",
          "name": "_newOwner",
          "type": "address"
        },
        {
          "internalType": "address",
          "name": "_signingKey",
          "type": "address"
        }
      ],
      "stateMutability": "nonpayable",
      "type": "constructor"
    },
    {
      "anonymous": false,
      "inputs": [
        {
          "indexed": true,
          "internalType": "address",
          "name": "owner",
          "type": "address"
        },
        {
          "indexed": true,
          "internalType": "address",
          "name": "spender",
          "type": "address"
        },
        {
          "indexed": false,
          "internalType": "uint256",
          "name": "value",
          "type": "uint256"
        }
      ],
      "name": "Approval",
      "type": "event"
    },
    {
      "anonymous": false,
      "inputs": [
        {
          "indexed": true,
          "internalType": "address",
          "name": "previousOwner",
          "type": "address"
        },
        {
          "indexed": true,
          "internalType": "address",
          "name": "newOwner",
          "type": "address"
        }
      ],
      "name": "OwnershipTransferred",
      "type": "event"
    },
    {
      "anonymous": false,
      "inputs": [
        {
          "indexed": true,
          "internalType": "address",
          "name": "user",
          "type": "address"
        },
        {
          "indexed": false,
          "internalType": "uint256",
          "name": "reward",
          "type": "uint256"
        }
      ],
      "name": "RewardClaimed",
      "type": "event"
    },
    {
      "anonymous": false,
      "inputs": [
        {
          "indexed": true,
          "internalType": "address",
          "name": "from",
          "type": "address"
        },
        {
          "indexed": true,
          "internalType": "address",
          "name": "to",
          "type": "address"
        },
        {
          "indexed": false,
          "internalType": "uint256",
          "name": "value",
          "type": "uint256"
        }
      ],
      "name": "Transfer",
      "type": "event"
    },
    {
      "inputs": [],
      "name": "DOMAIN_SEPARATOR",
      "outputs": [
        {
          "internalType": "bytes32",
          "name": "",
          "type": "bytes32"
        }
      ],
      "stateMutability": "view",
      "type": "function"
    },
    {
      "inputs": [],
      "name": "INITIAL_ISSUANCE",
      "outputs": [
        {
          "internalType": "uint256",
          "name": "",
          "type": "uint256"
        }
      ],
      "stateMutability": "view",
      "type": "function"
    },
    {
      "inputs": [],
      "name": "MAX_SUPPLY",
      "outputs": [
        {
          "internalType": "uint256",
          "name": "",
          "type": "uint256"
        }
      ],
      "stateMutability": "view",
      "type": "function"
    },
    {
      "inputs": [],
      "name": "SIGNUP_FOR_REWARDS_TYPEHASH",
      "outputs": [
        {
          "internalType": "bytes32",
          "name": "",
          "type": "bytes32"
        }
      ],
      "stateMutability": "view",
      "type": "function"
    },
    {
      "inputs": [],
      "name": "TOTAL_MINTED",
      "outputs": [
        {
          "internalType": "uint256",
          "name": "",
          "type": "uint256"
        }
      ],
      "stateMutability": "view",
      "type": "function"
    },
    {
      "inputs": [
        {
          "internalType": "uint256",
          "name": "_tokenId",
          "type": "uint256"
        },
        {
          "internalType": "uint256",
          "name": "_rarity",
          "type": "uint256"
        },
        {
          "internalType": "address",
          "name": "_tokenOwner",
          "type": "address"
        }
      ],
      "name": "adminRarityRegistration",
      "outputs": [],
      "stateMutability": "nonpayable",
      "type": "function"
    },
    {
      "inputs": [
        {
          "internalType": "address",
          "name": "owner",
          "type": "address"
        },
        {
          "internalType": "address",
          "name": "spender",
          "type": "address"
        }
      ],
      "name": "allowance",
      "outputs": [
        {
          "internalType": "uint256",
          "name": "",
          "type": "uint256"
        }
      ],
      "stateMutability": "view",
      "type": "function"
    },
    {
      "inputs": [
        {
          "internalType": "address",
          "name": "spender",
          "type": "address"
        },
        {
          "internalType": "uint256",
          "name": "amount",
          "type": "uint256"
        }
      ],
      "name": "approve",
      "outputs": [
        {
          "internalType": "bool",
          "name": "",
          "type": "bool"
        }
      ],
      "stateMutability": "nonpayable",
      "type": "function"
    },
    {
      "inputs": [
        {
          "internalType": "address",
          "name": "account",
          "type": "address"
        }
      ],
      "name": "balanceOf",
      "outputs": [
        {
          "internalType": "uint256",
          "name": "",
          "type": "uint256"
        }
      ],
      "stateMutability": "view",
      "type": "function"
    },
    {
      "inputs": [
        {
          "internalType": "uint256[]",
          "name": "_tokenIds",
          "type": "uint256[]"
        },
        {
          "internalType": "uint256[]",
          "name": "_rarities",
          "type": "uint256[]"
        },
        {
          "internalType": "address[]",
          "name": "_tokenOwners",
          "type": "address[]"
        }
      ],
      "name": "bulkAdminRarityRegistration",
      "outputs": [],
      "stateMutability": "nonpayable",
      "type": "function"
    },
    {
      "inputs": [
        {
          "internalType": "address",
          "name": "_from",
          "type": "address"
        },
        {
          "internalType": "uint256",
          "name": "_amount",
          "type": "uint256"
        }
      ],
      "name": "burn",
      "outputs": [],
      "stateMutability": "nonpayable",
      "type": "function"
    },
    {
      "inputs": [
        {
          "internalType": "uint256",
          "name": "_newMaxSupply",
          "type": "uint256"
        }
      ],
      "name": "changeMaxSupply",
      "outputs": [],
      "stateMutability": "nonpayable",
      "type": "function"
    },
    {
      "inputs": [
        {
          "internalType": "uint256",
          "name": "_nftId",
          "type": "uint256"
        }
      ],
      "name": "claimRewards",
      "outputs": [],
      "stateMutability": "nonpayable",
      "type": "function"
    },
    {
      "inputs": [],
      "name": "decimals",
      "outputs": [
        {
          "internalType": "uint8",
          "name": "",
          "type": "uint8"
        }
      ],
      "stateMutability": "view",
      "type": "function"
    },
    {
      "inputs": [
        {
          "internalType": "address",
          "name": "spender",
          "type": "address"
        },
        {
          "internalType": "uint256",
          "name": "subtractedValue",
          "type": "uint256"
        }
      ],
      "name": "decreaseAllowance",
      "outputs": [
        {
          "internalType": "bool",
          "name": "",
          "type": "bool"
        }
      ],
      "stateMutability": "nonpayable",
      "type": "function"
    },
    {
      "inputs": [
        {
          "internalType": "uint256",
          "name": "tokenId",
          "type": "uint256"
        }
      ],
      "name": "getTokenRates",
      "outputs": [
        {
          "internalType": "uint256",
          "name": "",
          "type": "uint256"
        }
      ],
      "stateMutability": "view",
      "type": "function"
    },
    {
      "inputs": [
        {
          "internalType": "address",
          "name": "_from",
          "type": "address"
        },
        {
          "internalType": "uint256",
          "name": "_tokenId",
          "type": "uint256"
        }
      ],
      "name": "getTotalClaimable",
      "outputs": [
        {
          "internalType": "uint256",
          "name": "",
          "type": "uint256"
        }
      ],
      "stateMutability": "view",
      "type": "function"
    },
    {
      "inputs": [
        {
          "internalType": "address",
          "name": "spender",
          "type": "address"
        },
        {
          "internalType": "uint256",
          "name": "addedValue",
          "type": "uint256"
        }
      ],
      "name": "increaseAllowance",
      "outputs": [
        {
          "internalType": "bool",
          "name": "",
          "type": "bool"
        }
      ],
      "stateMutability": "nonpayable",
      "type": "function"
    },
    {
      "inputs": [
        {
          "internalType": "address",
          "name": "",
          "type": "address"
        },
        {
          "internalType": "uint256",
          "name": "",
          "type": "uint256"
        }
      ],
      "name": "lastUpdate",
      "outputs": [
        {
          "internalType": "uint256",
          "name": "",
          "type": "uint256"
        }
      ],
      "stateMutability": "view",
      "type": "function"
    },
    {
      "inputs": [],
      "name": "name",
      "outputs": [
        {
          "internalType": "string",
          "name": "",
          "type": "string"
        }
      ],
      "stateMutability": "view",
      "type": "function"
    },
    {
      "inputs": [],
      "name": "owner",
      "outputs": [
        {
          "internalType": "address",
          "name": "",
          "type": "address"
        }
      ],
      "stateMutability": "view",
      "type": "function"
    },
    {
      "inputs": [
        {
          "internalType": "uint256",
          "name": "",
          "type": "uint256"
        }
      ],
      "name": "rarities",
      "outputs": [
        {
          "internalType": "uint256",
          "name": "",
          "type": "uint256"
        }
      ],
      "stateMutability": "view",
      "type": "function"
    },
    {
      "inputs": [
        {
          "internalType": "bytes",
          "name": "signature",
          "type": "bytes"
        },
        {
          "internalType": "uint256",
          "name": "_tokenId",
          "type": "uint256"
        },
        {
          "internalType": "uint256",
          "name": "_rarity",
          "type": "uint256"
        }
      ],
      "name": "registerForRewards",
      "outputs": [],
      "stateMutability": "nonpayable",
      "type": "function"
    },
    {
      "inputs": [],
      "name": "renounceOwnership",
      "outputs": [],
      "stateMutability": "nonpayable",
      "type": "function"
    },
    {
      "inputs": [
        {
          "internalType": "address",
          "name": "",
          "type": "address"
        },
        {
          "internalType": "uint256",
          "name": "",
          "type": "uint256"
        }
      ],
      "name": "rewards",
      "outputs": [
        {
          "internalType": "uint256",
          "name": "",
          "type": "uint256"
        }
      ],
      "stateMutability": "view",
      "type": "function"
    },
    {
      "inputs": [
        {
          "internalType": "address",
          "name": "_vsamurai",
          "type": "address"
        }
      ],
      "name": "setNFTContract",
      "outputs": [],
      "stateMutability": "nonpayable",
      "type": "function"
    },
    {
      "inputs": [
        {
          "internalType": "address",
          "name": "newSigningKey",
          "type": "address"
        }
      ],
      "name": "setSigningAddress",
      "outputs": [],
      "stateMutability": "nonpayable",
      "type": "function"
    },
    {
      "inputs": [
        {
          "internalType": "uint256[20]",
          "name": "_newRates",
          "type": "uint256[20]"
        }
      ],
      "name": "setTokenRates",
      "outputs": [],
      "stateMutability": "nonpayable",
      "type": "function"
    },
    {
      "inputs": [],
      "name": "signingKey",
      "outputs": [
        {
          "internalType": "address",
          "name": "",
          "type": "address"
        }
      ],
      "stateMutability": "view",
      "type": "function"
    },
    {
      "inputs": [],
      "name": "symbol",
      "outputs": [
        {
          "internalType": "string",
          "name": "",
          "type": "string"
        }
      ],
      "stateMutability": "view",
      "type": "function"
    },
    {
      "inputs": [
        {
          "internalType": "uint256",
          "name": "",
          "type": "uint256"
        }
      ],
      "name": "tokenRates",
      "outputs": [
        {
          "internalType": "uint256",
          "name": "",
          "type": "uint256"
        }
      ],
      "stateMutability": "view",
      "type": "function"
    },
    {
      "inputs": [],
      "name": "totalSupply",
      "outputs": [
        {
          "internalType": "uint256",
          "name": "",
          "type": "uint256"
        }
      ],
      "stateMutability": "view",
      "type": "function"
    },
    {
      "inputs": [
        {
          "internalType": "address",
          "name": "to",
          "type": "address"
        },
        {
          "internalType": "uint256",
          "name": "amount",
          "type": "uint256"
        }
      ],
      "name": "transfer",
      "outputs": [
        {
          "internalType": "bool",
          "name": "",
          "type": "bool"
        }
      ],
      "stateMutability": "nonpayable",
      "type": "function"
    },
    {
      "inputs": [
        {
          "internalType": "address",
          "name": "from",
          "type": "address"
        },
        {
          "internalType": "address",
          "name": "to",
          "type": "address"
        },
        {
          "internalType": "uint256",
          "name": "amount",
          "type": "uint256"
        }
      ],
      "name": "transferFrom",
      "outputs": [
        {
          "internalType": "bool",
          "name": "",
          "type": "bool"
        }
      ],
      "stateMutability": "nonpayable",
      "type": "function"
    },
    {
      "inputs": [
        {
          "internalType": "address",
          "name": "newOwner",
          "type": "address"
        }
      ],
      "name": "transferOwnership",
      "outputs": [],
      "stateMutability": "nonpayable",
      "type": "function"
    },
    {
      "inputs": [
        {
          "internalType": "address",
          "name": "_from",
          "type": "address"
        },
        {
          "internalType": "address",
          "name": "_to",
          "type": "address"
        },
        {
          "internalType": "uint256",
          "name": "_tokenId",
          "type": "uint256"
        }
      ],
      "name": "updateReward",
      "outputs": [],
      "stateMutability": "nonpayable",
      "type": "function"
    },
    {
      "inputs": [],
      "name": "vSamuraiContract",
      "outputs": [
        {
          "internalType": "contract IERC721",
          "name": "",
          "type": "address"
        }
      ],
      "stateMutability": "view",
      "type": "function"
    }
  ],
  "bytecode": "0x6080604052601e80546001600160a01b03191690556aa56fa5b99019a5c800000060205560006021553480156200003557600080fd5b5060405162002c8038038062002c80833981016040819052620000589162000492565b6040518060400160405280600381526020016245444f60e81b8152506040518060400160405280600381526020016245444f60e81b8152508160039080519060200190620000a8929190620003cf565b508051620000be906004906020840190620003cf565b505050620000db620000d56200029160201b60201c565b62000295565b601e80546001600160a01b0319166001600160a01b03831617905560408051808201825260128152715265676973746572466f725265776172647360701b6020918201528151808301835260018152603160f81b9082015281517f8b73c3c69bb8fe3d512ecc4cf759cc79239f7b179b0ffacaa9a75d522b39400f918101919091527f78d6b469f6df95eeeed807a1685d0dec19c883c36cbb8c17e3d5a80d6c08a2ed918101919091527fc89efdaa54c0f20c7adf612882df0950f5a951637e0307cdcb4c672f298b8bc660608201524660808201523060a082015260c00160408051808303601f190181529190528051602090910120601f55600260079081556004600855600955600a80556014600b819055600c8190556028600d8190556046600e556064600f5560c86010819055601191909155608c60125560506013559055610190601555601d80546001600160a01b0385166001600160a01b03199091161790556200024c8262000295565b62000263826a06342fd08f00f637800000620002e7565b6a06342fd08f00f63780000060216000828254620002829190620004dc565b909155506200053f9350505050565b3390565b600580546001600160a01b038381166001600160a01b0319831681179093556040519116919082907f8be0079c531659141344cd1fd0a4f28419497f9722a3daafe3b4186f6b6457e090600090a35050565b6001600160a01b038216620003425760405162461bcd60e51b815260206004820152601f60248201527f45524332303a206d696e7420746f20746865207a65726f206164647265737300604482015260640160405180910390fd5b8060026000828254620003569190620004dc565b90915550506001600160a01b0382166000908152602081905260408120805483929062000385908490620004dc565b90915550506040518181526001600160a01b038316906000907fddf252ad1be2c89b69c2b068fc378daa952ba7f163c4a11628f55a4df523b3ef9060200160405180910390a35050565b828054620003dd9062000503565b90600052602060002090601f0160209004810192826200040157600085556200044c565b82601f106200041c57805160ff19168380011785556200044c565b828001600101855582156200044c579182015b828111156200044c5782518255916020019190600101906200042f565b506200045a9291506200045e565b5090565b5b808211156200045a57600081556001016200045f565b80516001600160a01b03811681146200048d57600080fd5b919050565b600080600060608486031215620004a857600080fd5b620004b38462000475565b9250620004c36020850162000475565b9150620004d36040850162000475565b90509250925092565b60008219821115620004fe57634e487b7160e01b600052601160045260246000fd5b500190565b600181811c908216806200051857607f821691505b6020821081036200053957634e487b7160e01b600052602260045260246000fd5b50919050565b612731806200054f6000396000f3fe608060405234801561001057600080fd5b50600436106102775760003560e01c806366f27fd311610160578063a457c2d7116100d8578063c54d668f1161008c578063dd62ed3e11610071578063dd62ed3e14610564578063e20b2ba21461059d578063f2fde38b146105b057600080fd5b8063c54d668f14610530578063d0a823d91461053957600080fd5b8063a9059cbb116100bd578063a9059cbb146104df578063b933ceac146104f2578063c1d99ada1461051d57600080fd5b8063a457c2d7146104b9578063a7ccabdf146104cc57600080fd5b80637406f6491161012f57806395d89b411161011457806395d89b41146104775780639dc29fac1461047f578063a14b73f11461049257600080fd5b80637406f649146104535780638da5cb5b1461046657600080fd5b806366f27fd3146103fc578063676257a51461040f57806370a0823114610422578063715018a61461044b57600080fd5b80632c8e8dfa116101f35780633644e515116101c25780633d0f2200116101a75780633d0f2200146103c6578063404c7cdd146103d957806344a6b86c146103ec57600080fd5b80633644e515146103aa57806339509351146103b357600080fd5b80632c8e8dfa1461036c578063313ce5671461037f57806331beb6051461038e57806332cb6b0c146103a157600080fd5b80630e5a8eec1161024a57806318160ddd1161022f57806318160ddd1461033e5780631fc8788c1461034657806323b872dd1461035957600080fd5b80630e5a8eec146102e557806317b8e1cf1461031057600080fd5b806306fdde031461027c578063095ea7b31461029a5780630962ef79146102bd5780630b76f141146102d2575b600080fd5b6102846105c3565b60405161029191906122d1565b60405180910390f35b6102ad6102a836600461233b565b610655565b6040519015158152602001610291565b6102d06102cb366004612367565b61066f565b005b6102d06102e0366004612380565b6107ad565b601d546102f8906001600160a01b031681565b6040516001600160a01b039091168152602001610291565b61033061031e366004612367565b601a6020526000908152604090205481565b604051908152602001610291565b600254610330565b6102d06103543660046123ab565b610855565b6102ad6103673660046123e4565b610934565b6102d061037a3660046123e4565b610958565b60405160128152602001610291565b6102d061039c366004612425565b6109cb565b61033060205481565b610330601f5481565b6102ad6103c136600461233b565b610a54565b6103306103d436600461233b565b610a93565b6102d06103e7366004612367565b610bcf565b610330680410d586a20a4c000081565b601e546102f8906001600160a01b031681565b61033061041d366004612367565b610ca5565b610330610430366004612425565b6001600160a01b031660009081526020819052604090205490565b6102d0610ccf565b6102d0610461366004612487565b610d35565b6005546001600160a01b03166102f8565b610284611016565b6102d061048d36600461233b565b611025565b6103307f8349e027b7fe65d72e0651cb609a509e44f064897935553ec399102e02be340b81565b6102ad6104c736600461233b565b611092565b6102d06104da366004612425565b61113c565b6102ad6104ed36600461233b565b6111c5565b61033061050036600461233b565b601b60209081526000928352604080842090915290825290205481565b61033061052b366004612367565b6111d3565b61033060215481565b61033061054736600461233b565b601c60209081526000928352604080842090915290825290205481565b610330610572366004612521565b6001600160a01b03918216600090815260016020908152604080832093909416825291909152205490565b6102d06105ab36600461255a565b6111ea565b6102d06105be366004612425565b61157b565b6060600380546105d2906125d9565b80601f01602080910402602001604051908101604052809291908181526020018280546105fe906125d9565b801561064b5780601f106106205761010080835404028352916020019161064b565b820191906000526020600020905b81548152906001019060200180831161062e57829003601f168201915b5050505050905090565b60003361066381858561165a565b60019150505b92915050565b601d546001600160a01b03166106cc5760405162461bcd60e51b815260206004820152601460248201527f4e465420636f6e7472616374206e6f742073657400000000000000000000000060448201526064015b60405180910390fd5b33601d546040516331a9108f60e11b8152600481018490526001600160a01b039283169290911690636352211e90602401602060405180830381865afa15801561071a573d6000803e3d6000fd5b505050506040513d601f19601f8201168201806040525081019061073e9190612613565b6001600160a01b0316146107945760405162461bcd60e51b815260206004820152601960248201527f596f7520617265206e6f7420746865206e6674206f776e65720000000000000060448201526064016106c3565b6107a0336000836117b2565b6107aa33826118a4565b50565b6005546001600160a01b031633146108075760405162461bcd60e51b815260206004820181905260248201527f4f776e61626c653a2063616c6c6572206973206e6f7420746865206f776e657260448201526064016106c3565b60005b60148110156108515781816014811061082557610825612630565b60200201356006826014811061083d5761083d612630565b0155806108498161265c565b91505061080a565b5050565b6005546001600160a01b031633146108af5760405162461bcd60e51b815260206004820181905260248201527f4f776e61626c653a2063616c6c6572206973206e6f7420746865206f776e657260448201526064016106c3565b6000838152601a602090815260408083208590556001600160a01b0384168352601b82528083208684529091529020546108f390680410d586a20a4c000090612675565b6001600160a01b039091166000818152601b60209081526040808320878452825280832094909455918152601c825282812094815293905290912042905550565b6000336109428582856119c5565b61094d858585611a57565b506001949350505050565b601d546001600160a01b0316336001600160a01b0316146109bb5760405162461bcd60e51b815260206004820152601560248201527f43616c6c6572206e6f7420617574686f72697a6564000000000000000000000060448201526064016106c3565b6109c68383836117b2565b505050565b6005546001600160a01b03163314610a255760405162461bcd60e51b815260206004820181905260248201527f4f776e61626c653a2063616c6c6572206973206e6f7420746865206f776e657260448201526064016106c3565b601e805473ffffffffffffffffffffffffffffffffffffffff19166001600160a01b0392909216919091179055565b3360008181526001602090815260408083206001600160a01b03871684529091528120549091906106639082908690610a8e908790612675565b61165a565b600080610a9f83610ca5565b601d546040516331a9108f60e11b81526004810186905291925042916001600160a01b03878116921690636352211e90602401602060405180830381865afa158015610aef573d6000803e3d6000fd5b505050506040513d601f19601f82011682018060405250810190610b139190612613565b6001600160a01b031603610ba4576001600160a01b0385166000908152601c602090815260408083208784529091528120546201518090610b54908461268d565b610b5e90856126a4565b610b6891906126c3565b6001600160a01b0387166000908152601b60209081526040808320898452909152902054909150610b9a908290612675565b9350505050610669565b5050506001600160a01b03919091166000908152601b60209081526040808320938352929052205490565b6005546001600160a01b03163314610c295760405162461bcd60e51b815260206004820181905260248201527f4f776e61626c653a2063616c6c6572206973206e6f7420746865206f776e657260448201526064016106c3565b6021548111610ca05760405162461bcd60e51b815260206004820152603f60248201527f546865206e6577206d617820737570706c79206d75737420626520677265617460448201527f6572207468616e2074686520746f74616c20746f6b656e73206d696e7465640060648201526084016106c3565b602055565b6000818152601a602052604081205460069060148110610cc757610cc7612630565b015492915050565b6005546001600160a01b03163314610d295760405162461bcd60e51b815260206004820181905260248201527f4f776e61626c653a2063616c6c6572206973206e6f7420746865206f776e657260448201526064016106c3565b610d336000611c6e565b565b6005546001600160a01b03163314610d8f5760405162461bcd60e51b815260206004820181905260248201527f4f776e61626c653a2063616c6c6572206973206e6f7420746865206f776e657260448201526064016106c3565b848314610dde5760405162461bcd60e51b815260206004820152601760248201527f417272617973206d757374206d756368206c656e67746800000000000000000060448201526064016106c3565b828114610e2d5760405162461bcd60e51b815260206004820152601760248201527f417272617973206d757374206d756368206c656e67746800000000000000000060448201526064016106c3565b60005b8581101561100d57848482818110610e4a57610e4a612630565b90506020020135601a6000898985818110610e6757610e67612630565b90506020020135815260200190815260200160002081905550680410d586a20a4c0000601b6000858585818110610ea057610ea0612630565b9050602002016020810190610eb59190612425565b6001600160a01b03166001600160a01b031681526020019081526020016000206000898985818110610ee957610ee9612630565b90506020020135815260200190815260200160002054610f099190612675565b601b6000858585818110610f1f57610f1f612630565b9050602002016020810190610f349190612425565b6001600160a01b03166001600160a01b031681526020019081526020016000206000898985818110610f6857610f68612630565b9050602002013581526020019081526020016000208190555042601c6000858585818110610f9857610f98612630565b9050602002016020810190610fad9190612425565b6001600160a01b03166001600160a01b031681526020019081526020016000206000898985818110610fe157610fe1612630565b9050602002013581526020019081526020016000208190555080806110059061265c565b915050610e30565b50505050505050565b6060600480546105d2906125d9565b601d546001600160a01b0316336001600160a01b0316146110885760405162461bcd60e51b815260206004820152601560248201527f43616c6c6572206e6f7420617574686f72697a6564000000000000000000000060448201526064016106c3565b6108518282611ccd565b3360008181526001602090815260408083206001600160a01b03871684529091528120549091908381101561112f5760405162461bcd60e51b815260206004820152602560248201527f45524332303a2064656372656173656420616c6c6f77616e63652062656c6f7760448201527f207a65726f00000000000000000000000000000000000000000000000000000060648201526084016106c3565b61094d828686840361165a565b6005546001600160a01b031633146111965760405162461bcd60e51b815260206004820181905260248201527f4f776e61626c653a2063616c6c6572206973206e6f7420746865206f776e657260448201526064016106c3565b601d805473ffffffffffffffffffffffffffffffffffffffff19166001600160a01b0392909216919091179055565b600033610663818585611a57565b600681601481106111e357600080fd5b0154905081565b601e5484908490849084906001600160a01b031661124a5760405162461bcd60e51b815260206004820152601360248201527f72657761726473206e6f7420656e61626c65640000000000000000000000000060448201526064016106c3565b6000601f547f8349e027b7fe65d72e0651cb609a509e44f064897935553ec399102e02be340b6112773390565b6040805160208101939093526001600160a01b0390911690820152606081018590526080810184905260a001604051602081830303815290604052805190602001206040516020016112fb9291907f190100000000000000000000000000000000000000000000000000000000000081526002810192909252602282015260420190565b604051602081830303815290604052805190602001209050600061135786868080601f0160208091040260200160405190810160405280939291908181526020018383808284376000920191909152508693925050611e529050565b601e549091506001600160a01b038083169116146113b75760405162461bcd60e51b815260206004820152601160248201527f496e76616c6964205369676e617475726500000000000000000000000000000060448201526064016106c3565b6000888152601a6020526040902054156114395760405162461bcd60e51b815260206004820152603560248201527f546f6b656e2063616e6e6f74206265207265676973746572656420666f72207260448201527f657761726473206d6f7265207468616e206f6e6365000000000000000000000060648201526084016106c3565b33601d546040516331a9108f60e11b8152600481018b90526001600160a01b039283169290911690636352211e90602401602060405180830381865afa158015611487573d6000803e3d6000fd5b505050506040513d601f19601f820116820180604052508101906114ab9190612613565b6001600160a01b0316146115015760405162461bcd60e51b815260206004820152601960248201527f596f7520617265206e6f7420746865206e6674206f776e65720000000000000060448201526064016106c3565b6000888152601a602090815260408083208a9055338352601b82528083208b845290915290205461153c90680410d586a20a4c000090612675565b336000818152601b602090815260408083208d8452825280832094909455918152601c82528281209a8152999052909720429055505050505050505050565b6005546001600160a01b031633146115d55760405162461bcd60e51b815260206004820181905260248201527f4f776e61626c653a2063616c6c6572206973206e6f7420746865206f776e657260448201526064016106c3565b6001600160a01b0381166116515760405162461bcd60e51b815260206004820152602660248201527f4f776e61626c653a206e6577206f776e657220697320746865207a65726f206160448201527f646472657373000000000000000000000000000000000000000000000000000060648201526084016106c3565b6107aa81611c6e565b6001600160a01b0383166116d55760405162461bcd60e51b8152602060048201526024808201527f45524332303a20617070726f76652066726f6d20746865207a65726f2061646460448201527f726573730000000000000000000000000000000000000000000000000000000060648201526084016106c3565b6001600160a01b0382166117515760405162461bcd60e51b815260206004820152602260248201527f45524332303a20617070726f766520746f20746865207a65726f20616464726560448201527f737300000000000000000000000000000000000000000000000000000000000060648201526084016106c3565b6001600160a01b0383811660008181526001602090815260408083209487168084529482529182902085905590518481527f8c5be1e5ebec7d5bd14f71427d1e84f3dd0314c0f7b2291e5b200ac8c7c3b925910160405180910390a3505050565b60006117bd82610ca5565b6001600160a01b0385166000908152601c602090815260408083208684529091529020549091504290801561184757620151806117fa828461268d565b61180490856126a4565b61180e91906126c3565b6001600160a01b0387166000908152601b6020908152604080832088845290915281208054909190611841908490612675565b90915550505b6001600160a01b038087166000908152601c60209081526040808320888452909152902083905585161561189c576001600160a01b0385166000908152601c6020908152604080832087845290915290208290555b505050505050565b6001600160a01b0382166000908152601b6020908152604080832084845290915290205480156109c657602154602054116119215760405162461bcd60e51b815260206004820152601260248201527f45786365656473206d617820737570706c79000000000000000000000000000060448201526064016106c3565b6001600160a01b0383166000908152601b6020908152604080832085845282528220829055602154905461195e916119589161268d565b83611e76565b905061196a8482611e8f565b806021600082825461197c9190612675565b90915550506040518181526001600160a01b038516907f106f923f993c2149d49b4255ff723acafa1f2d94393f561d3eda32ae348f72419060200160405180910390a250505050565b6001600160a01b038381166000908152600160209081526040808320938616835292905220546000198114611a515781811015611a445760405162461bcd60e51b815260206004820152601d60248201527f45524332303a20696e73756666696369656e7420616c6c6f77616e636500000060448201526064016106c3565b611a51848484840361165a565b50505050565b6001600160a01b038316611ad35760405162461bcd60e51b815260206004820152602560248201527f45524332303a207472616e736665722066726f6d20746865207a65726f20616460448201527f647265737300000000000000000000000000000000000000000000000000000060648201526084016106c3565b6001600160a01b038216611b4f5760405162461bcd60e51b815260206004820152602360248201527f45524332303a207472616e7366657220746f20746865207a65726f206164647260448201527f657373000000000000000000000000000000000000000000000000000000000060648201526084016106c3565b6001600160a01b03831660009081526020819052604090205481811015611bde5760405162461bcd60e51b815260206004820152602660248201527f45524332303a207472616e7366657220616d6f756e742065786365656473206260448201527f616c616e6365000000000000000000000000000000000000000000000000000060648201526084016106c3565b6001600160a01b03808516600090815260208190526040808220858503905591851681529081208054849290611c15908490612675565b92505081905550826001600160a01b0316846001600160a01b03167fddf252ad1be2c89b69c2b068fc378daa952ba7f163c4a11628f55a4df523b3ef84604051611c6191815260200190565b60405180910390a3611a51565b600580546001600160a01b0383811673ffffffffffffffffffffffffffffffffffffffff19831681179093556040519116919082907f8be0079c531659141344cd1fd0a4f28419497f9722a3daafe3b4186f6b6457e090600090a35050565b6001600160a01b038216611d495760405162461bcd60e51b815260206004820152602160248201527f45524332303a206275726e2066726f6d20746865207a65726f2061646472657360448201527f730000000000000000000000000000000000000000000000000000000000000060648201526084016106c3565b6001600160a01b03821660009081526020819052604090205481811015611dd85760405162461bcd60e51b815260206004820152602260248201527f45524332303a206275726e20616d6f756e7420657863656564732062616c616e60448201527f636500000000000000000000000000000000000000000000000000000000000060648201526084016106c3565b6001600160a01b0383166000908152602081905260408120838303905560028054849290611e0790849061268d565b90915550506040518281526000906001600160a01b038516907fddf252ad1be2c89b69c2b068fc378daa952ba7f163c4a11628f55a4df523b3ef9060200160405180910390a3505050565b6000806000611e618585611f6e565b91509150611e6e81611fdc565b509392505050565b600081831115611e865781611e88565b825b9392505050565b6001600160a01b038216611ee55760405162461bcd60e51b815260206004820152601f60248201527f45524332303a206d696e7420746f20746865207a65726f20616464726573730060448201526064016106c3565b8060026000828254611ef79190612675565b90915550506001600160a01b03821660009081526020819052604081208054839290611f24908490612675565b90915550506040518181526001600160a01b038316906000907fddf252ad1be2c89b69c2b068fc378daa952ba7f163c4a11628f55a4df523b3ef9060200160405180910390a35050565b6000808251604103611fa45760208301516040840151606085015160001a611f9887828585612192565b94509450505050611fd5565b8251604003611fcd5760208301516040840151611fc286838361227f565b935093505050611fd5565b506000905060025b9250929050565b6000816004811115611ff057611ff06126e5565b03611ff85750565b600181600481111561200c5761200c6126e5565b036120595760405162461bcd60e51b815260206004820152601860248201527f45434453413a20696e76616c6964207369676e6174757265000000000000000060448201526064016106c3565b600281600481111561206d5761206d6126e5565b036120ba5760405162461bcd60e51b815260206004820152601f60248201527f45434453413a20696e76616c6964207369676e6174757265206c656e6774680060448201526064016106c3565b60038160048111156120ce576120ce6126e5565b036121265760405162461bcd60e51b815260206004820152602260248201527f45434453413a20696e76616c6964207369676e6174757265202773272076616c604482015261756560f01b60648201526084016106c3565b600481600481111561213a5761213a6126e5565b036107aa5760405162461bcd60e51b815260206004820152602260248201527f45434453413a20696e76616c6964207369676e6174757265202776272076616c604482015261756560f01b60648201526084016106c3565b6000807f7fffffffffffffffffffffffffffffff5d576e7357a4501ddfe92f46681b20a08311156121c95750600090506003612276565b8460ff16601b141580156121e157508460ff16601c14155b156121f25750600090506004612276565b6040805160008082526020820180845289905260ff881692820192909252606081018690526080810185905260019060a0016020604051602081039080840390855afa158015612246573d6000803e3d6000fd5b5050604051601f1901519150506001600160a01b03811661226f57600060019250925050612276565b9150600090505b94509492505050565b6000807f7fffffffffffffffffffffffffffffffffffffffffffffffffffffffffffffff8316816122b560ff86901c601b612675565b90506122c387828885612192565b935093505050935093915050565b600060208083528351808285015260005b818110156122fe578581018301518582016040015282016122e2565b81811115612310576000604083870101525b50601f01601f1916929092016040019392505050565b6001600160a01b03811681146107aa57600080fd5b6000806040838503121561234e57600080fd5b823561235981612326565b946020939093013593505050565b60006020828403121561237957600080fd5b5035919050565b600061028080838503121561239457600080fd5b8381840111156123a357600080fd5b509092915050565b6000806000606084860312156123c057600080fd5b833592506020840135915060408401356123d981612326565b809150509250925092565b6000806000606084860312156123f957600080fd5b833561240481612326565b9250602084013561241481612326565b929592945050506040919091013590565b60006020828403121561243757600080fd5b8135611e8881612326565b60008083601f84011261245457600080fd5b50813567ffffffffffffffff81111561246c57600080fd5b6020830191508360208260051b8501011115611fd557600080fd5b600080600080600080606087890312156124a057600080fd5b863567ffffffffffffffff808211156124b857600080fd5b6124c48a838b01612442565b909850965060208901359150808211156124dd57600080fd5b6124e98a838b01612442565b9096509450604089013591508082111561250257600080fd5b5061250f89828a01612442565b979a9699509497509295939492505050565b6000806040838503121561253457600080fd5b823561253f81612326565b9150602083013561254f81612326565b809150509250929050565b6000806000806060858703121561257057600080fd5b843567ffffffffffffffff8082111561258857600080fd5b818701915087601f83011261259c57600080fd5b8135818111156125ab57600080fd5b8860208285010111156125bd57600080fd5b6020928301999098509187013596604001359550909350505050565b600181811c908216806125ed57607f821691505b60208210810361260d57634e487b7160e01b600052602260045260246000fd5b50919050565b60006020828403121561262557600080fd5b8151611e8881612326565b634e487b7160e01b600052603260045260246000fd5b634e487b7160e01b600052601160045260246000fd5b60006001820161266e5761266e612646565b5060010190565b6000821982111561268857612688612646565b500190565b60008282101561269f5761269f612646565b500390565b60008160001904831182151516156126be576126be612646565b500290565b6000826126e057634e487b7160e01b600052601260045260246000fd5b500490565b634e487b7160e01b600052602160045260246000fdfea264697066735822122029a854bc227b83bea356f672d63a2683afcf89cd779a85b433f5a86c74ea627264736f6c634300080d0033",
  "linkReferences": {},
  "deployedLinkReferences": {}
}