{
  "_format": "hh-sol-artifact-1",
  "contractName": "EDOToken",
  "sourceName": "contracts/EDOToken.sol",
  "abi": [
    {
      "inputs": [
        {
          "internalType": "address",
          "name": "_vsamurai",
          "type": "address"
        },
        {
          "internalType": "address",
          "name": "_newOwner",
          "type": "address"
        },
        {
          "internalType": "address",
          "name": "_signingKey",
          "type": "address"
        }
      ],
      "stateMutability": "nonpayable",
      "type": "constructor"
    },
    {
      "anonymous": false,
      "inputs": [
        {
          "indexed": true,
          "internalType": "address",
          "name": "owner",
          "type": "address"
        },
        {
          "indexed": true,
          "internalType": "address",
          "name": "spender",
          "type": "address"
        },
        {
          "indexed": false,
          "internalType": "uint256",
          "name": "value",
          "type": "uint256"
        }
      ],
      "name": "Approval",
      "type": "event"
    },
    {
      "anonymous": false,
      "inputs": [
        {
          "indexed": true,
          "internalType": "address",
          "name": "previousOwner",
          "type": "address"
        },
        {
          "indexed": true,
          "internalType": "address",
          "name": "newOwner",
          "type": "address"
        }
      ],
      "name": "OwnershipTransferred",
      "type": "event"
    },
    {
      "anonymous": false,
      "inputs": [
        {
          "indexed": true,
          "internalType": "address",
          "name": "user",
          "type": "address"
        },
        {
          "indexed": false,
          "internalType": "uint256",
          "name": "reward",
          "type": "uint256"
        }
      ],
      "name": "RewardClaimed",
      "type": "event"
    },
    {
      "anonymous": false,
      "inputs": [
        {
          "indexed": true,
          "internalType": "address",
          "name": "from",
          "type": "address"
        },
        {
          "indexed": true,
          "internalType": "address",
          "name": "to",
          "type": "address"
        },
        {
          "indexed": false,
          "internalType": "uint256",
          "name": "value",
          "type": "uint256"
        }
      ],
      "name": "Transfer",
      "type": "event"
    },
    {
      "anonymous": false,
      "inputs": [
        {
          "indexed": true,
          "internalType": "address",
          "name": "user",
          "type": "address"
        },
        {
          "indexed": false,
          "internalType": "uint256",
          "name": "reward",
          "type": "uint256"
        }
      ],
      "name": "UnstakeNFT",
      "type": "event"
    },
    {
      "inputs": [],
      "name": "DOMAIN_SEPARATOR",
      "outputs": [
        {
          "internalType": "bytes32",
          "name": "",
          "type": "bytes32"
        }
      ],
      "stateMutability": "view",
      "type": "function"
    },
    {
      "inputs": [],
      "name": "INITIAL_ISSUANCE",
      "outputs": [
        {
          "internalType": "uint256",
          "name": "",
          "type": "uint256"
        }
      ],
      "stateMutability": "view",
      "type": "function"
    },
    {
      "inputs": [],
      "name": "MAX_SUPPLY",
      "outputs": [
        {
          "internalType": "uint256",
          "name": "",
          "type": "uint256"
        }
      ],
      "stateMutability": "view",
      "type": "function"
    },
    {
      "inputs": [],
      "name": "SIGNUP_FOR_REWARDS_TYPEHASH",
      "outputs": [
        {
          "internalType": "bytes32",
          "name": "",
          "type": "bytes32"
        }
      ],
      "stateMutability": "view",
      "type": "function"
    },
    {
      "inputs": [],
      "name": "TOTAL_MINTED",
      "outputs": [
        {
          "internalType": "uint256",
          "name": "",
          "type": "uint256"
        }
      ],
      "stateMutability": "view",
      "type": "function"
    },
    {
      "inputs": [
        {
          "internalType": "uint256",
          "name": "_tokenId",
          "type": "uint256"
        },
        {
          "internalType": "uint256",
          "name": "_rarity",
          "type": "uint256"
        },
        {
          "internalType": "address",
          "name": "_tokenOwner",
          "type": "address"
        }
      ],
      "name": "adminRarityRegistration",
      "outputs": [],
      "stateMutability": "nonpayable",
      "type": "function"
    },
    {
      "inputs": [
        {
          "internalType": "address",
          "name": "owner",
          "type": "address"
        },
        {
          "internalType": "address",
          "name": "spender",
          "type": "address"
        }
      ],
      "name": "allowance",
      "outputs": [
        {
          "internalType": "uint256",
          "name": "",
          "type": "uint256"
        }
      ],
      "stateMutability": "view",
      "type": "function"
    },
    {
      "inputs": [
        {
          "internalType": "address",
          "name": "spender",
          "type": "address"
        },
        {
          "internalType": "uint256",
          "name": "amount",
          "type": "uint256"
        }
      ],
      "name": "approve",
      "outputs": [
        {
          "internalType": "bool",
          "name": "",
          "type": "bool"
        }
      ],
      "stateMutability": "nonpayable",
      "type": "function"
    },
    {
      "inputs": [
        {
          "internalType": "address",
          "name": "account",
          "type": "address"
        }
      ],
      "name": "balanceOf",
      "outputs": [
        {
          "internalType": "uint256",
          "name": "",
          "type": "uint256"
        }
      ],
      "stateMutability": "view",
      "type": "function"
    },
    {
      "inputs": [
        {
          "internalType": "uint256[]",
          "name": "_tokenIds",
          "type": "uint256[]"
        },
        {
          "internalType": "uint256[]",
          "name": "_rarities",
          "type": "uint256[]"
        },
        {
          "internalType": "address[]",
          "name": "_tokenOwners",
          "type": "address[]"
        }
      ],
      "name": "bulkAdminRarityRegistration",
      "outputs": [],
      "stateMutability": "nonpayable",
      "type": "function"
    },
    {
      "inputs": [
        {
          "internalType": "address",
          "name": "_from",
          "type": "address"
        },
        {
          "internalType": "uint256",
          "name": "_amount",
          "type": "uint256"
        }
      ],
      "name": "burn",
      "outputs": [],
      "stateMutability": "nonpayable",
      "type": "function"
    },
    {
      "inputs": [
        {
          "internalType": "uint256",
          "name": "_newMaxSupply",
          "type": "uint256"
        }
      ],
      "name": "changeMaxSupply",
      "outputs": [],
      "stateMutability": "nonpayable",
      "type": "function"
    },
    {
      "inputs": [
        {
          "internalType": "uint256",
          "name": "_nftId",
          "type": "uint256"
        }
      ],
      "name": "claimRewards",
      "outputs": [],
      "stateMutability": "nonpayable",
      "type": "function"
    },
    {
      "inputs": [],
      "name": "decimals",
      "outputs": [
        {
          "internalType": "uint8",
          "name": "",
          "type": "uint8"
        }
      ],
      "stateMutability": "view",
      "type": "function"
    },
    {
      "inputs": [
        {
          "internalType": "address",
          "name": "spender",
          "type": "address"
        },
        {
          "internalType": "uint256",
          "name": "subtractedValue",
          "type": "uint256"
        }
      ],
      "name": "decreaseAllowance",
      "outputs": [
        {
          "internalType": "bool",
          "name": "",
          "type": "bool"
        }
      ],
      "stateMutability": "nonpayable",
      "type": "function"
    },
    {
      "inputs": [
        {
          "internalType": "uint256",
          "name": "tokenId",
          "type": "uint256"
        }
      ],
      "name": "getTokenRates",
      "outputs": [
        {
          "internalType": "uint256",
          "name": "",
          "type": "uint256"
        }
      ],
      "stateMutability": "view",
      "type": "function"
    },
    {
      "inputs": [
        {
          "internalType": "address",
          "name": "_from",
          "type": "address"
        },
        {
          "internalType": "uint256",
          "name": "_tokenId",
          "type": "uint256"
        }
      ],
      "name": "getTotalClaimable",
      "outputs": [
        {
          "internalType": "uint256",
          "name": "",
          "type": "uint256"
        }
      ],
      "stateMutability": "view",
      "type": "function"
    },
    {
      "inputs": [
        {
          "internalType": "address",
          "name": "spender",
          "type": "address"
        },
        {
          "internalType": "uint256",
          "name": "addedValue",
          "type": "uint256"
        }
      ],
      "name": "increaseAllowance",
      "outputs": [
        {
          "internalType": "bool",
          "name": "",
          "type": "bool"
        }
      ],
      "stateMutability": "nonpayable",
      "type": "function"
    },
    {
      "inputs": [
        {
          "internalType": "address",
          "name": "",
          "type": "address"
        },
        {
          "internalType": "uint256",
          "name": "",
          "type": "uint256"
        }
      ],
      "name": "lastUpdate",
      "outputs": [
        {
          "internalType": "uint256",
          "name": "",
          "type": "uint256"
        }
      ],
      "stateMutability": "view",
      "type": "function"
    },
    {
      "inputs": [],
      "name": "name",
      "outputs": [
        {
          "internalType": "string",
          "name": "",
          "type": "string"
        }
      ],
      "stateMutability": "view",
      "type": "function"
    },
    {
      "inputs": [],
      "name": "owner",
      "outputs": [
        {
          "internalType": "address",
          "name": "",
          "type": "address"
        }
      ],
      "stateMutability": "view",
      "type": "function"
    },
    {
      "inputs": [
        {
          "internalType": "uint256",
          "name": "",
          "type": "uint256"
        }
      ],
      "name": "rarities",
      "outputs": [
        {
          "internalType": "uint256",
          "name": "",
          "type": "uint256"
        }
      ],
      "stateMutability": "view",
      "type": "function"
    },
    {
      "inputs": [
        {
          "internalType": "bytes",
          "name": "signature",
          "type": "bytes"
        },
        {
          "internalType": "uint256",
          "name": "_tokenId",
          "type": "uint256"
        },
        {
          "internalType": "uint256",
          "name": "_rarity",
          "type": "uint256"
        }
      ],
      "name": "registerForRewards",
      "outputs": [],
      "stateMutability": "nonpayable",
      "type": "function"
    },
    {
      "inputs": [],
      "name": "renounceOwnership",
      "outputs": [],
      "stateMutability": "nonpayable",
      "type": "function"
    },
    {
      "inputs": [
        {
          "internalType": "address",
          "name": "",
          "type": "address"
        },
        {
          "internalType": "uint256",
          "name": "",
          "type": "uint256"
        }
      ],
      "name": "rewards",
      "outputs": [
        {
          "internalType": "uint256",
          "name": "",
          "type": "uint256"
        }
      ],
      "stateMutability": "view",
      "type": "function"
    },
    {
      "inputs": [
        {
          "internalType": "address",
          "name": "_vsamurai",
          "type": "address"
        }
      ],
      "name": "setNFTContract",
      "outputs": [],
      "stateMutability": "nonpayable",
      "type": "function"
    },
    {
      "inputs": [
        {
          "internalType": "address",
          "name": "newSigningKey",
          "type": "address"
        }
      ],
      "name": "setSigningAddress",
      "outputs": [],
      "stateMutability": "nonpayable",
      "type": "function"
    },
    {
      "inputs": [
        {
          "internalType": "uint256[20]",
          "name": "_newRates",
          "type": "uint256[20]"
        }
      ],
      "name": "setTokenRates",
      "outputs": [],
      "stateMutability": "nonpayable",
      "type": "function"
    },
    {
      "inputs": [],
      "name": "signingKey",
      "outputs": [
        {
          "internalType": "address",
          "name": "",
          "type": "address"
        }
      ],
      "stateMutability": "view",
      "type": "function"
    },
    {
      "inputs": [],
      "name": "symbol",
      "outputs": [
        {
          "internalType": "string",
          "name": "",
          "type": "string"
        }
      ],
      "stateMutability": "view",
      "type": "function"
    },
    {
      "inputs": [
        {
          "internalType": "uint256",
          "name": "",
          "type": "uint256"
        }
      ],
      "name": "tokenRates",
      "outputs": [
        {
          "internalType": "uint256",
          "name": "",
          "type": "uint256"
        }
      ],
      "stateMutability": "view",
      "type": "function"
    },
    {
      "inputs": [],
      "name": "totalSupply",
      "outputs": [
        {
          "internalType": "uint256",
          "name": "",
          "type": "uint256"
        }
      ],
      "stateMutability": "view",
      "type": "function"
    },
    {
      "inputs": [
        {
          "internalType": "address",
          "name": "to",
          "type": "address"
        },
        {
          "internalType": "uint256",
          "name": "amount",
          "type": "uint256"
        }
      ],
      "name": "transfer",
      "outputs": [
        {
          "internalType": "bool",
          "name": "",
          "type": "bool"
        }
      ],
      "stateMutability": "nonpayable",
      "type": "function"
    },
    {
      "inputs": [
        {
          "internalType": "address",
          "name": "from",
          "type": "address"
        },
        {
          "internalType": "address",
          "name": "to",
          "type": "address"
        },
        {
          "internalType": "uint256",
          "name": "amount",
          "type": "uint256"
        }
      ],
      "name": "transferFrom",
      "outputs": [
        {
          "internalType": "bool",
          "name": "",
          "type": "bool"
        }
      ],
      "stateMutability": "nonpayable",
      "type": "function"
    },
    {
      "inputs": [
        {
          "internalType": "address",
          "name": "newOwner",
          "type": "address"
        }
      ],
      "name": "transferOwnership",
      "outputs": [],
      "stateMutability": "nonpayable",
      "type": "function"
    },
    {
      "inputs": [
        {
          "internalType": "uint256",
          "name": "_nftId",
          "type": "uint256"
        }
      ],
      "name": "unstakeNFT",
      "outputs": [],
      "stateMutability": "nonpayable",
      "type": "function"
    },
    {
      "inputs": [
        {
          "internalType": "address",
          "name": "_from",
          "type": "address"
        },
        {
          "internalType": "address",
          "name": "_to",
          "type": "address"
        },
        {
          "internalType": "uint256",
          "name": "_tokenId",
          "type": "uint256"
        }
      ],
      "name": "updateReward",
      "outputs": [],
      "stateMutability": "nonpayable",
      "type": "function"
    },
    {
      "inputs": [],
      "name": "vSamuraiContract",
      "outputs": [
        {
          "internalType": "contract IERC721",
          "name": "",
          "type": "address"
        }
      ],
      "stateMutability": "view",
      "type": "function"
    }
  ],
  "bytecode": "0x6080604052601e80546001600160a01b03191690556aa56fa5b99019a5c800000060205560006021553480156200003557600080fd5b5060405162002c8d38038062002c8d833981016040819052620000589162000492565b6040518060400160405280600381526020016245444f60e81b8152506040518060400160405280600381526020016245444f60e81b8152508160039080519060200190620000a8929190620003cf565b508051620000be906004906020840190620003cf565b505050620000db620000d56200029160201b60201c565b62000295565b601e80546001600160a01b0319166001600160a01b03831617905560408051808201825260128152715265676973746572466f725265776172647360701b6020918201528151808301835260018152603160f81b9082015281517f8b73c3c69bb8fe3d512ecc4cf759cc79239f7b179b0ffacaa9a75d522b39400f918101919091527f78d6b469f6df95eeeed807a1685d0dec19c883c36cbb8c17e3d5a80d6c08a2ed918101919091527fc89efdaa54c0f20c7adf612882df0950f5a951637e0307cdcb4c672f298b8bc660608201524660808201523060a082015260c00160408051808303601f190181529190528051602090910120601f55600260079081556004600855600955600a80556014600b819055600c8190556028600d8190556046600e556064600f5560c86010819055601191909155608c60125560506013559055610190601555601d80546001600160a01b0385166001600160a01b03199091161790556200024c8262000295565b62000263826a06342fd08f00f637800000620002e7565b6a06342fd08f00f63780000060216000828254620002829190620004dc565b909155506200053f9350505050565b3390565b600580546001600160a01b038381166001600160a01b0319831681179093556040519116919082907f8be0079c531659141344cd1fd0a4f28419497f9722a3daafe3b4186f6b6457e090600090a35050565b6001600160a01b038216620003425760405162461bcd60e51b815260206004820152601f60248201527f45524332303a206d696e7420746f20746865207a65726f206164647265737300604482015260640160405180910390fd5b8060026000828254620003569190620004dc565b90915550506001600160a01b0382166000908152602081905260408120805483929062000385908490620004dc565b90915550506040518181526001600160a01b038316906000907fddf252ad1be2c89b69c2b068fc378daa952ba7f163c4a11628f55a4df523b3ef9060200160405180910390a35050565b828054620003dd9062000503565b90600052602060002090601f0160209004810192826200040157600085556200044c565b82601f106200041c57805160ff19168380011785556200044c565b828001600101855582156200044c579182015b828111156200044c5782518255916020019190600101906200042f565b506200045a9291506200045e565b5090565b5b808211156200045a57600081556001016200045f565b80516001600160a01b03811681146200048d57600080fd5b919050565b600080600060608486031215620004a857600080fd5b620004b38462000475565b9250620004c36020850162000475565b9150620004d36040850162000475565b90509250925092565b60008219821115620004fe57634e487b7160e01b600052601160045260246000fd5b500190565b600181811c908216806200051857607f821691505b6020821081036200053957634e487b7160e01b600052602260045260246000fd5b50919050565b61273e806200054f6000396000f3fe608060405234801561001057600080fd5b50600436106102925760003560e01c8063676257a511610160578063a7ccabdf116100d8578063c54d668f1161008c578063dd62ed3e11610071578063dd62ed3e14610592578063e20b2ba2146105cb578063f2fde38b146105de57600080fd5b8063c54d668f1461055e578063d0a823d91461056757600080fd5b8063b933ceac116100bd578063b933ceac1461050d578063c1d99ada14610538578063c1dfa0bb1461054b57600080fd5b8063a7ccabdf146104e7578063a9059cbb146104fa57600080fd5b80638da5cb5b1161012f5780639dc29fac116101145780639dc29fac1461049a578063a14b73f1146104ad578063a457c2d7146104d457600080fd5b80638da5cb5b1461048157806395d89b411461049257600080fd5b8063676257a51461042a57806370a082311461043d578063715018a6146104665780637406f6491461046e57600080fd5b80632c8e8dfa1161020e57806339509351116101c2578063404c7cdd116101a7578063404c7cdd146103f457806344a6b86c1461040757806366f27fd31461041757600080fd5b806339509351146103ce5780633d0f2200146103e157600080fd5b806331beb605116101f357806331beb605146103a957806332cb6b0c146103bc5780633644e515146103c557600080fd5b80632c8e8dfa14610387578063313ce5671461039a57600080fd5b80630e5a8eec1161026557806318160ddd1161024a57806318160ddd146103595780631fc8788c1461036157806323b872dd1461037457600080fd5b80630e5a8eec1461030057806317b8e1cf1461032b57600080fd5b806306fdde0314610297578063095ea7b3146102b55780630962ef79146102d85780630b76f141146102ed575b600080fd5b61029f6105f1565b6040516102ac91906122de565b60405180910390f35b6102c86102c3366004612348565b610683565b60405190151581526020016102ac565b6102eb6102e6366004612374565b61069d565b005b6102eb6102fb36600461238d565b6107db565b601d54610313906001600160a01b031681565b6040516001600160a01b0390911681526020016102ac565b61034b610339366004612374565b601a6020526000908152604090205481565b6040519081526020016102ac565b60025461034b565b6102eb61036f3660046123b8565b610831565b6102c86103823660046123f1565b6108be565b6102eb6103953660046123f1565b6108e2565b604051601281526020016102ac565b6102eb6103b7366004612432565b610955565b61034b60205481565b61034b601f5481565b6102c86103dc366004612348565b61098c565b61034b6103ef366004612348565b6109cb565b6102eb610402366004612374565b610b07565b61034b680410d586a20a4c000081565b601e54610313906001600160a01b031681565b61034b610438366004612374565b610b8b565b61034b61044b366004612432565b6001600160a01b031660009081526020819052604090205490565b6102eb610bb5565b6102eb61047c366004612494565b610bc9565b6005546001600160a01b0316610313565b61029f610e58565b6102eb6104a8366004612348565b610e67565b61034b7f8349e027b7fe65d72e0651cb609a509e44f064897935553ec399102e02be340b81565b6102c86104e2366004612348565b610ed4565b6102eb6104f5366004612432565b610f7e565b6102c8610508366004612348565b610fb5565b61034b61051b366004612348565b601b60209081526000928352604080842090915290825290205481565b61034b610546366004612374565b610fc3565b6102eb610559366004612374565b610fda565b61034b60215481565b61034b610575366004612348565b601c60209081526000928352604080842090915290825290205481565b61034b6105a036600461252e565b6001600160a01b03918216600090815260016020908152604080832093909416825291909152205490565b6102eb6105d9366004612567565b6111ef565b6102eb6105ec366004612432565b611580565b606060038054610600906125e6565b80601f016020809104026020016040519081016040528092919081815260200182805461062c906125e6565b80156106795780601f1061064e57610100808354040283529160200191610679565b820191906000526020600020905b81548152906001019060200180831161065c57829003601f168201915b5050505050905090565b60003361069181858561160d565b60019150505b92915050565b601d546001600160a01b03166106fa5760405162461bcd60e51b815260206004820152601460248201527f4e465420636f6e7472616374206e6f742073657400000000000000000000000060448201526064015b60405180910390fd5b33601d546040516331a9108f60e11b8152600481018490526001600160a01b039283169290911690636352211e90602401602060405180830381865afa158015610748573d6000803e3d6000fd5b505050506040513d601f19601f8201168201806040525081019061076c9190612620565b6001600160a01b0316146107c25760405162461bcd60e51b815260206004820152601960248201527f596f7520617265206e6f7420746865206e6674206f776e65720000000000000060448201526064016106f1565b6107ce33600083611765565b6107d83382611857565b50565b6107e3611978565b60005b601481101561082d578181601481106108015761080161263d565b6020020135600682601481106108195761081961263d565b01558061082581612669565b9150506107e6565b5050565b610839611978565b6000838152601a602090815260408083208590556001600160a01b0384168352601b825280832086845290915290205461087d90680410d586a20a4c000090612682565b6001600160a01b039091166000818152601b60209081526040808320878452825280832094909455918152601c825282812094815293905290912042905550565b6000336108cc8582856119d2565b6108d7858585611a64565b506001949350505050565b601d546001600160a01b0316336001600160a01b0316146109455760405162461bcd60e51b815260206004820152601560248201527f43616c6c6572206e6f7420617574686f72697a6564000000000000000000000060448201526064016106f1565b610950838383611765565b505050565b61095d611978565b601e805473ffffffffffffffffffffffffffffffffffffffff19166001600160a01b0392909216919091179055565b3360008181526001602090815260408083206001600160a01b038716845290915281205490919061069190829086906109c6908790612682565b61160d565b6000806109d783610b8b565b601d546040516331a9108f60e11b81526004810186905291925042916001600160a01b03878116921690636352211e90602401602060405180830381865afa158015610a27573d6000803e3d6000fd5b505050506040513d601f19601f82011682018060405250810190610a4b9190612620565b6001600160a01b031603610adc576001600160a01b0385166000908152601c602090815260408083208784529091528120546201518090610a8c908461269a565b610a9690856126b1565b610aa091906126d0565b6001600160a01b0387166000908152601b60209081526040808320898452909152902054909150610ad2908290612682565b9350505050610697565b5050506001600160a01b03919091166000908152601b60209081526040808320938352929052205490565b610b0f611978565b6021548111610b865760405162461bcd60e51b815260206004820152603f60248201527f546865206e6577206d617820737570706c79206d75737420626520677265617460448201527f6572207468616e2074686520746f74616c20746f6b656e73206d696e7465640060648201526084016106f1565b602055565b6000818152601a602052604081205460069060148110610bad57610bad61263d565b015492915050565b610bbd611978565b610bc76000611c7b565b565b610bd1611978565b848314610c205760405162461bcd60e51b815260206004820152601760248201527f417272617973206d757374206d756368206c656e67746800000000000000000060448201526064016106f1565b828114610c6f5760405162461bcd60e51b815260206004820152601760248201527f417272617973206d757374206d756368206c656e67746800000000000000000060448201526064016106f1565b60005b85811015610e4f57848482818110610c8c57610c8c61263d565b90506020020135601a6000898985818110610ca957610ca961263d565b90506020020135815260200190815260200160002081905550680410d586a20a4c0000601b6000858585818110610ce257610ce261263d565b9050602002016020810190610cf79190612432565b6001600160a01b03166001600160a01b031681526020019081526020016000206000898985818110610d2b57610d2b61263d565b90506020020135815260200190815260200160002054610d4b9190612682565b601b6000858585818110610d6157610d6161263d565b9050602002016020810190610d769190612432565b6001600160a01b03166001600160a01b031681526020019081526020016000206000898985818110610daa57610daa61263d565b9050602002013581526020019081526020016000208190555042601c6000858585818110610dda57610dda61263d565b9050602002016020810190610def9190612432565b6001600160a01b03166001600160a01b031681526020019081526020016000206000898985818110610e2357610e2361263d565b905060200201358152602001908152602001600020819055508080610e4790612669565b915050610c72565b50505050505050565b606060048054610600906125e6565b601d546001600160a01b0316336001600160a01b031614610eca5760405162461bcd60e51b815260206004820152601560248201527f43616c6c6572206e6f7420617574686f72697a6564000000000000000000000060448201526064016106f1565b61082d8282611cda565b3360008181526001602090815260408083206001600160a01b038716845290915281205490919083811015610f715760405162461bcd60e51b815260206004820152602560248201527f45524332303a2064656372656173656420616c6c6f77616e63652062656c6f7760448201527f207a65726f00000000000000000000000000000000000000000000000000000060648201526084016106f1565b6108d7828686840361160d565b610f86611978565b601d805473ffffffffffffffffffffffffffffffffffffffff19166001600160a01b0392909216919091179055565b600033610691818585611a64565b60068160148110610fd357600080fd5b0154905081565b601d546001600160a01b03166110325760405162461bcd60e51b815260206004820152601460248201527f4e465420636f6e7472616374206e6f742073657400000000000000000000000060448201526064016106f1565b33601d546040516331a9108f60e11b8152600481018490526001600160a01b039283169290911690636352211e90602401602060405180830381865afa158015611080573d6000803e3d6000fd5b505050506040513d601f19601f820116820180604052508101906110a49190612620565b6001600160a01b0316146110fa5760405162461bcd60e51b815260206004820152601960248201527f596f7520617265206e6f7420746865206e6674206f776e65720000000000000060448201526064016106f1565b6000818152601a6020526040812054900361117d5760405162461bcd60e51b815260206004820152602760248201527f546f6b656e2063616e6e6f7420626520756e7374616b6564206966206e6f742060448201527f6578697374732e0000000000000000000000000000000000000000000000000060648201526084016106f1565b6000818152601a6020908152604080832083905533808452601b83528184208585528352818420849055808452601c8352818420858552835281842093909355518381527fd189f9264d7206fa03765606c54a04ae20609e3055dfcd0e76780c8662a66405910160405180910390a250565b601e5484908490849084906001600160a01b031661124f5760405162461bcd60e51b815260206004820152601360248201527f72657761726473206e6f7420656e61626c65640000000000000000000000000060448201526064016106f1565b6000601f547f8349e027b7fe65d72e0651cb609a509e44f064897935553ec399102e02be340b61127c3390565b6040805160208101939093526001600160a01b0390911690820152606081018590526080810184905260a001604051602081830303815290604052805190602001206040516020016113009291907f190100000000000000000000000000000000000000000000000000000000000081526002810192909252602282015260420190565b604051602081830303815290604052805190602001209050600061135c86868080601f0160208091040260200160405190810160405280939291908181526020018383808284376000920191909152508693925050611e5f9050565b601e549091506001600160a01b038083169116146113bc5760405162461bcd60e51b815260206004820152601160248201527f496e76616c6964205369676e617475726500000000000000000000000000000060448201526064016106f1565b6000888152601a60205260409020541561143e5760405162461bcd60e51b815260206004820152603560248201527f546f6b656e2063616e6e6f74206265207265676973746572656420666f72207260448201527f657761726473206d6f7265207468616e206f6e6365000000000000000000000060648201526084016106f1565b33601d546040516331a9108f60e11b8152600481018b90526001600160a01b039283169290911690636352211e90602401602060405180830381865afa15801561148c573d6000803e3d6000fd5b505050506040513d601f19601f820116820180604052508101906114b09190612620565b6001600160a01b0316146115065760405162461bcd60e51b815260206004820152601960248201527f596f7520617265206e6f7420746865206e6674206f776e65720000000000000060448201526064016106f1565b6000888152601a602090815260408083208a9055338352601b82528083208b845290915290205461154190680410d586a20a4c000090612682565b336000818152601b602090815260408083208d8452825280832094909455918152601c82528281209a8152999052909720429055505050505050505050565b611588611978565b6001600160a01b0381166116045760405162461bcd60e51b815260206004820152602660248201527f4f776e61626c653a206e6577206f776e657220697320746865207a65726f206160448201527f646472657373000000000000000000000000000000000000000000000000000060648201526084016106f1565b6107d881611c7b565b6001600160a01b0383166116885760405162461bcd60e51b8152602060048201526024808201527f45524332303a20617070726f76652066726f6d20746865207a65726f2061646460448201527f726573730000000000000000000000000000000000000000000000000000000060648201526084016106f1565b6001600160a01b0382166117045760405162461bcd60e51b815260206004820152602260248201527f45524332303a20617070726f766520746f20746865207a65726f20616464726560448201527f737300000000000000000000000000000000000000000000000000000000000060648201526084016106f1565b6001600160a01b0383811660008181526001602090815260408083209487168084529482529182902085905590518481527f8c5be1e5ebec7d5bd14f71427d1e84f3dd0314c0f7b2291e5b200ac8c7c3b925910160405180910390a3505050565b600061177082610b8b565b6001600160a01b0385166000908152601c60209081526040808320868452909152902054909150429080156117fa57620151806117ad828461269a565b6117b790856126b1565b6117c191906126d0565b6001600160a01b0387166000908152601b60209081526040808320888452909152812080549091906117f4908490612682565b90915550505b6001600160a01b038087166000908152601c60209081526040808320888452909152902083905585161561184f576001600160a01b0385166000908152601c6020908152604080832087845290915290208290555b505050505050565b6001600160a01b0382166000908152601b60209081526040808320848452909152902054801561095057602154602054116118d45760405162461bcd60e51b815260206004820152601260248201527f45786365656473206d617820737570706c79000000000000000000000000000060448201526064016106f1565b6001600160a01b0383166000908152601b602090815260408083208584528252822082905560215490546119119161190b9161269a565b83611e83565b905061191d8482611e9c565b806021600082825461192f9190612682565b90915550506040518181526001600160a01b038516907f106f923f993c2149d49b4255ff723acafa1f2d94393f561d3eda32ae348f72419060200160405180910390a250505050565b6005546001600160a01b03163314610bc75760405162461bcd60e51b815260206004820181905260248201527f4f776e61626c653a2063616c6c6572206973206e6f7420746865206f776e657260448201526064016106f1565b6001600160a01b038381166000908152600160209081526040808320938616835292905220546000198114611a5e5781811015611a515760405162461bcd60e51b815260206004820152601d60248201527f45524332303a20696e73756666696369656e7420616c6c6f77616e636500000060448201526064016106f1565b611a5e848484840361160d565b50505050565b6001600160a01b038316611ae05760405162461bcd60e51b815260206004820152602560248201527f45524332303a207472616e736665722066726f6d20746865207a65726f20616460448201527f647265737300000000000000000000000000000000000000000000000000000060648201526084016106f1565b6001600160a01b038216611b5c5760405162461bcd60e51b815260206004820152602360248201527f45524332303a207472616e7366657220746f20746865207a65726f206164647260448201527f657373000000000000000000000000000000000000000000000000000000000060648201526084016106f1565b6001600160a01b03831660009081526020819052604090205481811015611beb5760405162461bcd60e51b815260206004820152602660248201527f45524332303a207472616e7366657220616d6f756e742065786365656473206260448201527f616c616e6365000000000000000000000000000000000000000000000000000060648201526084016106f1565b6001600160a01b03808516600090815260208190526040808220858503905591851681529081208054849290611c22908490612682565b92505081905550826001600160a01b0316846001600160a01b03167fddf252ad1be2c89b69c2b068fc378daa952ba7f163c4a11628f55a4df523b3ef84604051611c6e91815260200190565b60405180910390a3611a5e565b600580546001600160a01b0383811673ffffffffffffffffffffffffffffffffffffffff19831681179093556040519116919082907f8be0079c531659141344cd1fd0a4f28419497f9722a3daafe3b4186f6b6457e090600090a35050565b6001600160a01b038216611d565760405162461bcd60e51b815260206004820152602160248201527f45524332303a206275726e2066726f6d20746865207a65726f2061646472657360448201527f730000000000000000000000000000000000000000000000000000000000000060648201526084016106f1565b6001600160a01b03821660009081526020819052604090205481811015611de55760405162461bcd60e51b815260206004820152602260248201527f45524332303a206275726e20616d6f756e7420657863656564732062616c616e60448201527f636500000000000000000000000000000000000000000000000000000000000060648201526084016106f1565b6001600160a01b0383166000908152602081905260408120838303905560028054849290611e1490849061269a565b90915550506040518281526000906001600160a01b038516907fddf252ad1be2c89b69c2b068fc378daa952ba7f163c4a11628f55a4df523b3ef9060200160405180910390a3505050565b6000806000611e6e8585611f7b565b91509150611e7b81611fe9565b509392505050565b600081831115611e935781611e95565b825b9392505050565b6001600160a01b038216611ef25760405162461bcd60e51b815260206004820152601f60248201527f45524332303a206d696e7420746f20746865207a65726f20616464726573730060448201526064016106f1565b8060026000828254611f049190612682565b90915550506001600160a01b03821660009081526020819052604081208054839290611f31908490612682565b90915550506040518181526001600160a01b038316906000907fddf252ad1be2c89b69c2b068fc378daa952ba7f163c4a11628f55a4df523b3ef9060200160405180910390a35050565b6000808251604103611fb15760208301516040840151606085015160001a611fa58782858561219f565b94509450505050611fe2565b8251604003611fda5760208301516040840151611fcf86838361228c565b935093505050611fe2565b506000905060025b9250929050565b6000816004811115611ffd57611ffd6126f2565b036120055750565b6001816004811115612019576120196126f2565b036120665760405162461bcd60e51b815260206004820152601860248201527f45434453413a20696e76616c6964207369676e6174757265000000000000000060448201526064016106f1565b600281600481111561207a5761207a6126f2565b036120c75760405162461bcd60e51b815260206004820152601f60248201527f45434453413a20696e76616c6964207369676e6174757265206c656e6774680060448201526064016106f1565b60038160048111156120db576120db6126f2565b036121335760405162461bcd60e51b815260206004820152602260248201527f45434453413a20696e76616c6964207369676e6174757265202773272076616c604482015261756560f01b60648201526084016106f1565b6004816004811115612147576121476126f2565b036107d85760405162461bcd60e51b815260206004820152602260248201527f45434453413a20696e76616c6964207369676e6174757265202776272076616c604482015261756560f01b60648201526084016106f1565b6000807f7fffffffffffffffffffffffffffffff5d576e7357a4501ddfe92f46681b20a08311156121d65750600090506003612283565b8460ff16601b141580156121ee57508460ff16601c14155b156121ff5750600090506004612283565b6040805160008082526020820180845289905260ff881692820192909252606081018690526080810185905260019060a0016020604051602081039080840390855afa158015612253573d6000803e3d6000fd5b5050604051601f1901519150506001600160a01b03811661227c57600060019250925050612283565b9150600090505b94509492505050565b6000807f7fffffffffffffffffffffffffffffffffffffffffffffffffffffffffffffff8316816122c260ff86901c601b612682565b90506122d08782888561219f565b935093505050935093915050565b600060208083528351808285015260005b8181101561230b578581018301518582016040015282016122ef565b8181111561231d576000604083870101525b50601f01601f1916929092016040019392505050565b6001600160a01b03811681146107d857600080fd5b6000806040838503121561235b57600080fd5b823561236681612333565b946020939093013593505050565b60006020828403121561238657600080fd5b5035919050565b60006102808083850312156123a157600080fd5b8381840111156123b057600080fd5b509092915050565b6000806000606084860312156123cd57600080fd5b833592506020840135915060408401356123e681612333565b809150509250925092565b60008060006060848603121561240657600080fd5b833561241181612333565b9250602084013561242181612333565b929592945050506040919091013590565b60006020828403121561244457600080fd5b8135611e9581612333565b60008083601f84011261246157600080fd5b50813567ffffffffffffffff81111561247957600080fd5b6020830191508360208260051b8501011115611fe257600080fd5b600080600080600080606087890312156124ad57600080fd5b863567ffffffffffffffff808211156124c557600080fd5b6124d18a838b0161244f565b909850965060208901359150808211156124ea57600080fd5b6124f68a838b0161244f565b9096509450604089013591508082111561250f57600080fd5b5061251c89828a0161244f565b979a9699509497509295939492505050565b6000806040838503121561254157600080fd5b823561254c81612333565b9150602083013561255c81612333565b809150509250929050565b6000806000806060858703121561257d57600080fd5b843567ffffffffffffffff8082111561259557600080fd5b818701915087601f8301126125a957600080fd5b8135818111156125b857600080fd5b8860208285010111156125ca57600080fd5b6020928301999098509187013596604001359550909350505050565b600181811c908216806125fa57607f821691505b60208210810361261a57634e487b7160e01b600052602260045260246000fd5b50919050565b60006020828403121561263257600080fd5b8151611e9581612333565b634e487b7160e01b600052603260045260246000fd5b634e487b7160e01b600052601160045260246000fd5b60006001820161267b5761267b612653565b5060010190565b6000821982111561269557612695612653565b500190565b6000828210156126ac576126ac612653565b500390565b60008160001904831182151516156126cb576126cb612653565b500290565b6000826126ed57634e487b7160e01b600052601260045260246000fd5b500490565b634e487b7160e01b600052602160045260246000fdfea26469706673582212204551cbf18375a5ac9d641bb46eaa156f6e25e005b534927248d19cef5452d1e764736f6c634300080d0033",
  "linkReferences": {},
  "deployedLinkReferences": {}
}