{
  "_format": "hh-sol-artifact-1",
  "contractName": "WhitelistableMock",
  "sourceName": "contracts/mocks/WhitelistableMock.sol",
  "abi": [
    {
      "inputs": [
        {
          "internalType": "address",
          "name": "signerPubKey",
          "type": "address"
        }
      ],
      "stateMutability": "nonpayable",
      "type": "constructor"
    },
    {
      "anonymous": false,
      "inputs": [
        {
          "indexed": true,
          "internalType": "address",
          "name": "previousOwner",
          "type": "address"
        },
        {
          "indexed": true,
          "internalType": "address",
          "name": "newOwner",
          "type": "address"
        }
      ],
      "name": "OwnershipTransferred",
      "type": "event"
    },
    {
      "inputs": [],
      "name": "DOMAIN_SEPARATOR",
      "outputs": [
        {
          "internalType": "bytes32",
          "name": "",
          "type": "bytes32"
        }
      ],
      "stateMutability": "view",
      "type": "function"
    },
    {
      "inputs": [],
      "name": "MINTER_TYPEHASH",
      "outputs": [
        {
          "internalType": "bytes32",
          "name": "",
          "type": "bytes32"
        }
      ],
      "stateMutability": "view",
      "type": "function"
    },
    {
      "inputs": [
        {
          "internalType": "bytes",
          "name": "signature",
          "type": "bytes"
        }
      ],
      "name": "increment",
      "outputs": [],
      "stateMutability": "nonpayable",
      "type": "function"
    },
    {
      "inputs": [],
      "name": "owner",
      "outputs": [
        {
          "internalType": "address",
          "name": "",
          "type": "address"
        }
      ],
      "stateMutability": "view",
      "type": "function"
    },
    {
      "inputs": [],
      "name": "renounceOwnership",
      "outputs": [],
      "stateMutability": "nonpayable",
      "type": "function"
    },
    {
      "inputs": [
        {
          "internalType": "address",
          "name": "newSigningKey",
          "type": "address"
        }
      ],
      "name": "setWhitelistSigningAddress",
      "outputs": [],
      "stateMutability": "nonpayable",
      "type": "function"
    },
    {
      "inputs": [
        {
          "internalType": "address",
          "name": "newOwner",
          "type": "address"
        }
      ],
      "name": "transferOwnership",
      "outputs": [],
      "stateMutability": "nonpayable",
      "type": "function"
    },
    {
      "inputs": [],
      "name": "x",
      "outputs": [
        {
          "internalType": "uint256",
          "name": "",
          "type": "uint256"
        }
      ],
      "stateMutability": "view",
      "type": "function"
    }
  ],
  "bytecode": "0x6080604052600180546001600160a01b0319169055600060035534801561002557600080fd5b50604051610b22380380610b228339810160408190526100449161019a565b8061004e3361014a565b600180546001600160a01b0319166001600160a01b038316178155604080518082018252600d81526c15da1a5d195b1a5cdd135a5b9d609a1b60209182015281518083018352928352603160f81b9281019290925280517f8b73c3c69bb8fe3d512ecc4cf759cc79239f7b179b0ffacaa9a75d522b39400f928101929092527f67c8313423c530a1c0e73e7591c862f362ecb90b95e1fed6dbefb108ff8329ef908201527fc89efdaa54c0f20c7adf612882df0950f5a951637e0307cdcb4c672f298b8bc660608201524660808201523060a082015260c0016040516020818303038152906040528051906020012060028190555050506101ca565b600080546001600160a01b038381166001600160a01b0319831681178455604051919092169283917f8be0079c531659141344cd1fd0a4f28419497f9722a3daafe3b4186f6b6457e09190a35050565b6000602082840312156101ac57600080fd5b81516001600160a01b03811681146101c357600080fd5b9392505050565b610949806101d96000396000f3fe608060405234801561001057600080fd5b50600436106100885760003560e01c8063cb0de25a1161005b578063cb0de25a146100d7578063cd770833146100ea578063f2fde38b146100fd578063fa4d280c1461011057600080fd5b80630c55699c1461008d5780633644e515146100a9578063715018a6146100b25780638da5cb5b146100bc575b600080fd5b61009660035481565b6040519081526020015b60405180910390f35b61009660025481565b6100ba610137565b005b6000546040516001600160a01b0390911681526020016100a0565b6100ba6100e5366004610835565b61014b565b6100ba6100f83660046108a7565b610330565b6100ba61010b3660046108a7565b610367565b6100967f68e83002b91b0fd96d4df3566b5122221117e3ec6c2468fda594f6491f89b1c981565b61013f6103f7565b6101496000610451565b565b600154829082906001600160a01b03166101ac5760405162461bcd60e51b815260206004820152601560248201527f77686974656c697374206e6f7420656e61626c6564000000000000000000000060448201526064015b60405180910390fd5b60006002547f68e83002b91b0fd96d4df3566b5122221117e3ec6c2468fda594f6491f89b1c96101d93390565b6040516020016101fc9291909182526001600160a01b0316602082015260400190565b604051602081830303815290604052805190602001206040516020016102549291907f190100000000000000000000000000000000000000000000000000000000000081526002810192909252602282015260420190565b60405160208183030381529060405280519060200120905060006102b084848080601f01602080910402602001604051908101604052809392919081815260200183838082843760009201919091525086939250506104ae9050565b6001549091506001600160a01b038083169116146103105760405162461bcd60e51b815260206004820152601160248201527f496e76616c6964205369676e617475726500000000000000000000000000000060448201526064016101a3565b60016003600082825461032391906108d7565b9091555050505050505050565b6103386103f7565b6001805473ffffffffffffffffffffffffffffffffffffffff19166001600160a01b0392909216919091179055565b61036f6103f7565b6001600160a01b0381166103eb5760405162461bcd60e51b815260206004820152602660248201527f4f776e61626c653a206e6577206f776e657220697320746865207a65726f206160448201527f646472657373000000000000000000000000000000000000000000000000000060648201526084016101a3565b6103f481610451565b50565b6000546001600160a01b031633146101495760405162461bcd60e51b815260206004820181905260248201527f4f776e61626c653a2063616c6c6572206973206e6f7420746865206f776e657260448201526064016101a3565b600080546001600160a01b0383811673ffffffffffffffffffffffffffffffffffffffff19831681178455604051919092169283917f8be0079c531659141344cd1fd0a4f28419497f9722a3daafe3b4186f6b6457e09190a35050565b60008060006104bd85856104d2565b915091506104ca81610540565b509392505050565b60008082516041036105085760208301516040840151606085015160001a6104fc878285856106f6565b94509450505050610539565b825160400361053157602083015160408401516105268683836107e3565b935093505050610539565b506000905060025b9250929050565b6000816004811115610554576105546108fd565b0361055c5750565b6001816004811115610570576105706108fd565b036105bd5760405162461bcd60e51b815260206004820152601860248201527f45434453413a20696e76616c6964207369676e6174757265000000000000000060448201526064016101a3565b60028160048111156105d1576105d16108fd565b0361061e5760405162461bcd60e51b815260206004820152601f60248201527f45434453413a20696e76616c6964207369676e6174757265206c656e6774680060448201526064016101a3565b6003816004811115610632576106326108fd565b0361068a5760405162461bcd60e51b815260206004820152602260248201527f45434453413a20696e76616c6964207369676e6174757265202773272076616c604482015261756560f01b60648201526084016101a3565b600481600481111561069e5761069e6108fd565b036103f45760405162461bcd60e51b815260206004820152602260248201527f45434453413a20696e76616c6964207369676e6174757265202776272076616c604482015261756560f01b60648201526084016101a3565b6000807f7fffffffffffffffffffffffffffffff5d576e7357a4501ddfe92f46681b20a083111561072d57506000905060036107da565b8460ff16601b1415801561074557508460ff16601c14155b1561075657506000905060046107da565b6040805160008082526020820180845289905260ff881692820192909252606081018690526080810185905260019060a0016020604051602081039080840390855afa1580156107aa573d6000803e3d6000fd5b5050604051601f1901519150506001600160a01b0381166107d3576000600192509250506107da565b9150600090505b94509492505050565b6000807f7fffffffffffffffffffffffffffffffffffffffffffffffffffffffffffffff83168161081960ff86901c601b6108d7565b9050610827878288856106f6565b935093505050935093915050565b6000806020838503121561084857600080fd5b823567ffffffffffffffff8082111561086057600080fd5b818501915085601f83011261087457600080fd5b81358181111561088357600080fd5b86602082850101111561089557600080fd5b60209290920196919550909350505050565b6000602082840312156108b957600080fd5b81356001600160a01b03811681146108d057600080fd5b9392505050565b600082198211156108f857634e487b7160e01b600052601160045260246000fd5b500190565b634e487b7160e01b600052602160045260246000fdfea2646970667358221220f4699fe85b7222d63b9e4e530e9d6c9a0575e0e1df0763280df3016456770b1264736f6c634300080d0033",
  "linkReferences": {},
  "deployedLinkReferences": {}
}