{
  "_format": "hh-sol-artifact-1",
  "contractName": "WhitelistableMock",
  "sourceName": "contracts/mocks/WhitelistableMock.sol",
  "abi": [
    {
      "inputs": [
        {
          "internalType": "address",
          "name": "signerPubKey",
          "type": "address"
        }
      ],
      "stateMutability": "nonpayable",
      "type": "constructor"
    },
    {
      "anonymous": false,
      "inputs": [
        {
          "indexed": true,
          "internalType": "address",
          "name": "previousOwner",
          "type": "address"
        },
        {
          "indexed": true,
          "internalType": "address",
          "name": "newOwner",
          "type": "address"
        }
      ],
      "name": "OwnershipTransferred",
      "type": "event"
    },
    {
      "inputs": [],
      "name": "DOMAIN_SEPARATOR",
      "outputs": [
        {
          "internalType": "bytes32",
          "name": "",
          "type": "bytes32"
        }
      ],
      "stateMutability": "view",
      "type": "function"
    },
    {
      "inputs": [],
      "name": "MINTER_TYPEHASH",
      "outputs": [
        {
          "internalType": "bytes32",
          "name": "",
          "type": "bytes32"
        }
      ],
      "stateMutability": "view",
      "type": "function"
    },
    {
      "inputs": [
        {
          "internalType": "bytes",
          "name": "signature",
          "type": "bytes"
        }
      ],
      "name": "increment",
      "outputs": [],
      "stateMutability": "nonpayable",
      "type": "function"
    },
    {
      "inputs": [],
      "name": "owner",
      "outputs": [
        {
          "internalType": "address",
          "name": "",
          "type": "address"
        }
      ],
      "stateMutability": "view",
      "type": "function"
    },
    {
      "inputs": [],
      "name": "renounceOwnership",
      "outputs": [],
      "stateMutability": "nonpayable",
      "type": "function"
    },
    {
      "inputs": [
        {
          "internalType": "address",
          "name": "newSigningKey",
          "type": "address"
        }
      ],
      "name": "setWhitelistSigningAddress",
      "outputs": [],
      "stateMutability": "nonpayable",
      "type": "function"
    },
    {
      "inputs": [
        {
          "internalType": "address",
          "name": "newOwner",
          "type": "address"
        }
      ],
      "name": "transferOwnership",
      "outputs": [],
      "stateMutability": "nonpayable",
      "type": "function"
    },
    {
      "inputs": [],
      "name": "x",
      "outputs": [
        {
          "internalType": "uint256",
          "name": "",
          "type": "uint256"
        }
      ],
      "stateMutability": "view",
      "type": "function"
    }
  ],
  "bytecode": "0x6080604052600180546001600160a01b0319169055600060035534801561002557600080fd5b50604051610bbe380380610bbe8339810160408190526100449161019a565b8061004e3361014a565b600180546001600160a01b0319166001600160a01b038316178155604080518082018252600d81526c15da1a5d195b1a5cdd135a5b9d609a1b60209182015281518083018352928352603160f81b9281019290925280517f8b73c3c69bb8fe3d512ecc4cf759cc79239f7b179b0ffacaa9a75d522b39400f928101929092527f67c8313423c530a1c0e73e7591c862f362ecb90b95e1fed6dbefb108ff8329ef908201527fc89efdaa54c0f20c7adf612882df0950f5a951637e0307cdcb4c672f298b8bc660608201524660808201523060a082015260c0016040516020818303038152906040528051906020012060028190555050506101ca565b600080546001600160a01b038381166001600160a01b0319831681178455604051919092169283917f8be0079c531659141344cd1fd0a4f28419497f9722a3daafe3b4186f6b6457e09190a35050565b6000602082840312156101ac57600080fd5b81516001600160a01b03811681146101c357600080fd5b9392505050565b6109e5806101d96000396000f3fe608060405234801561001057600080fd5b50600436106100885760003560e01c8063cb0de25a1161005b578063cb0de25a146100d7578063cd770833146100ea578063f2fde38b146100fd578063fa4d280c1461011057600080fd5b80630c55699c1461008d5780633644e515146100a9578063715018a6146100b25780638da5cb5b146100bc575b600080fd5b61009660035481565b6040519081526020015b60405180910390f35b61009660025481565b6100ba610137565b005b6000546040516001600160a01b0390911681526020016100a0565b6100ba6100e53660046108d1565b6101a2565b6100ba6100f8366004610943565b610382565b6100ba61010b366004610943565b61040b565b6100967f68e83002b91b0fd96d4df3566b5122221117e3ec6c2468fda594f6491f89b1c981565b6000546001600160a01b031633146101965760405162461bcd60e51b815260206004820181905260248201527f4f776e61626c653a2063616c6c6572206973206e6f7420746865206f776e657260448201526064015b60405180910390fd5b6101a060006104ed565b565b600154829082906001600160a01b03166101fe5760405162461bcd60e51b815260206004820152601560248201527f77686974656c697374206e6f7420656e61626c65640000000000000000000000604482015260640161018d565b60006002547f68e83002b91b0fd96d4df3566b5122221117e3ec6c2468fda594f6491f89b1c961022b3390565b60405160200161024e9291909182526001600160a01b0316602082015260400190565b604051602081830303815290604052805190602001206040516020016102a69291907f190100000000000000000000000000000000000000000000000000000000000081526002810192909252602282015260420190565b604051602081830303815290604052805190602001209050600061030284848080601f016020809104026020016040519081016040528093929190818152602001838380828437600092019190915250869392505061054a9050565b6001549091506001600160a01b038083169116146103625760405162461bcd60e51b815260206004820152601160248201527f496e76616c6964205369676e6174757265000000000000000000000000000000604482015260640161018d565b6001600360008282546103759190610973565b9091555050505050505050565b6000546001600160a01b031633146103dc5760405162461bcd60e51b815260206004820181905260248201527f4f776e61626c653a2063616c6c6572206973206e6f7420746865206f776e6572604482015260640161018d565b6001805473ffffffffffffffffffffffffffffffffffffffff19166001600160a01b0392909216919091179055565b6000546001600160a01b031633146104655760405162461bcd60e51b815260206004820181905260248201527f4f776e61626c653a2063616c6c6572206973206e6f7420746865206f776e6572604482015260640161018d565b6001600160a01b0381166104e15760405162461bcd60e51b815260206004820152602660248201527f4f776e61626c653a206e6577206f776e657220697320746865207a65726f206160448201527f6464726573730000000000000000000000000000000000000000000000000000606482015260840161018d565b6104ea816104ed565b50565b600080546001600160a01b0383811673ffffffffffffffffffffffffffffffffffffffff19831681178455604051919092169283917f8be0079c531659141344cd1fd0a4f28419497f9722a3daafe3b4186f6b6457e09190a35050565b6000806000610559858561056e565b91509150610566816105dc565b509392505050565b60008082516041036105a45760208301516040840151606085015160001a61059887828585610792565b945094505050506105d5565b82516040036105cd57602083015160408401516105c286838361087f565b9350935050506105d5565b506000905060025b9250929050565b60008160048111156105f0576105f0610999565b036105f85750565b600181600481111561060c5761060c610999565b036106595760405162461bcd60e51b815260206004820152601860248201527f45434453413a20696e76616c6964207369676e61747572650000000000000000604482015260640161018d565b600281600481111561066d5761066d610999565b036106ba5760405162461bcd60e51b815260206004820152601f60248201527f45434453413a20696e76616c6964207369676e6174757265206c656e67746800604482015260640161018d565b60038160048111156106ce576106ce610999565b036107265760405162461bcd60e51b815260206004820152602260248201527f45434453413a20696e76616c6964207369676e6174757265202773272076616c604482015261756560f01b606482015260840161018d565b600481600481111561073a5761073a610999565b036104ea5760405162461bcd60e51b815260206004820152602260248201527f45434453413a20696e76616c6964207369676e6174757265202776272076616c604482015261756560f01b606482015260840161018d565b6000807f7fffffffffffffffffffffffffffffff5d576e7357a4501ddfe92f46681b20a08311156107c95750600090506003610876565b8460ff16601b141580156107e157508460ff16601c14155b156107f25750600090506004610876565b6040805160008082526020820180845289905260ff881692820192909252606081018690526080810185905260019060a0016020604051602081039080840390855afa158015610846573d6000803e3d6000fd5b5050604051601f1901519150506001600160a01b03811661086f57600060019250925050610876565b9150600090505b94509492505050565b6000807f7fffffffffffffffffffffffffffffffffffffffffffffffffffffffffffffff8316816108b560ff86901c601b610973565b90506108c387828885610792565b935093505050935093915050565b600080602083850312156108e457600080fd5b823567ffffffffffffffff808211156108fc57600080fd5b818501915085601f83011261091057600080fd5b81358181111561091f57600080fd5b86602082850101111561093157600080fd5b60209290920196919550909350505050565b60006020828403121561095557600080fd5b81356001600160a01b038116811461096c57600080fd5b9392505050565b6000821982111561099457634e487b7160e01b600052601160045260246000fd5b500190565b634e487b7160e01b600052602160045260246000fdfea2646970667358221220a1170d7db6cf75915ce4d84f4fc7f73d00a094f00ff844d6ebbb3552dcf70e9564736f6c634300080d0033",
  "linkReferences": {},
  "deployedLinkReferences": {}
}