{
  "_format": "hh-sol-artifact-1",
  "contractName": "vSamuraiMock",
  "sourceName": "contracts/mocks/vSamuraiMock.sol",
  "abi": [
    {
      "inputs": [
        {
          "internalType": "address",
          "name": "_somebody",
          "type": "address"
        }
      ],
      "name": "balanceOf",
      "outputs": [
        {
          "internalType": "uint256",
          "name": "",
          "type": "uint256"
        }
      ],
      "stateMutability": "pure",
      "type": "function"
    },
    {
      "inputs": [
        {
          "internalType": "address",
          "name": "from",
          "type": "address"
        },
        {
          "internalType": "uint256",
          "name": "amount",
          "type": "uint256"
        },
        {
          "internalType": "address",
          "name": "edoTokenAddress",
          "type": "address"
        }
      ],
      "name": "doBurnsEDO",
      "outputs": [],
      "stateMutability": "nonpayable",
      "type": "function"
    },
    {
      "inputs": [
        {
          "internalType": "uint256",
          "name": "nftId",
          "type": "uint256"
        }
      ],
      "name": "ownerOf",
      "outputs": [
        {
          "internalType": "address",
          "name": "",
          "type": "address"
        }
      ],
      "stateMutability": "view",
      "type": "function"
    },
    {
      "inputs": [
        {
          "internalType": "uint256",
          "name": "",
          "type": "uint256"
        }
      ],
      "name": "ownership",
      "outputs": [
        {
          "internalType": "address",
          "name": "",
          "type": "address"
        }
      ],
      "stateMutability": "view",
      "type": "function"
    },
    {
      "inputs": [
        {
          "internalType": "address",
          "name": "_address",
          "type": "address"
        },
        {
          "internalType": "uint256",
          "name": "nftId",
          "type": "uint256"
        }
      ],
      "name": "setOwner",
      "outputs": [],
      "stateMutability": "nonpayable",
      "type": "function"
    },
    {
      "inputs": [
        {
          "internalType": "address",
          "name": "edoTokenAddress",
          "type": "address"
        },
        {
          "internalType": "address",
          "name": "from",
          "type": "address"
        },
        {
          "internalType": "address",
          "name": "to",
          "type": "address"
        },
        {
          "internalType": "uint256",
          "name": "tokenId",
          "type": "uint256"
        }
      ],
      "name": "transfer",
      "outputs": [],
      "stateMutability": "nonpayable",
      "type": "function"
    }
  ],
  "bytecode": "0x608060405234801561001057600080fd5b50610479806100206000396000f3fe608060405234801561001057600080fd5b50600436106100725760003560e01c8063ab3b87fe11610050578063ab3b87fe14610107578063ec5c940714610152578063f18d03cc1461016557600080fd5b80636352211e1461007757806370a08231146100bd578063a0f45b69146100de575b600080fd5b6100a061008536600461033b565b6000908152602081905260409020546001600160a01b031690565b6040516001600160a01b0390911681526020015b60405180910390f35b6100d06100cb366004610370565b610178565b6040519081526020016100b4565b6100a06100ec36600461033b565b6000602081905290815260409020546001600160a01b031681565b610150610115366004610392565b6000908152602081905260409020805473ffffffffffffffffffffffffffffffffffffffff19166001600160a01b0392909216919091179055565b005b6101506101603660046103bc565b6101f6565b6101506101733660046103f8565b61027a565b60006001600160a01b0382166101ee576040517f08c379a000000000000000000000000000000000000000000000000000000000815260206004820152601e60248201527f43616e74206765742062616c616e636520666f72206164647265737320300000604482015260640160405180910390fd5b50600a919050565b6040517f9dc29fac0000000000000000000000000000000000000000000000000000000081526001600160a01b03848116600483015260248201849052829190821690639dc29fac90604401600060405180830381600087803b15801561025c57600080fd5b505af1158015610270573d6000803e3d6000fd5b5050505050505050565b6040517f2c8e8dfa0000000000000000000000000000000000000000000000000000000081526001600160a01b038481166004830152838116602483015260448201839052859190821690632c8e8dfa90606401600060405180830381600087803b1580156102e857600080fd5b505af11580156102fc573d6000803e3d6000fd5b5050506000838152602081905260409020805473ffffffffffffffffffffffffffffffffffffffff19166001600160a01b038616179055505050505050565b60006020828403121561034d57600080fd5b5035919050565b80356001600160a01b038116811461036b57600080fd5b919050565b60006020828403121561038257600080fd5b61038b82610354565b9392505050565b600080604083850312156103a557600080fd5b6103ae83610354565b946020939093013593505050565b6000806000606084860312156103d157600080fd5b6103da84610354565b9250602084013591506103ef60408501610354565b90509250925092565b6000806000806080858703121561040e57600080fd5b61041785610354565b935061042560208601610354565b925061043360408601610354565b939692955092936060013592505056fea26469706673582212200e400a0ee86d80776d38bcbd32849e306e67f611caae8ade5625e5c3b743be4d64736f6c634300080d0033",
  "linkReferences": {},
  "deployedLinkReferences": {}
}