{
  "_format": "hh-sol-artifact-1",
  "contractName": "OpenSeaProxyRegistry",
  "sourceName": "contracts/vSamurai.sol",
  "abi": [
    {
      "inputs": [
        {
          "internalType": "address",
          "name": "",
          "type": "address"
        }
      ],
      "name": "proxies",
      "outputs": [
        {
          "internalType": "contract OwnableDelegateProxy",
          "name": "",
          "type": "address"
        }
      ],
      "stateMutability": "view",
      "type": "function"
    }
  ],
  "bytecode": "0x608060405234801561001057600080fd5b5060fa8061001f6000396000f3fe6080604052348015600f57600080fd5b506004361060285760003560e01c8063c455279114602d575b600080fd5b606060383660046089565b60006020819052908152604090205473ffffffffffffffffffffffffffffffffffffffff1681565b60405173ffffffffffffffffffffffffffffffffffffffff909116815260200160405180910390f35b600060208284031215609a57600080fd5b813573ffffffffffffffffffffffffffffffffffffffff8116811460bd57600080fd5b939250505056fea2646970667358221220c0d4e5a536f31ae3fd7ad4e3787707dd826efc6cccdb4cd5f615d25062d0457364736f6c634300080d0033",
  "linkReferences": {},
  "deployedLinkReferences": {}
}