{
  "_format": "hh-sol-artifact-1",
  "contractName": "vSamurai",
  "sourceName": "contracts/vSamurai.sol",
  "abi": [
    {
      "inputs": [
        {
          "internalType": "string",
          "name": "_baseUri",
          "type": "string"
        },
        {
          "internalType": "uint256",
          "name": "_maxPerWalletWhitelist",
          "type": "uint256"
        },
        {
          "internalType": "uint256",
          "name": "_maxPerWalletPublicSale",
          "type": "uint256"
        },
        {
          "internalType": "address",
          "name": "_developerAddress",
          "type": "address"
        },
        {
          "internalType": "uint256",
          "name": "_developerFee",
          "type": "uint256"
        },
        {
          "internalType": "address",
          "name": "_proxyRegistryAddress",
          "type": "address"
        },
        {
          "internalType": "address",
          "name": "_owner",
          "type": "address"
        },
        {
          "internalType": "address",
          "name": "_signer",
          "type": "address"
        }
      ],
      "stateMutability": "nonpayable",
      "type": "constructor"
    },
    {
      "inputs": [],
      "name": "ApprovalCallerNotOwnerNorApproved",
      "type": "error"
    },
    {
      "inputs": [],
      "name": "ApprovalQueryForNonexistentToken",
      "type": "error"
    },
    {
      "inputs": [],
      "name": "ApprovalToCurrentOwner",
      "type": "error"
    },
    {
      "inputs": [],
      "name": "ApproveToCaller",
      "type": "error"
    },
    {
      "inputs": [],
      "name": "BalanceQueryForZeroAddress",
      "type": "error"
    },
    {
      "inputs": [],
      "name": "MintToZeroAddress",
      "type": "error"
    },
    {
      "inputs": [],
      "name": "MintZeroQuantity",
      "type": "error"
    },
    {
      "inputs": [],
      "name": "OwnerQueryForNonexistentToken",
      "type": "error"
    },
    {
      "inputs": [],
      "name": "TransferCallerNotOwnerNorApproved",
      "type": "error"
    },
    {
      "inputs": [],
      "name": "TransferFromIncorrectOwner",
      "type": "error"
    },
    {
      "inputs": [],
      "name": "TransferToNonERC721ReceiverImplementer",
      "type": "error"
    },
    {
      "inputs": [],
      "name": "TransferToZeroAddress",
      "type": "error"
    },
    {
      "inputs": [],
      "name": "URIQueryForNonexistentToken",
      "type": "error"
    },
    {
      "anonymous": false,
      "inputs": [
        {
          "indexed": true,
          "internalType": "address",
          "name": "owner",
          "type": "address"
        },
        {
          "indexed": true,
          "internalType": "address",
          "name": "approved",
          "type": "address"
        },
        {
          "indexed": true,
          "internalType": "uint256",
          "name": "tokenId",
          "type": "uint256"
        }
      ],
      "name": "Approval",
      "type": "event"
    },
    {
      "anonymous": false,
      "inputs": [
        {
          "indexed": true,
          "internalType": "address",
          "name": "owner",
          "type": "address"
        },
        {
          "indexed": true,
          "internalType": "address",
          "name": "operator",
          "type": "address"
        },
        {
          "indexed": false,
          "internalType": "bool",
          "name": "approved",
          "type": "bool"
        }
      ],
      "name": "ApprovalForAll",
      "type": "event"
    },
    {
      "anonymous": false,
      "inputs": [
        {
          "indexed": true,
          "internalType": "address",
          "name": "previousOwner",
          "type": "address"
        },
        {
          "indexed": true,
          "internalType": "address",
          "name": "newOwner",
          "type": "address"
        }
      ],
      "name": "OwnershipTransferred",
      "type": "event"
    },
    {
      "anonymous": false,
      "inputs": [
        {
          "indexed": true,
          "internalType": "address",
          "name": "from",
          "type": "address"
        },
        {
          "indexed": true,
          "internalType": "address",
          "name": "to",
          "type": "address"
        },
        {
          "indexed": true,
          "internalType": "uint256",
          "name": "tokenId",
          "type": "uint256"
        }
      ],
      "name": "Transfer",
      "type": "event"
    },
    {
      "inputs": [],
      "name": "BREEDING_ACTIVE",
      "outputs": [
        {
          "internalType": "bool",
          "name": "",
          "type": "bool"
        }
      ],
      "stateMutability": "view",
      "type": "function"
    },
    {
      "inputs": [],
      "name": "BREED_PRICE",
      "outputs": [
        {
          "internalType": "uint256",
          "name": "",
          "type": "uint256"
        }
      ],
      "stateMutability": "view",
      "type": "function"
    },
    {
      "inputs": [],
      "name": "DOMAIN_SEPARATOR",
      "outputs": [
        {
          "internalType": "bytes32",
          "name": "",
          "type": "bytes32"
        }
      ],
      "stateMutability": "view",
      "type": "function"
    },
    {
      "inputs": [],
      "name": "MAX_NFT_CLAIMS",
      "outputs": [
        {
          "internalType": "uint256",
          "name": "",
          "type": "uint256"
        }
      ],
      "stateMutability": "view",
      "type": "function"
    },
    {
      "inputs": [],
      "name": "MAX_SUPPLY",
      "outputs": [
        {
          "internalType": "uint256",
          "name": "",
          "type": "uint256"
        }
      ],
      "stateMutability": "view",
      "type": "function"
    },
    {
      "inputs": [],
      "name": "MINTER_TYPEHASH",
      "outputs": [
        {
          "internalType": "bytes32",
          "name": "",
          "type": "bytes32"
        }
      ],
      "stateMutability": "view",
      "type": "function"
    },
    {
      "inputs": [],
      "name": "NFT_CLAIMED",
      "outputs": [
        {
          "internalType": "uint256",
          "name": "",
          "type": "uint256"
        }
      ],
      "stateMutability": "view",
      "type": "function"
    },
    {
      "inputs": [],
      "name": "NFT_PRICE",
      "outputs": [
        {
          "internalType": "uint256",
          "name": "",
          "type": "uint256"
        }
      ],
      "stateMutability": "view",
      "type": "function"
    },
    {
      "inputs": [],
      "name": "NFT_PRICE_PRESALE",
      "outputs": [
        {
          "internalType": "uint256",
          "name": "",
          "type": "uint256"
        }
      ],
      "stateMutability": "view",
      "type": "function"
    },
    {
      "inputs": [
        {
          "internalType": "address",
          "name": "",
          "type": "address"
        }
      ],
      "name": "addressToMinted",
      "outputs": [
        {
          "internalType": "uint256",
          "name": "",
          "type": "uint256"
        }
      ],
      "stateMutability": "view",
      "type": "function"
    },
    {
      "inputs": [
        {
          "internalType": "address",
          "name": "",
          "type": "address"
        }
      ],
      "name": "addressToWhitelistMinted",
      "outputs": [
        {
          "internalType": "uint256",
          "name": "",
          "type": "uint256"
        }
      ],
      "stateMutability": "view",
      "type": "function"
    },
    {
      "inputs": [
        {
          "internalType": "address",
          "name": "to",
          "type": "address"
        },
        {
          "internalType": "uint256",
          "name": "tokenId",
          "type": "uint256"
        }
      ],
      "name": "approve",
      "outputs": [],
      "stateMutability": "nonpayable",
      "type": "function"
    },
    {
      "inputs": [
        {
          "internalType": "address",
          "name": "owner",
          "type": "address"
        }
      ],
      "name": "balanceOf",
      "outputs": [
        {
          "internalType": "uint256",
          "name": "",
          "type": "uint256"
        }
      ],
      "stateMutability": "view",
      "type": "function"
    },
    {
      "inputs": [],
      "name": "baseTokenURI",
      "outputs": [
        {
          "internalType": "string",
          "name": "",
          "type": "string"
        }
      ],
      "stateMutability": "view",
      "type": "function"
    },
    {
      "inputs": [
        {
          "internalType": "uint256",
          "name": "_male",
          "type": "uint256"
        },
        {
          "internalType": "uint256",
          "name": "_female",
          "type": "uint256"
        }
      ],
      "name": "breed",
      "outputs": [],
      "stateMutability": "nonpayable",
      "type": "function"
    },
    {
      "inputs": [],
      "name": "breedManager",
      "outputs": [
        {
          "internalType": "contract IBreedManager",
          "name": "",
          "type": "address"
        }
      ],
      "stateMutability": "view",
      "type": "function"
    },
    {
      "inputs": [
        {
          "internalType": "address",
          "name": "recipient",
          "type": "address"
        },
        {
          "internalType": "uint256",
          "name": "_quantity",
          "type": "uint256"
        }
      ],
      "name": "devMint",
      "outputs": [],
      "stateMutability": "nonpayable",
      "type": "function"
    },
    {
      "inputs": [],
      "name": "flipBreedingActive",
      "outputs": [],
      "stateMutability": "nonpayable",
      "type": "function"
    },
    {
      "inputs": [],
      "name": "flipPreSaleState",
      "outputs": [],
      "stateMutability": "nonpayable",
      "type": "function"
    },
    {
      "inputs": [
        {
          "internalType": "address",
          "name": "proxyAddress",
          "type": "address"
        }
      ],
      "name": "flipProxyState",
      "outputs": [],
      "stateMutability": "nonpayable",
      "type": "function"
    },
    {
      "inputs": [],
      "name": "flipSaleState",
      "outputs": [],
      "stateMutability": "nonpayable",
      "type": "function"
    },
    {
      "inputs": [
        {
          "internalType": "uint256",
          "name": "tokenId",
          "type": "uint256"
        }
      ],
      "name": "getApproved",
      "outputs": [
        {
          "internalType": "address",
          "name": "",
          "type": "address"
        }
      ],
      "stateMutability": "view",
      "type": "function"
    },
    {
      "inputs": [
        {
          "internalType": "uint256",
          "name": "tokenId",
          "type": "uint256"
        }
      ],
      "name": "getOwnershipData",
      "outputs": [
        {
          "components": [
            {
              "internalType": "address",
              "name": "addr",
              "type": "address"
            },
            {
              "internalType": "uint64",
              "name": "startTimestamp",
              "type": "uint64"
            },
            {
              "internalType": "bool",
              "name": "burned",
              "type": "bool"
            }
          ],
          "internalType": "struct ERC721A.TokenOwnership",
          "name": "",
          "type": "tuple"
        }
      ],
      "stateMutability": "view",
      "type": "function"
    },
    {
      "inputs": [],
      "name": "hasPreSaleStarted",
      "outputs": [
        {
          "internalType": "bool",
          "name": "",
          "type": "bool"
        }
      ],
      "stateMutability": "view",
      "type": "function"
    },
    {
      "inputs": [],
      "name": "hasSaleStarted",
      "outputs": [
        {
          "internalType": "bool",
          "name": "",
          "type": "bool"
        }
      ],
      "stateMutability": "view",
      "type": "function"
    },
    {
      "inputs": [
        {
          "internalType": "address",
          "name": "_owner",
          "type": "address"
        },
        {
          "internalType": "address",
          "name": "operator",
          "type": "address"
        }
      ],
      "name": "isApprovedForAll",
      "outputs": [
        {
          "internalType": "bool",
          "name": "",
          "type": "bool"
        }
      ],
      "stateMutability": "view",
      "type": "function"
    },
    {
      "inputs": [],
      "name": "maxPerWalletPublicSale",
      "outputs": [
        {
          "internalType": "uint256",
          "name": "",
          "type": "uint256"
        }
      ],
      "stateMutability": "view",
      "type": "function"
    },
    {
      "inputs": [],
      "name": "maxPerWalletWhitelist",
      "outputs": [
        {
          "internalType": "uint256",
          "name": "",
          "type": "uint256"
        }
      ],
      "stateMutability": "view",
      "type": "function"
    },
    {
      "inputs": [],
      "name": "name",
      "outputs": [
        {
          "internalType": "string",
          "name": "",
          "type": "string"
        }
      ],
      "stateMutability": "view",
      "type": "function"
    },
    {
      "inputs": [],
      "name": "owner",
      "outputs": [
        {
          "internalType": "address",
          "name": "",
          "type": "address"
        }
      ],
      "stateMutability": "view",
      "type": "function"
    },
    {
      "inputs": [
        {
          "internalType": "uint256",
          "name": "tokenId",
          "type": "uint256"
        }
      ],
      "name": "ownerOf",
      "outputs": [
        {
          "internalType": "address",
          "name": "",
          "type": "address"
        }
      ],
      "stateMutability": "view",
      "type": "function"
    },
    {
      "inputs": [
        {
          "internalType": "address",
          "name": "",
          "type": "address"
        }
      ],
      "name": "projectProxy",
      "outputs": [
        {
          "internalType": "bool",
          "name": "",
          "type": "bool"
        }
      ],
      "stateMutability": "view",
      "type": "function"
    },
    {
      "inputs": [],
      "name": "proxyRegistryAddress",
      "outputs": [
        {
          "internalType": "address",
          "name": "",
          "type": "address"
        }
      ],
      "stateMutability": "view",
      "type": "function"
    },
    {
      "inputs": [
        {
          "internalType": "uint256",
          "name": "_quantity",
          "type": "uint256"
        }
      ],
      "name": "publicSaleMint",
      "outputs": [],
      "stateMutability": "payable",
      "type": "function"
    },
    {
      "inputs": [
        {
          "internalType": "bytes",
          "name": "signature",
          "type": "bytes"
        },
        {
          "internalType": "uint256",
          "name": "_tokenId",
          "type": "uint256"
        },
        {
          "internalType": "uint256",
          "name": "_gender",
          "type": "uint256"
        }
      ],
      "name": "registerGender",
      "outputs": [],
      "stateMutability": "nonpayable",
      "type": "function"
    },
    {
      "inputs": [],
      "name": "renounceOwnership",
      "outputs": [],
      "stateMutability": "nonpayable",
      "type": "function"
    },
    {
      "inputs": [
        {
          "internalType": "address",
          "name": "from",
          "type": "address"
        },
        {
          "internalType": "address",
          "name": "to",
          "type": "address"
        },
        {
          "internalType": "uint256",
          "name": "tokenId",
          "type": "uint256"
        }
      ],
      "name": "safeTransferFrom",
      "outputs": [],
      "stateMutability": "nonpayable",
      "type": "function"
    },
    {
      "inputs": [
        {
          "internalType": "address",
          "name": "from",
          "type": "address"
        },
        {
          "internalType": "address",
          "name": "to",
          "type": "address"
        },
        {
          "internalType": "uint256",
          "name": "tokenId",
          "type": "uint256"
        },
        {
          "internalType": "bytes",
          "name": "_data",
          "type": "bytes"
        }
      ],
      "name": "safeTransferFrom",
      "outputs": [],
      "stateMutability": "nonpayable",
      "type": "function"
    },
    {
      "inputs": [
        {
          "internalType": "address",
          "name": "operator",
          "type": "address"
        },
        {
          "internalType": "bool",
          "name": "approved",
          "type": "bool"
        }
      ],
      "name": "setApprovalForAll",
      "outputs": [],
      "stateMutability": "nonpayable",
      "type": "function"
    },
    {
      "inputs": [
        {
          "internalType": "string",
          "name": "baseURI",
          "type": "string"
        }
      ],
      "name": "setBaseURI",
      "outputs": [],
      "stateMutability": "nonpayable",
      "type": "function"
    },
    {
      "inputs": [
        {
          "internalType": "uint256",
          "name": "_breedPrice",
          "type": "uint256"
        }
      ],
      "name": "setBreedPrice",
      "outputs": [],
      "stateMutability": "nonpayable",
      "type": "function"
    },
    {
      "inputs": [
        {
          "internalType": "address",
          "name": "_manager",
          "type": "address"
        }
      ],
      "name": "setBreedingManager",
      "outputs": [],
      "stateMutability": "nonpayable",
      "type": "function"
    },
    {
      "inputs": [
        {
          "internalType": "address",
          "name": "_developerAddress",
          "type": "address"
        }
      ],
      "name": "setDeveloperPaymentAddress",
      "outputs": [],
      "stateMutability": "nonpayable",
      "type": "function"
    },
    {
      "inputs": [
        {
          "internalType": "uint256",
          "name": "fee",
          "type": "uint256"
        }
      ],
      "name": "setDeveloperPaymentFee",
      "outputs": [],
      "stateMutability": "nonpayable",
      "type": "function"
    },
    {
      "inputs": [
        {
          "internalType": "uint256",
          "name": "nftPrice",
          "type": "uint256"
        }
      ],
      "name": "setMintPrice",
      "outputs": [],
      "stateMutability": "nonpayable",
      "type": "function"
    },
    {
      "inputs": [
        {
          "internalType": "uint256",
          "name": "nftPublicPrice",
          "type": "uint256"
        }
      ],
      "name": "setPresalePrice",
      "outputs": [],
      "stateMutability": "nonpayable",
      "type": "function"
    },
    {
      "inputs": [
        {
          "internalType": "address",
          "name": "_proxyRegistryAddress",
          "type": "address"
        }
      ],
      "name": "setProxyRegistryAddress",
      "outputs": [],
      "stateMutability": "nonpayable",
      "type": "function"
    },
    {
      "inputs": [
        {
          "internalType": "address",
          "name": "newSigningKey",
          "type": "address"
        }
      ],
      "name": "setWhitelistSigningAddress",
      "outputs": [],
      "stateMutability": "nonpayable",
      "type": "function"
    },
    {
      "inputs": [
        {
          "internalType": "address",
          "name": "_yield",
          "type": "address"
        }
      ],
      "name": "setYieldToken",
      "outputs": [],
      "stateMutability": "nonpayable",
      "type": "function"
    },
    {
      "inputs": [
        {
          "internalType": "bytes4",
          "name": "interfaceId",
          "type": "bytes4"
        }
      ],
      "name": "supportsInterface",
      "outputs": [
        {
          "internalType": "bool",
          "name": "",
          "type": "bool"
        }
      ],
      "stateMutability": "view",
      "type": "function"
    },
    {
      "inputs": [],
      "name": "symbol",
      "outputs": [
        {
          "internalType": "string",
          "name": "",
          "type": "string"
        }
      ],
      "stateMutability": "view",
      "type": "function"
    },
    {
      "inputs": [
        {
          "internalType": "uint256",
          "name": "tokenId",
          "type": "uint256"
        }
      ],
      "name": "tokenURI",
      "outputs": [
        {
          "internalType": "string",
          "name": "",
          "type": "string"
        }
      ],
      "stateMutability": "view",
      "type": "function"
    },
    {
      "inputs": [
        {
          "internalType": "address",
          "name": "owner",
          "type": "address"
        }
      ],
      "name": "tokensOfOwner",
      "outputs": [
        {
          "internalType": "uint256[]",
          "name": "",
          "type": "uint256[]"
        }
      ],
      "stateMutability": "view",
      "type": "function"
    },
    {
      "inputs": [],
      "name": "totalSupply",
      "outputs": [
        {
          "internalType": "uint256",
          "name": "",
          "type": "uint256"
        }
      ],
      "stateMutability": "view",
      "type": "function"
    },
    {
      "inputs": [
        {
          "internalType": "address",
          "name": "from",
          "type": "address"
        },
        {
          "internalType": "address",
          "name": "to",
          "type": "address"
        },
        {
          "internalType": "uint256",
          "name": "tokenId",
          "type": "uint256"
        }
      ],
      "name": "transferFrom",
      "outputs": [],
      "stateMutability": "nonpayable",
      "type": "function"
    },
    {
      "inputs": [
        {
          "internalType": "address",
          "name": "newOwner",
          "type": "address"
        }
      ],
      "name": "transferOwnership",
      "outputs": [],
      "stateMutability": "nonpayable",
      "type": "function"
    },
    {
      "inputs": [
        {
          "internalType": "bytes",
          "name": "signature",
          "type": "bytes"
        },
        {
          "internalType": "uint256",
          "name": "_quantity",
          "type": "uint256"
        }
      ],
      "name": "whitelistMint",
      "outputs": [],
      "stateMutability": "payable",
      "type": "function"
    },
    {
      "inputs": [],
      "name": "withdraw",
      "outputs": [],
      "stateMutability": "nonpayable",
      "type": "function"
    },
    {
      "inputs": [],
      "name": "yieldToken",
      "outputs": [
        {
          "internalType": "contract IEDOToken",
          "name": "",
          "type": "address"
        }
      ],
      "stateMutability": "view",
      "type": "function"
    }
  ],
  "bytecode": "0x60c0604052600c80546001600160a01b0319169055600f805460ff60a01b19169055609660105567010a741a4627800060138190556014556018805461ffff19169055601980556000601a553480156200005857600080fd5b5060405162004348380380620043488339810160408190526200007b9162000515565b80604051806040016040528060088152602001677653616d7572616960c01b81525060405180604001604052806002815260200161565360f01b815250620000d2620000cc6200026760201b60201c565b6200026b565b600180558151620000eb9060049060208501906200043c565b508051620001019060059060208401906200043c565b5060016002555050600c80546001600160a01b0319166001600160a01b038316179055604080518082018252600d81526c15da1a5d195b1a5cdd135a5b9d609a1b6020918201528151808301835260018152603160f81b9082015281517f8b73c3c69bb8fe3d512ecc4cf759cc79239f7b179b0ffacaa9a75d522b39400f918101919091527f67c8313423c530a1c0e73e7591c862f362ecb90b95e1fed6dbefb108ff8329ef918101919091527fc89efdaa54c0f20c7adf612882df0950f5a951637e0307cdcb4c672f298b8bc660608201524660808201523060a082015260c00160408051601f198184030181529190528051602091820120600d5589516200021292506011918b01906200043c565b50608087905260a0869052601280546001600160a01b0319166001600160a01b0385161790556200024385620002bb565b6200024e846200032c565b62000259826200037c565b505050505050505062000698565b3390565b600080546001600160a01b038381166001600160a01b0319831681178455604051919092169283917f8be0079c531659141344cd1fd0a4f28419497f9722a3daafe3b4186f6b6457e09190a35050565b6000546001600160a01b031633146200030a5760405162461bcd60e51b815260206004820181905260248201526000805160206200432883398151915260448201526064015b60405180910390fd5b600a80546001600160a01b0319166001600160a01b0392909216919091179055565b6000546001600160a01b03163314620003775760405162461bcd60e51b8152602060048201819052602482015260008051602062004328833981519152604482015260640162000301565b600b55565b6000546001600160a01b03163314620003c75760405162461bcd60e51b8152602060048201819052602482015260008051602062004328833981519152604482015260640162000301565b6001600160a01b0381166200042e5760405162461bcd60e51b815260206004820152602660248201527f4f776e61626c653a206e6577206f776e657220697320746865207a65726f206160448201526564647265737360d01b606482015260840162000301565b62000439816200026b565b50565b8280546200044a906200065c565b90600052602060002090601f0160209004810192826200046e5760008555620004b9565b82601f106200048957805160ff1916838001178555620004b9565b82800160010185558215620004b9579182015b82811115620004b95782518255916020019190600101906200049c565b50620004c7929150620004cb565b5090565b5b80821115620004c75760008155600101620004cc565b634e487b7160e01b600052604160045260246000fd5b80516001600160a01b03811681146200051057600080fd5b919050565b600080600080600080600080610100898b0312156200053357600080fd5b88516001600160401b03808211156200054b57600080fd5b818b0191508b601f8301126200056057600080fd5b815181811115620005755762000575620004e2565b604051601f8201601f19908116603f01168101908382118183101715620005a057620005a0620004e2565b81604052828152602093508e84848701011115620005bd57600080fd5b600091505b82821015620005e15784820184015181830185015290830190620005c2565b82821115620005f35760008484830101525b809c50505050808b015198505050604089015195506200061660608a01620004f8565b9450608089015193506200062d60a08a01620004f8565b92506200063d60c08a01620004f8565b91506200064d60e08a01620004f8565b90509295985092959890939650565b600181811c908216806200067157607f821691505b6020821081036200069257634e487b7160e01b600052602260045260246000fd5b50919050565b60805160a051613c39620006ef600039600081816107ab0152818161180f015281816118470152818161188501528181611d370152611db701526000818161058f01528181610f780152610ff80152613c396000f3fe60806040526004361061038c5760003560e01c806371beeba1116101dc578063c8b5d46311610102578063e61eba77116100a0578063f4a0a5281161006f578063f4a0a52814610a8e578063f535f54614610aae578063f73c814b14610ace578063fa4d280c14610aee57600080fd5b8063e61eba7714610a19578063e985e9c514610a39578063f032554914610a59578063f2fde38b14610a6e57600080fd5b8063d26ea6c0116100dc578063d26ea6c0146109a4578063d547cfb7146109c4578063d9ecad7b146109d9578063e0fd53ec146109f957600080fd5b8063c8b5d46314610944578063cd77083314610964578063cd7c03261461098457600080fd5b806395d89b411161017a578063b88d4fde11610149578063b88d4fde146108d8578063b9a49213146108f8578063bf424e7e1461090e578063c87b56dd1461092457600080fd5b806395d89b41146108635780639ec00c9514610878578063a22cb465146108a5578063b3ab66b0146108c557600080fd5b806387b7fcaa116101b657806387b7fcaa1461079957806389303a1b146107cd5780638da5cb5b146107ee5780639231ab2a1461080c57600080fd5b806371beeba11461072c57806376d5de851461074c5780638462151c1461076c57600080fd5b80633644e515116102c15780635bab26e21161025f5780636a5928f51161022e5780636a5928f5146106b85780636b0a36cc146106d757806370a08231146106f7578063715018a61461071757600080fd5b80635bab26e214610632578063627804af146106625780636352211e14610682578063676dd563146106a257600080fd5b80633ccfd60b1161029b5780633ccfd60b146105c757806342842e0e146105dc57806355f804b3146105fc578063577ad34d1461061c57600080fd5b80633644e5151461056757806336a4e19b1461057d5780633a8403bd146105b157600080fd5b80631c8b232d1161032e57806326290eca1161030857806326290eca1461050757806332cb6b0c1461051c57806334918dfd146105325780633549345e1461054757600080fd5b80631c8b232d146104ad57806323b872dd146104c757806323ffce85146104e757600080fd5b8063081812fc1161036a578063081812fc1461042357806308e3f8681461045b578063095ea7b31461047057806318160ddd1461049057600080fd5b806301ffc9a71461039157806305fab7a5146103c657806306fdde0314610401575b600080fd5b34801561039d57600080fd5b506103b16103ac36600461358e565b610b22565b60405190151581526020015b60405180910390f35b3480156103d257600080fd5b506103f36103e13660046135c0565b60166020526000908152604090205481565b6040519081526020016103bd565b34801561040d57600080fd5b50610416610bbf565b6040516103bd9190613635565b34801561042f57600080fd5b5061044361043e366004613648565b610c51565b6040516001600160a01b0390911681526020016103bd565b61046e6104693660046136a3565b610cae565b005b34801561047c57600080fd5b5061046e61048b3660046136ef565b61110d565b34801561049c57600080fd5b5060035460025403600019016103f3565b3480156104b957600080fd5b506018546103b19060ff1681565b3480156104d357600080fd5b5061046e6104e236600461371b565b6111cc565b3480156104f357600080fd5b5061046e6105023660046135c0565b611257565b34801561051357600080fd5b5061046e6112c1565b34801561052857600080fd5b506103f361271081565b34801561053e57600080fd5b5061046e611345565b34801561055357600080fd5b5061046e610562366004613648565b6113a1565b34801561057357600080fd5b506103f3600d5481565b34801561058957600080fd5b506103f37f000000000000000000000000000000000000000000000000000000000000000081565b3480156105bd57600080fd5b506103f360195481565b3480156105d357600080fd5b5061046e6113ee565b3480156105e857600080fd5b5061046e6105f736600461371b565b61163c565b34801561060857600080fd5b5061046e61061736600461375c565b611657565b34801561062857600080fd5b506103f360145481565b34801561063e57600080fd5b506103b161064d3660046135c0565b60156020526000908152604090205460ff1681565b34801561066e57600080fd5b5061046e61067d3660046136ef565b6116ab565b34801561068e57600080fd5b5061044361069d366004613648565b6118d9565b3480156106ae57600080fd5b506103f360135481565b3480156106c457600080fd5b506018546103b190610100900460ff1681565b3480156106e357600080fd5b5061046e6106f236600461379e565b6118eb565b34801561070357600080fd5b506103f36107123660046135c0565b611972565b34801561072357600080fd5b5061046e6119da565b34801561073857600080fd5b5061046e610747366004613648565b611a2e565b34801561075857600080fd5b50600e54610443906001600160a01b031681565b34801561077857600080fd5b5061078c6107873660046135c0565b611a7b565b6040516103bd91906137ef565b3480156107a557600080fd5b506103f37f000000000000000000000000000000000000000000000000000000000000000081565b3480156107d957600080fd5b50600f546103b190600160a01b900460ff1681565b3480156107fa57600080fd5b506000546001600160a01b0316610443565b34801561081857600080fd5b5061082c610827366004613648565b611ba6565b6040805182516001600160a01b0316815260208084015167ffffffffffffffff1690820152918101511515908201526060016103bd565b34801561086f57600080fd5b50610416611bcc565b34801561088457600080fd5b506103f36108933660046135c0565b60176020526000908152604090205481565b3480156108b157600080fd5b5061046e6108c0366004613841565b611bdb565b61046e6108d3366004613648565b611c89565b3480156108e457600080fd5b5061046e6108f3366004613890565b611f18565b34801561090457600080fd5b506103f3601a5481565b34801561091a57600080fd5b506103f360105481565b34801561093057600080fd5b5061041661093f366004613648565b611faa565b34801561095057600080fd5b50600f54610443906001600160a01b031681565b34801561097057600080fd5b5061046e61097f3660046135c0565b612047565b34801561099057600080fd5b50601254610443906001600160a01b031681565b3480156109b057600080fd5b5061046e6109bf3660046135c0565b6120b1565b3480156109d057600080fd5b5061041661211b565b3480156109e557600080fd5b5061046e6109f4366004613970565b6121a9565b348015610a0557600080fd5b5061046e610a14366004613648565b61240b565b348015610a2557600080fd5b5061046e610a343660046135c0565b612458565b348015610a4557600080fd5b506103b1610a54366004613992565b6124c2565b348015610a6557600080fd5b5061046e6125bf565b348015610a7a57600080fd5b5061046e610a893660046135c0565b612624565b348015610a9a57600080fd5b5061046e610aa9366004613648565b6126f4565b348015610aba57600080fd5b5061046e610ac93660046135c0565b612741565b348015610ada57600080fd5b5061046e610ae93660046135c0565b6127ab565b348015610afa57600080fd5b506103f37f68e83002b91b0fd96d4df3566b5122221117e3ec6c2468fda594f6491f89b1c981565b60006001600160e01b031982167f80ac58cd000000000000000000000000000000000000000000000000000000001480610b8557506001600160e01b031982167f5b5e139f00000000000000000000000000000000000000000000000000000000145b80610bb957507f01ffc9a7000000000000000000000000000000000000000000000000000000006001600160e01b03198316145b92915050565b606060048054610bce906139c0565b80601f0160208091040260200160405190810160405280929190818152602001828054610bfa906139c0565b8015610c475780601f10610c1c57610100808354040283529160200191610c47565b820191906000526020600020905b815481529060010190602001808311610c2a57829003601f168201915b5050505050905090565b6000610c5c8261281c565b610c92576040517fcf4700e400000000000000000000000000000000000000000000000000000000815260040160405180910390fd5b506000908152600860205260409020546001600160a01b031690565b323314610d025760405162461bcd60e51b815260206004820152601e60248201527f5468652063616c6c657220697320616e6f7468657220636f6e7472616374000060448201526064015b60405180910390fd5b600c54839083906001600160a01b0316610d5e5760405162461bcd60e51b815260206004820152601560248201527f77686974656c697374206e6f7420656e61626c656400000000000000000000006044820152606401610cf9565b6000600d547f68e83002b91b0fd96d4df3566b5122221117e3ec6c2468fda594f6491f89b1c9610d8b3390565b604051602001610dae9291909182526001600160a01b0316602082015260400190565b60405160208183030381529060405280519060200120604051602001610e069291907f190100000000000000000000000000000000000000000000000000000000000081526002810192909252602282015260420190565b6040516020818303038152906040528051906020012090506000610e6284848080601f01602080910402602001604051908101604052809392919081815260200183838082843760009201919091525086939250506128559050565b600c549091506001600160a01b03808316911614610ec25760405162461bcd60e51b815260206004820152601160248201527f496e76616c6964205369676e61747572650000000000000000000000000000006044820152606401610cf9565b84601454610ed09190613a10565b341015610f1f5760405162461bcd60e51b815260206004820152601560248201527f496e636f72726563742065746865722076616c756500000000000000000000006044820152606401610cf9565b601854610100900460ff16610f765760405162461bcd60e51b815260206004820152601760248201527f50726573616c6520686173206e6f7420737461727465640000000000000000006044820152606401610cf9565b7f0000000000000000000000000000000000000000000000000000000000000000851115610fe65760405162461bcd60e51b815260206004820152601260248201527f45786365656473206d61782070657220747800000000000000000000000000006044820152606401610cf9565b336000908152601660205260409020547f000000000000000000000000000000000000000000000000000000000000000090611023908790613a2f565b11156110715760405162461bcd60e51b815260206004820152601860248201527f457863656564732077686974656c69737420737570706c7900000000000000006044820152606401610cf9565b60035460025486919003600019016110899190613a2f565b60195461109890612710613a47565b116110d65760405162461bcd60e51b815260206004820152600e60248201526d4578636565647320737570706c7960901b6044820152606401610cf9565b6110e03386612879565b33600090815260166020526040812080548792906110ff908490613a2f565b909155505050505050505050565b6000611118826118d9565b9050806001600160a01b0316836001600160a01b031603611165576040517f943f7b8c00000000000000000000000000000000000000000000000000000000815260040160405180910390fd5b336001600160a01b03821614801590611185575061118381336124c2565b155b156111bc576040517fcfb3b94200000000000000000000000000000000000000000000000000000000815260040160405180910390fd5b6111c7838383612893565b505050565b600e546001600160a01b03161561124c57600e5460405163164746fd60e11b81526001600160a01b03858116600483015284811660248301526044820184905290911690632c8e8dfa90606401600060405180830381600087803b15801561123357600080fd5b505af1158015611247573d6000803e3d6000fd5b505050505b6111c78383836128ef565b6000546001600160a01b0316331461129f5760405162461bcd60e51b81526020600482018190526024820152600080516020613be48339815191526044820152606401610cf9565b600e80546001600160a01b0319166001600160a01b0392909216919091179055565b6000546001600160a01b031633146113095760405162461bcd60e51b81526020600482018190526024820152600080516020613be48339815191526044820152606401610cf9565b600f80547fffffffffffffffffffffff00ffffffffffffffffffffffffffffffffffffffff8116600160a01b9182900460ff1615909102179055565b6000546001600160a01b0316331461138d5760405162461bcd60e51b81526020600482018190526024820152600080516020613be48339815191526044820152606401610cf9565b6018805460ff19811660ff90911615179055565b6000546001600160a01b031633146113e95760405162461bcd60e51b81526020600482018190526024820152600080516020613be48339815191526044820152606401610cf9565b601455565b6000546001600160a01b031633146114365760405162461bcd60e51b81526020600482018190526024820152600080516020613be48339815191526044820152606401610cf9565b6002600154036114885760405162461bcd60e51b815260206004820152601f60248201527f5265656e7472616e637947756172643a207265656e7472616e742063616c6c006044820152606401610cf9565b6002600155476114da5760405162461bcd60e51b815260206004820152601a60248201527f436f6e7472616374206d75737420686176652062616c616e63650000000000006044820152606401610cf9565b60006114e74760646128fa565b600a54600b549192506000916001600160a01b03909116906115099084613a10565b604051600081818185875af1925050503d8060008114611545576040519150601f19603f3d011682016040523d82523d6000602084013e61154a565b606091505b505090508061159b5760405162461bcd60e51b815260206004820152601d60248201527f5061796d656e7420746f20646576656c6f70657273206661696c65642e0000006044820152606401610cf9565b604051600090339047908381818185875af1925050503d80600081146115dd576040519150601f19603f3d011682016040523d82523d6000602084013e6115e2565b606091505b50509050806116335760405162461bcd60e51b815260206004820152601260248201527f5769746864726177616c206661696c65642e00000000000000000000000000006044820152606401610cf9565b50506001805550565b6111c783838360405180602001604052806000815250611f18565b6000546001600160a01b0316331461169f5760405162461bcd60e51b81526020600482018190526024820152600080516020613be48339815191526044820152606401610cf9565b6111c7601183836134df565b6000546001600160a01b031633146116f35760405162461bcd60e51b81526020600482018190526024820152600080516020613be48339815191526044820152606401610cf9565b6019548111156117455760405162461bcd60e51b815260206004820152601260248201527f45786365656473206d617820636c61696d7300000000000000000000000000006044820152606401610cf9565b601954601a546117559083613a2f565b11156117a35760405162461bcd60e51b815260206004820152601260248201527f45786365656473206d617820636c61696d7300000000000000000000000000006044820152606401610cf9565b60035460025482919003600019016117bb9190613a2f565b6019546117ca90612710613a47565b116118085760405162461bcd60e51b815260206004820152600e60248201526d4578636565647320737570706c7960901b6044820152606401610cf9565b60006118347f000000000000000000000000000000000000000000000000000000000000000083613a74565b905060005b8181101561187d5761186b847f0000000000000000000000000000000000000000000000000000000000000000612879565b8061187581613a88565b915050611839565b5060006118aa7f000000000000000000000000000000000000000000000000000000000000000084613aa1565b905080156118bc576118bc8482612879565b82601a60008282546118ce9190613a2f565b909155505050505050565b60006118e48261292c565b5192915050565b600f546040517f6b0a36cc0000000000000000000000000000000000000000000000000000000081526001600160a01b0390911690636b0a36cc9061193a908790879087908790600401613ab5565b600060405180830381600087803b15801561195457600080fd5b505af1158015611968573d6000803e3d6000fd5b5050505050505050565b60006001600160a01b0382166119b4576040517f8f4eb60400000000000000000000000000000000000000000000000000000000815260040160405180910390fd5b506001600160a01b031660009081526007602052604090205467ffffffffffffffff1690565b6000546001600160a01b03163314611a225760405162461bcd60e51b81526020600482018190526024820152600080516020613be48339815191526044820152606401610cf9565b611a2c6000612a6e565b565b6000546001600160a01b03163314611a765760405162461bcd60e51b81526020600482018190526024820152600080516020613be48339815191526044820152606401610cf9565b601055565b60606000611a8883611972565b67ffffffffffffffff811115611aa057611aa061387a565b604051908082528060200260200182016040528015611ac9578160200160208202803683370190505b50600254909150600080805b83811015611b9b57600081815260066020908152604091829020825160608101845290546001600160a01b0381168252600160a01b810467ffffffffffffffff1692820192909252600160e01b90910460ff161580159282019290925290611b3d5750611b93565b80516001600160a01b031615611b5257805192505b876001600160a01b0316836001600160a01b031603611b915781868580600101965081518110611b8457611b84613af5565b6020026020010181815250505b505b600101611ad5565b509295945050505050565b6040805160608101825260008082526020820181905291810191909152610bb98261292c565b606060058054610bce906139c0565b336001600160a01b03831603611c1d576040517fb06307db00000000000000000000000000000000000000000000000000000000815260040160405180910390fd5b3360008181526009602090815260408083206001600160a01b03871680855290835292819020805460ff191686151590811790915590519081529192917f17307eab39ab6107e8899845ad3d59bd9653f200f220920489ca2b5937696c31910160405180910390a35050565b323314611cd85760405162461bcd60e51b815260206004820152601e60248201527f5468652063616c6c657220697320616e6f7468657220636f6e747261637400006044820152606401610cf9565b80601354611ce69190613a10565b341015611d355760405162461bcd60e51b815260206004820152601560248201527f496e636f72726563742065746865722076616c756500000000000000000000006044820152606401610cf9565b7f0000000000000000000000000000000000000000000000000000000000000000811115611da55760405162461bcd60e51b815260206004820152601260248201527f45786365656473206d61782070657220747800000000000000000000000000006044820152606401610cf9565b336000908152601760205260409020547f000000000000000000000000000000000000000000000000000000000000000090611de2908390613a2f565b1115611e305760405162461bcd60e51b815260206004820152601d60248201527f45786365656473206d696e747320666f7220746869732077616c6c65740000006044820152606401610cf9565b60185460ff16611e825760405162461bcd60e51b815260206004820152601460248201527f53616c6520686173206e6f7420737461727465640000000000000000000000006044820152606401610cf9565b6003546002548291900360001901611e9a9190613a2f565b601954611ea990612710613a47565b11611ee75760405162461bcd60e51b815260206004820152600e60248201526d4578636565647320737570706c7960901b6044820152606401610cf9565b611ef13382612879565b3360009081526017602052604081208054839290611f10908490613a2f565b909155505050565b600e546001600160a01b031615611f9857600e5460405163164746fd60e11b81526001600160a01b03868116600483015285811660248301526044820185905290911690632c8e8dfa90606401600060405180830381600087803b158015611f7f57600080fd5b505af1158015611f93573d6000803e3d6000fd5b505050505b611fa484848484612abe565b50505050565b6060611fb58261281c565b611feb576040517fa14c4b5000000000000000000000000000000000000000000000000000000000815260040160405180910390fd5b6000611ff5612b09565b905080516000036120155760405180602001604052806000815250612040565b8061201f84612b18565b604051602001612030929190613b0b565b6040516020818303038152906040525b9392505050565b6000546001600160a01b0316331461208f5760405162461bcd60e51b81526020600482018190526024820152600080516020613be48339815191526044820152606401610cf9565b600c80546001600160a01b0319166001600160a01b0392909216919091179055565b6000546001600160a01b031633146120f95760405162461bcd60e51b81526020600482018190526024820152600080516020613be48339815191526044820152606401610cf9565b601280546001600160a01b0319166001600160a01b0392909216919091179055565b60118054612128906139c0565b80601f0160208091040260200160405190810160405280929190818152602001828054612154906139c0565b80156121a15780601f10612176576101008083540402835291602001916121a1565b820191906000526020600020905b81548152906001019060200180831161218457829003601f168201915b505050505081565b600f546001600160a01b03166122015760405162461bcd60e51b815260206004820152601960248201527f4272656164696e6720636f6e7472616374206e6f7420736574000000000000006044820152606401610cf9565b600e546001600160a01b03166122595760405162461bcd60e51b815260206004820152601360248201527f5969656c6420546f6b656e206e6f7420736574000000000000000000000000006044820152606401610cf9565b600f54600160a01b900460ff166122b25760405162461bcd60e51b815260206004820152601660248201527f4272656564696e67206973206e6f7420616374697665000000000000000000006044820152606401610cf9565b336122bc836118d9565b6001600160a01b03161480156122e25750336122d7826118d9565b6001600160a01b0316145b6122eb57600080fd5b600f546040517fd9ecad7b00000000000000000000000000000000000000000000000000000000815260048101849052602481018390526001600160a01b039091169063d9ecad7b906044016020604051808303816000875af1158015612356573d6000803e3d6000fd5b505050506040513d601f19601f8201168201806040525081019061237a9190613b3a565b61238357600080fd5b600e546001600160a01b0316639dc29fac336010546040516001600160e01b031960e085901b1681526001600160a01b0390921660048301526024820152604401600060405180830381600087803b1580156123de57600080fd5b505af11580156123f2573d6000803e3d6000fd5b505050506124076124003390565b6001612879565b5050565b6000546001600160a01b031633146124535760405162461bcd60e51b81526020600482018190526024820152600080516020613be48339815191526044820152606401610cf9565b600b55565b6000546001600160a01b031633146124a05760405162461bcd60e51b81526020600482018190526024820152600080516020613be48339815191526044820152606401610cf9565b600a80546001600160a01b0319166001600160a01b0392909216919091179055565b6012546040517fc45527910000000000000000000000000000000000000000000000000000000081526001600160a01b03848116600483015260009281169190841690829063c455279190602401602060405180830381865afa15801561252d573d6000803e3d6000fd5b505050506040513d601f19601f820116820180604052508101906125519190613b57565b6001600160a01b0316148061257e57506001600160a01b03831660009081526015602052604090205460ff165b1561258d576001915050610bb9565b6001600160a01b0380851660009081526009602090815260408083209387168352929052205460ff165b949350505050565b6000546001600160a01b031633146126075760405162461bcd60e51b81526020600482018190526024820152600080516020613be48339815191526044820152606401610cf9565b6018805461ff001981166101009182900460ff1615909102179055565b6000546001600160a01b0316331461266c5760405162461bcd60e51b81526020600482018190526024820152600080516020613be48339815191526044820152606401610cf9565b6001600160a01b0381166126e85760405162461bcd60e51b815260206004820152602660248201527f4f776e61626c653a206e6577206f776e657220697320746865207a65726f206160448201527f64647265737300000000000000000000000000000000000000000000000000006064820152608401610cf9565b6126f181612a6e565b50565b6000546001600160a01b0316331461273c5760405162461bcd60e51b81526020600482018190526024820152600080516020613be48339815191526044820152606401610cf9565b601355565b6000546001600160a01b031633146127895760405162461bcd60e51b81526020600482018190526024820152600080516020613be48339815191526044820152606401610cf9565b600f80546001600160a01b0319166001600160a01b0392909216919091179055565b6000546001600160a01b031633146127f35760405162461bcd60e51b81526020600482018190526024820152600080516020613be48339815191526044820152606401610cf9565b6001600160a01b03166000908152601560205260409020805460ff19811660ff90911615179055565b600081600111158015612830575060025482105b8015610bb9575050600090815260066020526040902054600160e01b900460ff161590565b60008060006128648585612c4d565b9150915061287181612cbb565b509392505050565b612407828260405180602001604052806000815250612e71565b60008281526008602052604080822080546001600160a01b0319166001600160a01b0387811691821790925591518593918516917f8c5be1e5ebec7d5bd14f71427d1e84f3dd0314c0f7b2291e5b200ac8c7c3b92591a4505050565b6111c783838361307a565b60006129068284613aa1565b15612912576001612915565b60005b60ff166129228385613a74565b6120409190613a2f565b6040805160608101825260008082526020820181905291810191909152818060011115801561295c575060025481105b15612a3c57600081815260066020908152604091829020825160608101845290546001600160a01b0381168252600160a01b810467ffffffffffffffff1692820192909252600160e01b90910460ff16151591810182905290612a3a5780516001600160a01b0316156129d0579392505050565b5060001901600081815260066020908152604091829020825160608101845290546001600160a01b038116808352600160a01b820467ffffffffffffffff1693830193909352600160e01b900460ff1615159281019290925215612a35579392505050565b6129d0565b505b6040517fdf2d9b4200000000000000000000000000000000000000000000000000000000815260040160405180910390fd5b600080546001600160a01b038381166001600160a01b0319831681178455604051919092169283917f8be0079c531659141344cd1fd0a4f28419497f9722a3daafe3b4186f6b6457e09190a35050565b612ac984848461307a565b6001600160a01b0383163b15158015612aeb5750612ae9848484846132b5565b155b15611fa4576040516368d2bf6b60e11b815260040160405180910390fd5b606060118054610bce906139c0565b606081600003612b5b57505060408051808201909152600181527f3000000000000000000000000000000000000000000000000000000000000000602082015290565b8160005b8115612b855780612b6f81613a88565b9150612b7e9050600a83613a74565b9150612b5f565b60008167ffffffffffffffff811115612ba057612ba061387a565b6040519080825280601f01601f191660200182016040528015612bca576020820181803683370190505b5090505b84156125b757612bdf600183613a47565b9150612bec600a86613aa1565b612bf7906030613a2f565b60f81b818381518110612c0c57612c0c613af5565b60200101907effffffffffffffffffffffffffffffffffffffffffffffffffffffffffffff1916908160001a905350612c46600a86613a74565b9450612bce565b6000808251604103612c835760208301516040840151606085015160001a612c77878285856133a0565b94509450505050612cb4565b8251604003612cac5760208301516040840151612ca186838361348d565b935093505050612cb4565b506000905060025b9250929050565b6000816004811115612ccf57612ccf613b74565b03612cd75750565b6001816004811115612ceb57612ceb613b74565b03612d385760405162461bcd60e51b815260206004820152601860248201527f45434453413a20696e76616c6964207369676e617475726500000000000000006044820152606401610cf9565b6002816004811115612d4c57612d4c613b74565b03612d995760405162461bcd60e51b815260206004820152601f60248201527f45434453413a20696e76616c6964207369676e6174757265206c656e677468006044820152606401610cf9565b6003816004811115612dad57612dad613b74565b03612e055760405162461bcd60e51b815260206004820152602260248201527f45434453413a20696e76616c6964207369676e6174757265202773272076616c604482015261756560f01b6064820152608401610cf9565b6004816004811115612e1957612e19613b74565b036126f15760405162461bcd60e51b815260206004820152602260248201527f45434453413a20696e76616c6964207369676e6174757265202776272076616c604482015261756560f01b6064820152608401610cf9565b6002546001600160a01b038416612eb4576040517f2e07630000000000000000000000000000000000000000000000000000000000815260040160405180910390fd5b82600003612eee576040517fb562e8dd00000000000000000000000000000000000000000000000000000000815260040160405180910390fd5b6001600160a01b038416600081815260076020908152604080832080547fffffffffffffffffffffffffffffffff00000000000000000000000000000000811667ffffffffffffffff8083168b0181169182176801000000000000000067ffffffffffffffff1990941690921783900481168b01811690920217909155858452600690925290912080546001600160e01b0319168317600160a01b42909316929092029190911790558190818501903b15613026575b60405182906001600160a01b038816906000907fddf252ad1be2c89b69c2b068fc378daa952ba7f163c4a11628f55a4df523b3ef908290a4612fef60008784806001019550876132b5565b61300c576040516368d2bf6b60e11b815260040160405180910390fd5b808203612fa457826002541461302157600080fd5b61306b565b5b6040516001830192906001600160a01b038816906000907fddf252ad1be2c89b69c2b068fc378daa952ba7f163c4a11628f55a4df523b3ef908290a4808203613027575b50600255611fa4600085838684565b60006130858261292c565b9050836001600160a01b031681600001516001600160a01b0316146130d6576040517fa114810000000000000000000000000000000000000000000000000000000000815260040160405180910390fd5b6000336001600160a01b03861614806130f457506130f485336124c2565b8061310f57503361310484610c51565b6001600160a01b0316145b905080613148576040517f59c896be00000000000000000000000000000000000000000000000000000000815260040160405180910390fd5b6001600160a01b038416613188576040517fea553b3400000000000000000000000000000000000000000000000000000000815260040160405180910390fd5b61319460008487612893565b6001600160a01b038581166000908152600760209081526040808320805467ffffffffffffffff1980821667ffffffffffffffff92831660001901831617909255898616808652838620805493841693831660019081018416949094179055898652600690945282852080546001600160e01b031916909417600160a01b4290921691909102178355870180845292208054919390911661326a57600254821461326a578054602086015167ffffffffffffffff16600160a01b026001600160e01b03199091166001600160a01b038a16171781555b50505082846001600160a01b0316866001600160a01b03167fddf252ad1be2c89b69c2b068fc378daa952ba7f163c4a11628f55a4df523b3ef60405160405180910390a45050505050565b604051630a85bd0160e11b81526000906001600160a01b0385169063150b7a02906132ea903390899088908890600401613b8a565b6020604051808303816000875af1925050508015613325575060408051601f3d908101601f1916820190925261332291810190613bc6565b60015b613383573d808015613353576040519150601f19603f3d011682016040523d82523d6000602084013e613358565b606091505b50805160000361337b576040516368d2bf6b60e11b815260040160405180910390fd5b805181602001fd5b6001600160e01b031916630a85bd0160e11b149050949350505050565b6000807f7fffffffffffffffffffffffffffffff5d576e7357a4501ddfe92f46681b20a08311156133d75750600090506003613484565b8460ff16601b141580156133ef57508460ff16601c14155b156134005750600090506004613484565b6040805160008082526020820180845289905260ff881692820192909252606081018690526080810185905260019060a0016020604051602081039080840390855afa158015613454573d6000803e3d6000fd5b5050604051601f1901519150506001600160a01b03811661347d57600060019250925050613484565b9150600090505b94509492505050565b6000807f7fffffffffffffffffffffffffffffffffffffffffffffffffffffffffffffff8316816134c360ff86901c601b613a2f565b90506134d1878288856133a0565b935093505050935093915050565b8280546134eb906139c0565b90600052602060002090601f01602090048101928261350d5760008555613553565b82601f106135265782800160ff19823516178555613553565b82800160010185558215613553579182015b82811115613553578235825591602001919060010190613538565b5061355f929150613563565b5090565b5b8082111561355f5760008155600101613564565b6001600160e01b0319811681146126f157600080fd5b6000602082840312156135a057600080fd5b813561204081613578565b6001600160a01b03811681146126f157600080fd5b6000602082840312156135d257600080fd5b8135612040816135ab565b60005b838110156135f85781810151838201526020016135e0565b83811115611fa45750506000910152565b600081518084526136218160208601602086016135dd565b601f01601f19169290920160200192915050565b6020815260006120406020830184613609565b60006020828403121561365a57600080fd5b5035919050565b60008083601f84011261367357600080fd5b50813567ffffffffffffffff81111561368b57600080fd5b602083019150836020828501011115612cb457600080fd5b6000806000604084860312156136b857600080fd5b833567ffffffffffffffff8111156136cf57600080fd5b6136db86828701613661565b909790965060209590950135949350505050565b6000806040838503121561370257600080fd5b823561370d816135ab565b946020939093013593505050565b60008060006060848603121561373057600080fd5b833561373b816135ab565b9250602084013561374b816135ab565b929592945050506040919091013590565b6000806020838503121561376f57600080fd5b823567ffffffffffffffff81111561378657600080fd5b61379285828601613661565b90969095509350505050565b600080600080606085870312156137b457600080fd5b843567ffffffffffffffff8111156137cb57600080fd5b6137d787828801613661565b90989097506020870135966040013595509350505050565b6020808252825182820181905260009190848201906040850190845b818110156138275783518352928401929184019160010161380b565b50909695505050505050565b80151581146126f157600080fd5b6000806040838503121561385457600080fd5b823561385f816135ab565b9150602083013561386f81613833565b809150509250929050565b634e487b7160e01b600052604160045260246000fd5b600080600080608085870312156138a657600080fd5b84356138b1816135ab565b935060208501356138c1816135ab565b925060408501359150606085013567ffffffffffffffff808211156138e557600080fd5b818701915087601f8301126138f957600080fd5b81358181111561390b5761390b61387a565b604051601f8201601f19908116603f011681019083821181831017156139335761393361387a565b816040528281528a602084870101111561394c57600080fd5b82602086016020830137600060208483010152809550505050505092959194509250565b6000806040838503121561398357600080fd5b50508035926020909101359150565b600080604083850312156139a557600080fd5b82356139b0816135ab565b9150602083013561386f816135ab565b600181811c908216806139d457607f821691505b6020821081036139f457634e487b7160e01b600052602260045260246000fd5b50919050565b634e487b7160e01b600052601160045260246000fd5b6000816000190483118215151615613a2a57613a2a6139fa565b500290565b60008219821115613a4257613a426139fa565b500190565b600082821015613a5957613a596139fa565b500390565b634e487b7160e01b600052601260045260246000fd5b600082613a8357613a83613a5e565b500490565b600060018201613a9a57613a9a6139fa565b5060010190565b600082613ab057613ab0613a5e565b500690565b606081528360608201528385608083013760006080858301015260006080601f19601f870116830101905083602083015282604083015295945050505050565b634e487b7160e01b600052603260045260246000fd5b60008351613b1d8184602088016135dd565b835190830190613b318183602088016135dd565b01949350505050565b600060208284031215613b4c57600080fd5b815161204081613833565b600060208284031215613b6957600080fd5b8151612040816135ab565b634e487b7160e01b600052602160045260246000fd5b60006001600160a01b03808716835280861660208401525083604083015260806060830152613bbc6080830184613609565b9695505050505050565b600060208284031215613bd857600080fd5b81516120408161357856fe4f776e61626c653a2063616c6c6572206973206e6f7420746865206f776e6572a2646970667358221220fdfd197848abcd13fb2795a08e662587101752eb1abf71a6a87182654abf65e264736f6c634300080d00334f776e61626c653a2063616c6c6572206973206e6f7420746865206f776e6572",
  "linkReferences": {},
  "deployedLinkReferences": {}
}