{
  "_format": "hh-sol-artifact-1",
  "contractName": "vSamurai",
  "sourceName": "contracts/vSamurai.sol",
  "abi": [
    {
      "inputs": [
        {
          "internalType": "string",
          "name": "_baseUri",
          "type": "string"
        },
        {
          "internalType": "uint256",
          "name": "_maxPerWalletWhitelist",
          "type": "uint256"
        },
        {
          "internalType": "uint256",
          "name": "_maxPerWalletPublicSale",
          "type": "uint256"
        },
        {
          "internalType": "address",
          "name": "_developerAddress",
          "type": "address"
        },
        {
          "internalType": "uint256",
          "name": "_developerFee",
          "type": "uint256"
        },
        {
          "internalType": "address",
          "name": "_proxyRegistryAddress",
          "type": "address"
        },
        {
          "internalType": "address",
          "name": "_owner",
          "type": "address"
        },
        {
          "internalType": "address",
          "name": "_signer",
          "type": "address"
        }
      ],
      "stateMutability": "nonpayable",
      "type": "constructor"
    },
    {
      "inputs": [],
      "name": "ApprovalCallerNotOwnerNorApproved",
      "type": "error"
    },
    {
      "inputs": [],
      "name": "ApprovalQueryForNonexistentToken",
      "type": "error"
    },
    {
      "inputs": [],
      "name": "ApprovalToCurrentOwner",
      "type": "error"
    },
    {
      "inputs": [],
      "name": "ApproveToCaller",
      "type": "error"
    },
    {
      "inputs": [],
      "name": "BalanceQueryForZeroAddress",
      "type": "error"
    },
    {
      "inputs": [],
      "name": "MintToZeroAddress",
      "type": "error"
    },
    {
      "inputs": [],
      "name": "MintZeroQuantity",
      "type": "error"
    },
    {
      "inputs": [],
      "name": "OwnerQueryForNonexistentToken",
      "type": "error"
    },
    {
      "inputs": [],
      "name": "TransferCallerNotOwnerNorApproved",
      "type": "error"
    },
    {
      "inputs": [],
      "name": "TransferFromIncorrectOwner",
      "type": "error"
    },
    {
      "inputs": [],
      "name": "TransferToNonERC721ReceiverImplementer",
      "type": "error"
    },
    {
      "inputs": [],
      "name": "TransferToZeroAddress",
      "type": "error"
    },
    {
      "inputs": [],
      "name": "URIQueryForNonexistentToken",
      "type": "error"
    },
    {
      "anonymous": false,
      "inputs": [
        {
          "indexed": true,
          "internalType": "address",
          "name": "owner",
          "type": "address"
        },
        {
          "indexed": true,
          "internalType": "address",
          "name": "approved",
          "type": "address"
        },
        {
          "indexed": true,
          "internalType": "uint256",
          "name": "tokenId",
          "type": "uint256"
        }
      ],
      "name": "Approval",
      "type": "event"
    },
    {
      "anonymous": false,
      "inputs": [
        {
          "indexed": true,
          "internalType": "address",
          "name": "owner",
          "type": "address"
        },
        {
          "indexed": true,
          "internalType": "address",
          "name": "operator",
          "type": "address"
        },
        {
          "indexed": false,
          "internalType": "bool",
          "name": "approved",
          "type": "bool"
        }
      ],
      "name": "ApprovalForAll",
      "type": "event"
    },
    {
      "anonymous": false,
      "inputs": [
        {
          "indexed": true,
          "internalType": "address",
          "name": "previousOwner",
          "type": "address"
        },
        {
          "indexed": true,
          "internalType": "address",
          "name": "newOwner",
          "type": "address"
        }
      ],
      "name": "OwnershipTransferred",
      "type": "event"
    },
    {
      "anonymous": false,
      "inputs": [
        {
          "indexed": true,
          "internalType": "address",
          "name": "from",
          "type": "address"
        },
        {
          "indexed": true,
          "internalType": "address",
          "name": "to",
          "type": "address"
        },
        {
          "indexed": true,
          "internalType": "uint256",
          "name": "tokenId",
          "type": "uint256"
        }
      ],
      "name": "Transfer",
      "type": "event"
    },
    {
      "inputs": [],
      "name": "BREEDING_ACTIVE",
      "outputs": [
        {
          "internalType": "bool",
          "name": "",
          "type": "bool"
        }
      ],
      "stateMutability": "view",
      "type": "function"
    },
    {
      "inputs": [],
      "name": "BREED_PRICE",
      "outputs": [
        {
          "internalType": "uint256",
          "name": "",
          "type": "uint256"
        }
      ],
      "stateMutability": "view",
      "type": "function"
    },
    {
      "inputs": [],
      "name": "DOMAIN_SEPARATOR",
      "outputs": [
        {
          "internalType": "bytes32",
          "name": "",
          "type": "bytes32"
        }
      ],
      "stateMutability": "view",
      "type": "function"
    },
    {
      "inputs": [],
      "name": "MAX_NFT_CLAIMS",
      "outputs": [
        {
          "internalType": "uint256",
          "name": "",
          "type": "uint256"
        }
      ],
      "stateMutability": "view",
      "type": "function"
    },
    {
      "inputs": [],
      "name": "MAX_SUPPLY",
      "outputs": [
        {
          "internalType": "uint256",
          "name": "",
          "type": "uint256"
        }
      ],
      "stateMutability": "view",
      "type": "function"
    },
    {
      "inputs": [],
      "name": "MINTER_TYPEHASH",
      "outputs": [
        {
          "internalType": "bytes32",
          "name": "",
          "type": "bytes32"
        }
      ],
      "stateMutability": "view",
      "type": "function"
    },
    {
      "inputs": [],
      "name": "NFT_CLAIMED",
      "outputs": [
        {
          "internalType": "uint256",
          "name": "",
          "type": "uint256"
        }
      ],
      "stateMutability": "view",
      "type": "function"
    },
    {
      "inputs": [],
      "name": "NFT_PRICE",
      "outputs": [
        {
          "internalType": "uint256",
          "name": "",
          "type": "uint256"
        }
      ],
      "stateMutability": "view",
      "type": "function"
    },
    {
      "inputs": [],
      "name": "NFT_PRICE_PRESALE",
      "outputs": [
        {
          "internalType": "uint256",
          "name": "",
          "type": "uint256"
        }
      ],
      "stateMutability": "view",
      "type": "function"
    },
    {
      "inputs": [
        {
          "internalType": "address",
          "name": "",
          "type": "address"
        }
      ],
      "name": "addressToMinted",
      "outputs": [
        {
          "internalType": "uint256",
          "name": "",
          "type": "uint256"
        }
      ],
      "stateMutability": "view",
      "type": "function"
    },
    {
      "inputs": [
        {
          "internalType": "address",
          "name": "",
          "type": "address"
        }
      ],
      "name": "addressToWhitelistMinted",
      "outputs": [
        {
          "internalType": "uint256",
          "name": "",
          "type": "uint256"
        }
      ],
      "stateMutability": "view",
      "type": "function"
    },
    {
      "inputs": [
        {
          "internalType": "address",
          "name": "to",
          "type": "address"
        },
        {
          "internalType": "uint256",
          "name": "tokenId",
          "type": "uint256"
        }
      ],
      "name": "approve",
      "outputs": [],
      "stateMutability": "nonpayable",
      "type": "function"
    },
    {
      "inputs": [
        {
          "internalType": "address",
          "name": "owner",
          "type": "address"
        }
      ],
      "name": "balanceOf",
      "outputs": [
        {
          "internalType": "uint256",
          "name": "",
          "type": "uint256"
        }
      ],
      "stateMutability": "view",
      "type": "function"
    },
    {
      "inputs": [],
      "name": "baseTokenURI",
      "outputs": [
        {
          "internalType": "string",
          "name": "",
          "type": "string"
        }
      ],
      "stateMutability": "view",
      "type": "function"
    },
    {
      "inputs": [
        {
          "internalType": "uint256",
          "name": "_male",
          "type": "uint256"
        },
        {
          "internalType": "uint256",
          "name": "_female",
          "type": "uint256"
        }
      ],
      "name": "breed",
      "outputs": [],
      "stateMutability": "nonpayable",
      "type": "function"
    },
    {
      "inputs": [],
      "name": "breedManager",
      "outputs": [
        {
          "internalType": "contract IBreedManager",
          "name": "",
          "type": "address"
        }
      ],
      "stateMutability": "view",
      "type": "function"
    },
    {
      "inputs": [
        {
          "internalType": "address",
          "name": "recipient",
          "type": "address"
        },
        {
          "internalType": "uint256",
          "name": "_quantity",
          "type": "uint256"
        }
      ],
      "name": "devMint",
      "outputs": [],
      "stateMutability": "nonpayable",
      "type": "function"
    },
    {
      "inputs": [],
      "name": "flipBreedingActive",
      "outputs": [],
      "stateMutability": "nonpayable",
      "type": "function"
    },
    {
      "inputs": [],
      "name": "flipPreSaleState",
      "outputs": [],
      "stateMutability": "nonpayable",
      "type": "function"
    },
    {
      "inputs": [
        {
          "internalType": "address",
          "name": "proxyAddress",
          "type": "address"
        }
      ],
      "name": "flipProxyState",
      "outputs": [],
      "stateMutability": "nonpayable",
      "type": "function"
    },
    {
      "inputs": [],
      "name": "flipSaleState",
      "outputs": [],
      "stateMutability": "nonpayable",
      "type": "function"
    },
    {
      "inputs": [
        {
          "internalType": "uint256",
          "name": "tokenId",
          "type": "uint256"
        }
      ],
      "name": "getApproved",
      "outputs": [
        {
          "internalType": "address",
          "name": "",
          "type": "address"
        }
      ],
      "stateMutability": "view",
      "type": "function"
    },
    {
      "inputs": [
        {
          "internalType": "uint256",
          "name": "tokenId",
          "type": "uint256"
        }
      ],
      "name": "getOwnershipData",
      "outputs": [
        {
          "components": [
            {
              "internalType": "address",
              "name": "addr",
              "type": "address"
            },
            {
              "internalType": "uint64",
              "name": "startTimestamp",
              "type": "uint64"
            },
            {
              "internalType": "bool",
              "name": "burned",
              "type": "bool"
            }
          ],
          "internalType": "struct ERC721A.TokenOwnership",
          "name": "",
          "type": "tuple"
        }
      ],
      "stateMutability": "view",
      "type": "function"
    },
    {
      "inputs": [],
      "name": "hasPreSaleStarted",
      "outputs": [
        {
          "internalType": "bool",
          "name": "",
          "type": "bool"
        }
      ],
      "stateMutability": "view",
      "type": "function"
    },
    {
      "inputs": [],
      "name": "hasSaleStarted",
      "outputs": [
        {
          "internalType": "bool",
          "name": "",
          "type": "bool"
        }
      ],
      "stateMutability": "view",
      "type": "function"
    },
    {
      "inputs": [
        {
          "internalType": "address",
          "name": "_owner",
          "type": "address"
        },
        {
          "internalType": "address",
          "name": "operator",
          "type": "address"
        }
      ],
      "name": "isApprovedForAll",
      "outputs": [
        {
          "internalType": "bool",
          "name": "",
          "type": "bool"
        }
      ],
      "stateMutability": "view",
      "type": "function"
    },
    {
      "inputs": [],
      "name": "maxPerWalletPublicSale",
      "outputs": [
        {
          "internalType": "uint256",
          "name": "",
          "type": "uint256"
        }
      ],
      "stateMutability": "view",
      "type": "function"
    },
    {
      "inputs": [],
      "name": "maxPerWalletWhitelist",
      "outputs": [
        {
          "internalType": "uint256",
          "name": "",
          "type": "uint256"
        }
      ],
      "stateMutability": "view",
      "type": "function"
    },
    {
      "inputs": [],
      "name": "name",
      "outputs": [
        {
          "internalType": "string",
          "name": "",
          "type": "string"
        }
      ],
      "stateMutability": "view",
      "type": "function"
    },
    {
      "inputs": [],
      "name": "owner",
      "outputs": [
        {
          "internalType": "address",
          "name": "",
          "type": "address"
        }
      ],
      "stateMutability": "view",
      "type": "function"
    },
    {
      "inputs": [
        {
          "internalType": "uint256",
          "name": "tokenId",
          "type": "uint256"
        }
      ],
      "name": "ownerOf",
      "outputs": [
        {
          "internalType": "address",
          "name": "",
          "type": "address"
        }
      ],
      "stateMutability": "view",
      "type": "function"
    },
    {
      "inputs": [
        {
          "internalType": "address",
          "name": "",
          "type": "address"
        }
      ],
      "name": "projectProxy",
      "outputs": [
        {
          "internalType": "bool",
          "name": "",
          "type": "bool"
        }
      ],
      "stateMutability": "view",
      "type": "function"
    },
    {
      "inputs": [],
      "name": "proxyRegistryAddress",
      "outputs": [
        {
          "internalType": "address",
          "name": "",
          "type": "address"
        }
      ],
      "stateMutability": "view",
      "type": "function"
    },
    {
      "inputs": [
        {
          "internalType": "uint256",
          "name": "_quantity",
          "type": "uint256"
        }
      ],
      "name": "publicSaleMint",
      "outputs": [],
      "stateMutability": "payable",
      "type": "function"
    },
    {
      "inputs": [
        {
          "internalType": "bytes",
          "name": "signature",
          "type": "bytes"
        },
        {
          "internalType": "uint256",
          "name": "_tokenId",
          "type": "uint256"
        },
        {
          "internalType": "uint256",
          "name": "_gender",
          "type": "uint256"
        }
      ],
      "name": "registerGender",
      "outputs": [],
      "stateMutability": "nonpayable",
      "type": "function"
    },
    {
      "inputs": [],
      "name": "renounceOwnership",
      "outputs": [],
      "stateMutability": "nonpayable",
      "type": "function"
    },
    {
      "inputs": [
        {
          "internalType": "address",
          "name": "from",
          "type": "address"
        },
        {
          "internalType": "address",
          "name": "to",
          "type": "address"
        },
        {
          "internalType": "uint256",
          "name": "tokenId",
          "type": "uint256"
        }
      ],
      "name": "safeTransferFrom",
      "outputs": [],
      "stateMutability": "nonpayable",
      "type": "function"
    },
    {
      "inputs": [
        {
          "internalType": "address",
          "name": "from",
          "type": "address"
        },
        {
          "internalType": "address",
          "name": "to",
          "type": "address"
        },
        {
          "internalType": "uint256",
          "name": "tokenId",
          "type": "uint256"
        },
        {
          "internalType": "bytes",
          "name": "_data",
          "type": "bytes"
        }
      ],
      "name": "safeTransferFrom",
      "outputs": [],
      "stateMutability": "nonpayable",
      "type": "function"
    },
    {
      "inputs": [
        {
          "internalType": "address",
          "name": "operator",
          "type": "address"
        },
        {
          "internalType": "bool",
          "name": "approved",
          "type": "bool"
        }
      ],
      "name": "setApprovalForAll",
      "outputs": [],
      "stateMutability": "nonpayable",
      "type": "function"
    },
    {
      "inputs": [
        {
          "internalType": "string",
          "name": "baseURI",
          "type": "string"
        }
      ],
      "name": "setBaseURI",
      "outputs": [],
      "stateMutability": "nonpayable",
      "type": "function"
    },
    {
      "inputs": [
        {
          "internalType": "uint256",
          "name": "_breedPrice",
          "type": "uint256"
        }
      ],
      "name": "setBreedPrice",
      "outputs": [],
      "stateMutability": "nonpayable",
      "type": "function"
    },
    {
      "inputs": [
        {
          "internalType": "address",
          "name": "_manager",
          "type": "address"
        }
      ],
      "name": "setBreedingManager",
      "outputs": [],
      "stateMutability": "nonpayable",
      "type": "function"
    },
    {
      "inputs": [
        {
          "internalType": "address",
          "name": "_developerAddress",
          "type": "address"
        }
      ],
      "name": "setDeveloperPaymentAddress",
      "outputs": [],
      "stateMutability": "nonpayable",
      "type": "function"
    },
    {
      "inputs": [
        {
          "internalType": "uint256",
          "name": "fee",
          "type": "uint256"
        }
      ],
      "name": "setDeveloperPaymentFee",
      "outputs": [],
      "stateMutability": "nonpayable",
      "type": "function"
    },
    {
      "inputs": [
        {
          "internalType": "uint256",
          "name": "nftPrice",
          "type": "uint256"
        }
      ],
      "name": "setMintPrice",
      "outputs": [],
      "stateMutability": "nonpayable",
      "type": "function"
    },
    {
      "inputs": [
        {
          "internalType": "uint256",
          "name": "nftPublicPrice",
          "type": "uint256"
        }
      ],
      "name": "setPresalePrice",
      "outputs": [],
      "stateMutability": "nonpayable",
      "type": "function"
    },
    {
      "inputs": [
        {
          "internalType": "address",
          "name": "_proxyRegistryAddress",
          "type": "address"
        }
      ],
      "name": "setProxyRegistryAddress",
      "outputs": [],
      "stateMutability": "nonpayable",
      "type": "function"
    },
    {
      "inputs": [
        {
          "internalType": "address",
          "name": "newSigningKey",
          "type": "address"
        }
      ],
      "name": "setWhitelistSigningAddress",
      "outputs": [],
      "stateMutability": "nonpayable",
      "type": "function"
    },
    {
      "inputs": [
        {
          "internalType": "address",
          "name": "_yield",
          "type": "address"
        }
      ],
      "name": "setYieldToken",
      "outputs": [],
      "stateMutability": "nonpayable",
      "type": "function"
    },
    {
      "inputs": [
        {
          "internalType": "bytes4",
          "name": "interfaceId",
          "type": "bytes4"
        }
      ],
      "name": "supportsInterface",
      "outputs": [
        {
          "internalType": "bool",
          "name": "",
          "type": "bool"
        }
      ],
      "stateMutability": "view",
      "type": "function"
    },
    {
      "inputs": [],
      "name": "symbol",
      "outputs": [
        {
          "internalType": "string",
          "name": "",
          "type": "string"
        }
      ],
      "stateMutability": "view",
      "type": "function"
    },
    {
      "inputs": [
        {
          "internalType": "uint256",
          "name": "tokenId",
          "type": "uint256"
        }
      ],
      "name": "tokenURI",
      "outputs": [
        {
          "internalType": "string",
          "name": "",
          "type": "string"
        }
      ],
      "stateMutability": "view",
      "type": "function"
    },
    {
      "inputs": [
        {
          "internalType": "address",
          "name": "owner",
          "type": "address"
        }
      ],
      "name": "tokensOfOwner",
      "outputs": [
        {
          "internalType": "uint256[]",
          "name": "",
          "type": "uint256[]"
        }
      ],
      "stateMutability": "view",
      "type": "function"
    },
    {
      "inputs": [],
      "name": "totalSupply",
      "outputs": [
        {
          "internalType": "uint256",
          "name": "",
          "type": "uint256"
        }
      ],
      "stateMutability": "view",
      "type": "function"
    },
    {
      "inputs": [
        {
          "internalType": "address",
          "name": "from",
          "type": "address"
        },
        {
          "internalType": "address",
          "name": "to",
          "type": "address"
        },
        {
          "internalType": "uint256",
          "name": "tokenId",
          "type": "uint256"
        }
      ],
      "name": "transferFrom",
      "outputs": [],
      "stateMutability": "nonpayable",
      "type": "function"
    },
    {
      "inputs": [
        {
          "internalType": "address",
          "name": "newOwner",
          "type": "address"
        }
      ],
      "name": "transferOwnership",
      "outputs": [],
      "stateMutability": "nonpayable",
      "type": "function"
    },
    {
      "inputs": [
        {
          "internalType": "bytes",
          "name": "signature",
          "type": "bytes"
        },
        {
          "internalType": "uint256",
          "name": "_quantity",
          "type": "uint256"
        }
      ],
      "name": "whitelistMint",
      "outputs": [],
      "stateMutability": "payable",
      "type": "function"
    },
    {
      "inputs": [],
      "name": "withdraw",
      "outputs": [],
      "stateMutability": "nonpayable",
      "type": "function"
    },
    {
      "inputs": [],
      "name": "yieldToken",
      "outputs": [
        {
          "internalType": "contract IEDOToken",
          "name": "",
          "type": "address"
        }
      ],
      "stateMutability": "view",
      "type": "function"
    }
  ],
  "bytecode": "0x60c0604052600c80546001600160a01b0319169055600f805460ff60a01b19169055609660105567010a741a4627800060138190556014556018805461ffff19169055601980556000601a553480156200005857600080fd5b5060405162003e7d38038062003e7d8339810160408190526200007b91620004b0565b80604051806040016040528060088152602001677653616d7572616960c01b81525060405180604001604052806002815260200161565360f01b815250620000d2620000cc6200026760201b60201c565b6200026b565b600180558151620000eb906004906020850190620003d7565b50805162000101906005906020840190620003d7565b5060016002555050600c80546001600160a01b0319166001600160a01b038316179055604080518082018252600d81526c15da1a5d195b1a5cdd135a5b9d609a1b6020918201528151808301835260018152603160f81b9082015281517f8b73c3c69bb8fe3d512ecc4cf759cc79239f7b179b0ffacaa9a75d522b39400f918101919091527f67c8313423c530a1c0e73e7591c862f362ecb90b95e1fed6dbefb108ff8329ef918101919091527fc89efdaa54c0f20c7adf612882df0950f5a951637e0307cdcb4c672f298b8bc660608201524660808201523060a082015260c00160408051601f198184030181529190528051602091820120600d5589516200021292506011918b0190620003d7565b50608087905260a0869052601280546001600160a01b0319166001600160a01b0385161790556200024385620002bb565b6200024e84620002e7565b6200025982620002f6565b505050505050505062000633565b3390565b600080546001600160a01b038381166001600160a01b0319831681178455604051919092169283917f8be0079c531659141344cd1fd0a4f28419497f9722a3daafe3b4186f6b6457e09190a35050565b620002c562000379565b600a80546001600160a01b0319166001600160a01b0392909216919091179055565b620002f162000379565b600b55565b6200030062000379565b6001600160a01b0381166200036b5760405162461bcd60e51b815260206004820152602660248201527f4f776e61626c653a206e6577206f776e657220697320746865207a65726f206160448201526564647265737360d01b60648201526084015b60405180910390fd5b62000376816200026b565b50565b6000546001600160a01b03163314620003d55760405162461bcd60e51b815260206004820181905260248201527f4f776e61626c653a2063616c6c6572206973206e6f7420746865206f776e6572604482015260640162000362565b565b828054620003e590620005f7565b90600052602060002090601f01602090048101928262000409576000855562000454565b82601f106200042457805160ff191683800117855562000454565b8280016001018555821562000454579182015b828111156200045457825182559160200191906001019062000437565b506200046292915062000466565b5090565b5b8082111562000462576000815560010162000467565b634e487b7160e01b600052604160045260246000fd5b80516001600160a01b0381168114620004ab57600080fd5b919050565b600080600080600080600080610100898b031215620004ce57600080fd5b88516001600160401b0380821115620004e657600080fd5b818b0191508b601f830112620004fb57600080fd5b8151818111156200051057620005106200047d565b604051601f8201601f19908116603f011681019083821181831017156200053b576200053b6200047d565b81604052828152602093508e848487010111156200055857600080fd5b600091505b828210156200057c57848201840151818301850152908301906200055d565b828211156200058e5760008484830101525b809c50505050808b01519850505060408901519550620005b160608a0162000493565b945060808901519350620005c860a08a0162000493565b9250620005d860c08a0162000493565b9150620005e860e08a0162000493565b90509295985092959890939650565b600181811c908216806200060c57607f821691505b6020821081036200062d57634e487b7160e01b600052602260045260246000fd5b50919050565b60805160a0516137f36200068a600039600081816107ab0152818161164f01528181611687015281816116c501528181611af70152611b7701526000818161058f01528181610f780152610ff801526137f36000f3fe60806040526004361061038c5760003560e01c806371beeba1116101dc578063c8b5d46311610102578063e61eba77116100a0578063f4a0a5281161006f578063f4a0a52814610a8e578063f535f54614610aae578063f73c814b14610ace578063fa4d280c14610aee57600080fd5b8063e61eba7714610a19578063e985e9c514610a39578063f032554914610a59578063f2fde38b14610a6e57600080fd5b8063d26ea6c0116100dc578063d26ea6c0146109a4578063d547cfb7146109c4578063d9ecad7b146109d9578063e0fd53ec146109f957600080fd5b8063c8b5d46314610944578063cd77083314610964578063cd7c03261461098457600080fd5b806395d89b411161017a578063b88d4fde11610149578063b88d4fde146108d8578063b9a49213146108f8578063bf424e7e1461090e578063c87b56dd1461092457600080fd5b806395d89b41146108635780639ec00c9514610878578063a22cb465146108a5578063b3ab66b0146108c557600080fd5b806387b7fcaa116101b657806387b7fcaa1461079957806389303a1b146107cd5780638da5cb5b146107ee5780639231ab2a1461080c57600080fd5b806371beeba11461072c57806376d5de851461074c5780638462151c1461076c57600080fd5b80633644e515116102c15780635bab26e21161025f5780636a5928f51161022e5780636a5928f5146106b85780636b0a36cc146106d757806370a08231146106f7578063715018a61461071757600080fd5b80635bab26e214610632578063627804af146106625780636352211e14610682578063676dd563146106a257600080fd5b80633ccfd60b1161029b5780633ccfd60b146105c757806342842e0e146105dc57806355f804b3146105fc578063577ad34d1461061c57600080fd5b80633644e5151461056757806336a4e19b1461057d5780633a8403bd146105b157600080fd5b80631c8b232d1161032e57806326290eca1161030857806326290eca1461050757806332cb6b0c1461051c57806334918dfd146105325780633549345e1461054757600080fd5b80631c8b232d146104ad57806323b872dd146104c757806323ffce85146104e757600080fd5b8063081812fc1161036a578063081812fc1461042357806308e3f8681461045b578063095ea7b31461047057806318160ddd1461049057600080fd5b806301ffc9a71461039157806305fab7a5146103c657806306fdde0314610401575b600080fd5b34801561039d57600080fd5b506103b16103ac366004613168565b610b22565b60405190151581526020015b60405180910390f35b3480156103d257600080fd5b506103f36103e136600461319a565b60166020526000908152604090205481565b6040519081526020016103bd565b34801561040d57600080fd5b50610416610bbf565b6040516103bd919061320f565b34801561042f57600080fd5b5061044361043e366004613222565b610c51565b6040516001600160a01b0390911681526020016103bd565b61046e61046936600461327d565b610cae565b005b34801561047c57600080fd5b5061046e61048b3660046132c9565b61110d565b34801561049c57600080fd5b5060035460025403600019016103f3565b3480156104b957600080fd5b506018546103b19060ff1681565b3480156104d357600080fd5b5061046e6104e23660046132f5565b6111cc565b3480156104f357600080fd5b5061046e61050236600461319a565b611257565b34801561051357600080fd5b5061046e611281565b34801561052857600080fd5b506103f361271081565b34801561053e57600080fd5b5061046e6112c5565b34801561055357600080fd5b5061046e610562366004613222565b6112e1565b34801561057357600080fd5b506103f3600d5481565b34801561058957600080fd5b506103f37f000000000000000000000000000000000000000000000000000000000000000081565b3480156105bd57600080fd5b506103f360195481565b3480156105d357600080fd5b5061046e6112ee565b3480156105e857600080fd5b5061046e6105f73660046132f5565b6114fc565b34801561060857600080fd5b5061046e610617366004613336565b611517565b34801561062857600080fd5b506103f360145481565b34801561063e57600080fd5b506103b161064d36600461319a565b60156020526000908152604090205460ff1681565b34801561066e57600080fd5b5061046e61067d3660046132c9565b61152b565b34801561068e57600080fd5b5061044361069d366004613222565b611719565b3480156106ae57600080fd5b506103f360135481565b3480156106c457600080fd5b506018546103b190610100900460ff1681565b3480156106e357600080fd5b5061046e6106f2366004613378565b61172b565b34801561070357600080fd5b506103f361071236600461319a565b6117b2565b34801561072357600080fd5b5061046e61181a565b34801561073857600080fd5b5061046e610747366004613222565b61182e565b34801561075857600080fd5b50600e54610443906001600160a01b031681565b34801561077857600080fd5b5061078c61078736600461319a565b61183b565b6040516103bd91906133c9565b3480156107a557600080fd5b506103f37f000000000000000000000000000000000000000000000000000000000000000081565b3480156107d957600080fd5b50600f546103b190600160a01b900460ff1681565b3480156107fa57600080fd5b506000546001600160a01b0316610443565b34801561081857600080fd5b5061082c610827366004613222565b611966565b6040805182516001600160a01b0316815260208084015167ffffffffffffffff1690820152918101511515908201526060016103bd565b34801561086f57600080fd5b5061041661198c565b34801561088457600080fd5b506103f361089336600461319a565b60176020526000908152604090205481565b3480156108b157600080fd5b5061046e6108c036600461341b565b61199b565b61046e6108d3366004613222565b611a49565b3480156108e457600080fd5b5061046e6108f336600461346a565b611cd8565b34801561090457600080fd5b506103f3601a5481565b34801561091a57600080fd5b506103f360105481565b34801561093057600080fd5b5061041661093f366004613222565b611d6a565b34801561095057600080fd5b50600f54610443906001600160a01b031681565b34801561097057600080fd5b5061046e61097f36600461319a565b611e07565b34801561099057600080fd5b50601254610443906001600160a01b031681565b3480156109b057600080fd5b5061046e6109bf36600461319a565b611e31565b3480156109d057600080fd5b50610416611e5b565b3480156109e557600080fd5b5061046e6109f436600461354a565b611ee9565b348015610a0557600080fd5b5061046e610a14366004613222565b61214b565b348015610a2557600080fd5b5061046e610a3436600461319a565b612158565b348015610a4557600080fd5b506103b1610a5436600461356c565b612182565b348015610a6557600080fd5b5061046e61227f565b348015610a7a57600080fd5b5061046e610a8936600461319a565b6122a4565b348015610a9a57600080fd5b5061046e610aa9366004613222565b612334565b348015610aba57600080fd5b5061046e610ac936600461319a565b612341565b348015610ada57600080fd5b5061046e610ae936600461319a565b61236b565b348015610afa57600080fd5b506103f37f68e83002b91b0fd96d4df3566b5122221117e3ec6c2468fda594f6491f89b1c981565b60006001600160e01b031982167f80ac58cd000000000000000000000000000000000000000000000000000000001480610b8557506001600160e01b031982167f5b5e139f00000000000000000000000000000000000000000000000000000000145b80610bb957507f01ffc9a7000000000000000000000000000000000000000000000000000000006001600160e01b03198316145b92915050565b606060048054610bce9061359a565b80601f0160208091040260200160405190810160405280929190818152602001828054610bfa9061359a565b8015610c475780601f10610c1c57610100808354040283529160200191610c47565b820191906000526020600020905b815481529060010190602001808311610c2a57829003601f168201915b5050505050905090565b6000610c5c8261239c565b610c92576040517fcf4700e400000000000000000000000000000000000000000000000000000000815260040160405180910390fd5b506000908152600860205260409020546001600160a01b031690565b323314610d025760405162461bcd60e51b815260206004820152601e60248201527f5468652063616c6c657220697320616e6f7468657220636f6e7472616374000060448201526064015b60405180910390fd5b600c54839083906001600160a01b0316610d5e5760405162461bcd60e51b815260206004820152601560248201527f77686974656c697374206e6f7420656e61626c656400000000000000000000006044820152606401610cf9565b6000600d547f68e83002b91b0fd96d4df3566b5122221117e3ec6c2468fda594f6491f89b1c9610d8b3390565b604051602001610dae9291909182526001600160a01b0316602082015260400190565b60405160208183030381529060405280519060200120604051602001610e069291907f190100000000000000000000000000000000000000000000000000000000000081526002810192909252602282015260420190565b6040516020818303038152906040528051906020012090506000610e6284848080601f01602080910402602001604051908101604052809392919081815260200183838082843760009201919091525086939250506123d59050565b600c549091506001600160a01b03808316911614610ec25760405162461bcd60e51b815260206004820152601160248201527f496e76616c6964205369676e61747572650000000000000000000000000000006044820152606401610cf9565b84601454610ed091906135ea565b341015610f1f5760405162461bcd60e51b815260206004820152601560248201527f496e636f72726563742065746865722076616c756500000000000000000000006044820152606401610cf9565b601854610100900460ff16610f765760405162461bcd60e51b815260206004820152601760248201527f50726573616c6520686173206e6f7420737461727465640000000000000000006044820152606401610cf9565b7f0000000000000000000000000000000000000000000000000000000000000000851115610fe65760405162461bcd60e51b815260206004820152601260248201527f45786365656473206d61782070657220747800000000000000000000000000006044820152606401610cf9565b336000908152601660205260409020547f000000000000000000000000000000000000000000000000000000000000000090611023908790613609565b11156110715760405162461bcd60e51b815260206004820152601860248201527f457863656564732077686974656c69737420737570706c7900000000000000006044820152606401610cf9565b60035460025486919003600019016110899190613609565b60195461109890612710613621565b116110d65760405162461bcd60e51b815260206004820152600e60248201526d4578636565647320737570706c7960901b6044820152606401610cf9565b6110e033866123f9565b33600090815260166020526040812080548792906110ff908490613609565b909155505050505050505050565b600061111882611719565b9050806001600160a01b0316836001600160a01b031603611165576040517f943f7b8c00000000000000000000000000000000000000000000000000000000815260040160405180910390fd5b336001600160a01b0382161480159061118557506111838133612182565b155b156111bc576040517fcfb3b94200000000000000000000000000000000000000000000000000000000815260040160405180910390fd5b6111c7838383612413565b505050565b600e546001600160a01b03161561124c57600e5460405163164746fd60e11b81526001600160a01b03858116600483015284811660248301526044820184905290911690632c8e8dfa90606401600060405180830381600087803b15801561123357600080fd5b505af1158015611247573d6000803e3d6000fd5b505050505b6111c783838361246f565b61125f61247a565b600e80546001600160a01b0319166001600160a01b0392909216919091179055565b61128961247a565b600f80547fffffffffffffffffffffff00ffffffffffffffffffffffffffffffffffffffff8116600160a01b9182900460ff1615909102179055565b6112cd61247a565b6018805460ff19811660ff90911615179055565b6112e961247a565b601455565b6112f661247a565b6002600154036113485760405162461bcd60e51b815260206004820152601f60248201527f5265656e7472616e637947756172643a207265656e7472616e742063616c6c006044820152606401610cf9565b60026001554761139a5760405162461bcd60e51b815260206004820152601a60248201527f436f6e7472616374206d75737420686176652062616c616e63650000000000006044820152606401610cf9565b60006113a74760646124d4565b600a54600b549192506000916001600160a01b03909116906113c990846135ea565b604051600081818185875af1925050503d8060008114611405576040519150601f19603f3d011682016040523d82523d6000602084013e61140a565b606091505b505090508061145b5760405162461bcd60e51b815260206004820152601d60248201527f5061796d656e7420746f20646576656c6f70657273206661696c65642e0000006044820152606401610cf9565b604051600090339047908381818185875af1925050503d806000811461149d576040519150601f19603f3d011682016040523d82523d6000602084013e6114a2565b606091505b50509050806114f35760405162461bcd60e51b815260206004820152601260248201527f5769746864726177616c206661696c65642e00000000000000000000000000006044820152606401610cf9565b50506001805550565b6111c783838360405180602001604052806000815250611cd8565b61151f61247a565b6111c7601183836130b9565b61153361247a565b6019548111156115855760405162461bcd60e51b815260206004820152601260248201527f45786365656473206d617820636c61696d7300000000000000000000000000006044820152606401610cf9565b601954601a546115959083613609565b11156115e35760405162461bcd60e51b815260206004820152601260248201527f45786365656473206d617820636c61696d7300000000000000000000000000006044820152606401610cf9565b60035460025482919003600019016115fb9190613609565b60195461160a90612710613621565b116116485760405162461bcd60e51b815260206004820152600e60248201526d4578636565647320737570706c7960901b6044820152606401610cf9565b60006116747f00000000000000000000000000000000000000000000000000000000000000008361364e565b905060005b818110156116bd576116ab847f00000000000000000000000000000000000000000000000000000000000000006123f9565b806116b581613662565b915050611679565b5060006116ea7f00000000000000000000000000000000000000000000000000000000000000008461367b565b905080156116fc576116fc84826123f9565b82601a600082825461170e9190613609565b909155505050505050565b600061172482612506565b5192915050565b600f546040517f6b0a36cc0000000000000000000000000000000000000000000000000000000081526001600160a01b0390911690636b0a36cc9061177a90879087908790879060040161368f565b600060405180830381600087803b15801561179457600080fd5b505af11580156117a8573d6000803e3d6000fd5b5050505050505050565b60006001600160a01b0382166117f4576040517f8f4eb60400000000000000000000000000000000000000000000000000000000815260040160405180910390fd5b506001600160a01b031660009081526007602052604090205467ffffffffffffffff1690565b61182261247a565b61182c6000612648565b565b61183661247a565b601055565b60606000611848836117b2565b67ffffffffffffffff81111561186057611860613454565b604051908082528060200260200182016040528015611889578160200160208202803683370190505b50600254909150600080805b8381101561195b57600081815260066020908152604091829020825160608101845290546001600160a01b0381168252600160a01b810467ffffffffffffffff1692820192909252600160e01b90910460ff1615801592820192909252906118fd5750611953565b80516001600160a01b03161561191257805192505b876001600160a01b0316836001600160a01b0316036119515781868580600101965081518110611944576119446136cf565b6020026020010181815250505b505b600101611895565b509295945050505050565b6040805160608101825260008082526020820181905291810191909152610bb982612506565b606060058054610bce9061359a565b336001600160a01b038316036119dd576040517fb06307db00000000000000000000000000000000000000000000000000000000815260040160405180910390fd5b3360008181526009602090815260408083206001600160a01b03871680855290835292819020805460ff191686151590811790915590519081529192917f17307eab39ab6107e8899845ad3d59bd9653f200f220920489ca2b5937696c31910160405180910390a35050565b323314611a985760405162461bcd60e51b815260206004820152601e60248201527f5468652063616c6c657220697320616e6f7468657220636f6e747261637400006044820152606401610cf9565b80601354611aa691906135ea565b341015611af55760405162461bcd60e51b815260206004820152601560248201527f496e636f72726563742065746865722076616c756500000000000000000000006044820152606401610cf9565b7f0000000000000000000000000000000000000000000000000000000000000000811115611b655760405162461bcd60e51b815260206004820152601260248201527f45786365656473206d61782070657220747800000000000000000000000000006044820152606401610cf9565b336000908152601760205260409020547f000000000000000000000000000000000000000000000000000000000000000090611ba2908390613609565b1115611bf05760405162461bcd60e51b815260206004820152601d60248201527f45786365656473206d696e747320666f7220746869732077616c6c65740000006044820152606401610cf9565b60185460ff16611c425760405162461bcd60e51b815260206004820152601460248201527f53616c6520686173206e6f7420737461727465640000000000000000000000006044820152606401610cf9565b6003546002548291900360001901611c5a9190613609565b601954611c6990612710613621565b11611ca75760405162461bcd60e51b815260206004820152600e60248201526d4578636565647320737570706c7960901b6044820152606401610cf9565b611cb133826123f9565b3360009081526017602052604081208054839290611cd0908490613609565b909155505050565b600e546001600160a01b031615611d5857600e5460405163164746fd60e11b81526001600160a01b03868116600483015285811660248301526044820185905290911690632c8e8dfa90606401600060405180830381600087803b158015611d3f57600080fd5b505af1158015611d53573d6000803e3d6000fd5b505050505b611d6484848484612698565b50505050565b6060611d758261239c565b611dab576040517fa14c4b5000000000000000000000000000000000000000000000000000000000815260040160405180910390fd5b6000611db56126e3565b90508051600003611dd55760405180602001604052806000815250611e00565b80611ddf846126f2565b604051602001611df09291906136e5565b6040516020818303038152906040525b9392505050565b611e0f61247a565b600c80546001600160a01b0319166001600160a01b0392909216919091179055565b611e3961247a565b601280546001600160a01b0319166001600160a01b0392909216919091179055565b60118054611e689061359a565b80601f0160208091040260200160405190810160405280929190818152602001828054611e949061359a565b8015611ee15780601f10611eb657610100808354040283529160200191611ee1565b820191906000526020600020905b815481529060010190602001808311611ec457829003601f168201915b505050505081565b600f546001600160a01b0316611f415760405162461bcd60e51b815260206004820152601960248201527f4272656164696e6720636f6e7472616374206e6f7420736574000000000000006044820152606401610cf9565b600e546001600160a01b0316611f995760405162461bcd60e51b815260206004820152601360248201527f5969656c6420546f6b656e206e6f7420736574000000000000000000000000006044820152606401610cf9565b600f54600160a01b900460ff16611ff25760405162461bcd60e51b815260206004820152601660248201527f4272656564696e67206973206e6f7420616374697665000000000000000000006044820152606401610cf9565b33611ffc83611719565b6001600160a01b031614801561202257503361201782611719565b6001600160a01b0316145b61202b57600080fd5b600f546040517fd9ecad7b00000000000000000000000000000000000000000000000000000000815260048101849052602481018390526001600160a01b039091169063d9ecad7b906044016020604051808303816000875af1158015612096573d6000803e3d6000fd5b505050506040513d601f19601f820116820180604052508101906120ba9190613714565b6120c357600080fd5b600e546001600160a01b0316639dc29fac336010546040516001600160e01b031960e085901b1681526001600160a01b0390921660048301526024820152604401600060405180830381600087803b15801561211e57600080fd5b505af1158015612132573d6000803e3d6000fd5b505050506121476121403390565b60016123f9565b5050565b61215361247a565b600b55565b61216061247a565b600a80546001600160a01b0319166001600160a01b0392909216919091179055565b6012546040517fc45527910000000000000000000000000000000000000000000000000000000081526001600160a01b03848116600483015260009281169190841690829063c455279190602401602060405180830381865afa1580156121ed573d6000803e3d6000fd5b505050506040513d601f19601f820116820180604052508101906122119190613731565b6001600160a01b0316148061223e57506001600160a01b03831660009081526015602052604090205460ff165b1561224d576001915050610bb9565b6001600160a01b0380851660009081526009602090815260408083209387168352929052205460ff165b949350505050565b61228761247a565b6018805461ff001981166101009182900460ff1615909102179055565b6122ac61247a565b6001600160a01b0381166123285760405162461bcd60e51b815260206004820152602660248201527f4f776e61626c653a206e6577206f776e657220697320746865207a65726f206160448201527f64647265737300000000000000000000000000000000000000000000000000006064820152608401610cf9565b61233181612648565b50565b61233c61247a565b601355565b61234961247a565b600f80546001600160a01b0319166001600160a01b0392909216919091179055565b61237361247a565b6001600160a01b03166000908152601560205260409020805460ff19811660ff90911615179055565b6000816001111580156123b0575060025482105b8015610bb9575050600090815260066020526040902054600160e01b900460ff161590565b60008060006123e48585612827565b915091506123f181612895565b509392505050565b612147828260405180602001604052806000815250612a4b565b60008281526008602052604080822080546001600160a01b0319166001600160a01b0387811691821790925591518593918516917f8c5be1e5ebec7d5bd14f71427d1e84f3dd0314c0f7b2291e5b200ac8c7c3b92591a4505050565b6111c7838383612c54565b6000546001600160a01b0316331461182c5760405162461bcd60e51b815260206004820181905260248201527f4f776e61626c653a2063616c6c6572206973206e6f7420746865206f776e65726044820152606401610cf9565b60006124e0828461367b565b156124ec5760016124ef565b60005b60ff166124fc838561364e565b611e009190613609565b60408051606081018252600080825260208201819052918101919091528180600111158015612536575060025481105b1561261657600081815260066020908152604091829020825160608101845290546001600160a01b0381168252600160a01b810467ffffffffffffffff1692820192909252600160e01b90910460ff161515918101829052906126145780516001600160a01b0316156125aa579392505050565b5060001901600081815260066020908152604091829020825160608101845290546001600160a01b038116808352600160a01b820467ffffffffffffffff1693830193909352600160e01b900460ff161515928101929092521561260f579392505050565b6125aa565b505b6040517fdf2d9b4200000000000000000000000000000000000000000000000000000000815260040160405180910390fd5b600080546001600160a01b038381166001600160a01b0319831681178455604051919092169283917f8be0079c531659141344cd1fd0a4f28419497f9722a3daafe3b4186f6b6457e09190a35050565b6126a3848484612c54565b6001600160a01b0383163b151580156126c557506126c384848484612e8f565b155b15611d64576040516368d2bf6b60e11b815260040160405180910390fd5b606060118054610bce9061359a565b60608160000361273557505060408051808201909152600181527f3000000000000000000000000000000000000000000000000000000000000000602082015290565b8160005b811561275f578061274981613662565b91506127589050600a8361364e565b9150612739565b60008167ffffffffffffffff81111561277a5761277a613454565b6040519080825280601f01601f1916602001820160405280156127a4576020820181803683370190505b5090505b8415612277576127b9600183613621565b91506127c6600a8661367b565b6127d1906030613609565b60f81b8183815181106127e6576127e66136cf565b60200101907effffffffffffffffffffffffffffffffffffffffffffffffffffffffffffff1916908160001a905350612820600a8661364e565b94506127a8565b600080825160410361285d5760208301516040840151606085015160001a61285187828585612f7a565b9450945050505061288e565b8251604003612886576020830151604084015161287b868383613067565b93509350505061288e565b506000905060025b9250929050565b60008160048111156128a9576128a961374e565b036128b15750565b60018160048111156128c5576128c561374e565b036129125760405162461bcd60e51b815260206004820152601860248201527f45434453413a20696e76616c6964207369676e617475726500000000000000006044820152606401610cf9565b60028160048111156129265761292661374e565b036129735760405162461bcd60e51b815260206004820152601f60248201527f45434453413a20696e76616c6964207369676e6174757265206c656e677468006044820152606401610cf9565b60038160048111156129875761298761374e565b036129df5760405162461bcd60e51b815260206004820152602260248201527f45434453413a20696e76616c6964207369676e6174757265202773272076616c604482015261756560f01b6064820152608401610cf9565b60048160048111156129f3576129f361374e565b036123315760405162461bcd60e51b815260206004820152602260248201527f45434453413a20696e76616c6964207369676e6174757265202776272076616c604482015261756560f01b6064820152608401610cf9565b6002546001600160a01b038416612a8e576040517f2e07630000000000000000000000000000000000000000000000000000000000815260040160405180910390fd5b82600003612ac8576040517fb562e8dd00000000000000000000000000000000000000000000000000000000815260040160405180910390fd5b6001600160a01b038416600081815260076020908152604080832080547fffffffffffffffffffffffffffffffff00000000000000000000000000000000811667ffffffffffffffff8083168b0181169182176801000000000000000067ffffffffffffffff1990941690921783900481168b01811690920217909155858452600690925290912080546001600160e01b0319168317600160a01b42909316929092029190911790558190818501903b15612c00575b60405182906001600160a01b038816906000907fddf252ad1be2c89b69c2b068fc378daa952ba7f163c4a11628f55a4df523b3ef908290a4612bc96000878480600101955087612e8f565b612be6576040516368d2bf6b60e11b815260040160405180910390fd5b808203612b7e578260025414612bfb57600080fd5b612c45565b5b6040516001830192906001600160a01b038816906000907fddf252ad1be2c89b69c2b068fc378daa952ba7f163c4a11628f55a4df523b3ef908290a4808203612c01575b50600255611d64600085838684565b6000612c5f82612506565b9050836001600160a01b031681600001516001600160a01b031614612cb0576040517fa114810000000000000000000000000000000000000000000000000000000000815260040160405180910390fd5b6000336001600160a01b0386161480612cce5750612cce8533612182565b80612ce9575033612cde84610c51565b6001600160a01b0316145b905080612d22576040517f59c896be00000000000000000000000000000000000000000000000000000000815260040160405180910390fd5b6001600160a01b038416612d62576040517fea553b3400000000000000000000000000000000000000000000000000000000815260040160405180910390fd5b612d6e60008487612413565b6001600160a01b038581166000908152600760209081526040808320805467ffffffffffffffff1980821667ffffffffffffffff92831660001901831617909255898616808652838620805493841693831660019081018416949094179055898652600690945282852080546001600160e01b031916909417600160a01b42909216919091021783558701808452922080549193909116612e44576002548214612e44578054602086015167ffffffffffffffff16600160a01b026001600160e01b03199091166001600160a01b038a16171781555b50505082846001600160a01b0316866001600160a01b03167fddf252ad1be2c89b69c2b068fc378daa952ba7f163c4a11628f55a4df523b3ef60405160405180910390a45050505050565b604051630a85bd0160e11b81526000906001600160a01b0385169063150b7a0290612ec4903390899088908890600401613764565b6020604051808303816000875af1925050508015612eff575060408051601f3d908101601f19168201909252612efc918101906137a0565b60015b612f5d573d808015612f2d576040519150601f19603f3d011682016040523d82523d6000602084013e612f32565b606091505b508051600003612f55576040516368d2bf6b60e11b815260040160405180910390fd5b805181602001fd5b6001600160e01b031916630a85bd0160e11b149050949350505050565b6000807f7fffffffffffffffffffffffffffffff5d576e7357a4501ddfe92f46681b20a0831115612fb1575060009050600361305e565b8460ff16601b14158015612fc957508460ff16601c14155b15612fda575060009050600461305e565b6040805160008082526020820180845289905260ff881692820192909252606081018690526080810185905260019060a0016020604051602081039080840390855afa15801561302e573d6000803e3d6000fd5b5050604051601f1901519150506001600160a01b0381166130575760006001925092505061305e565b9150600090505b94509492505050565b6000807f7fffffffffffffffffffffffffffffffffffffffffffffffffffffffffffffff83168161309d60ff86901c601b613609565b90506130ab87828885612f7a565b935093505050935093915050565b8280546130c59061359a565b90600052602060002090601f0160209004810192826130e7576000855561312d565b82601f106131005782800160ff1982351617855561312d565b8280016001018555821561312d579182015b8281111561312d578235825591602001919060010190613112565b5061313992915061313d565b5090565b5b80821115613139576000815560010161313e565b6001600160e01b03198116811461233157600080fd5b60006020828403121561317a57600080fd5b8135611e0081613152565b6001600160a01b038116811461233157600080fd5b6000602082840312156131ac57600080fd5b8135611e0081613185565b60005b838110156131d25781810151838201526020016131ba565b83811115611d645750506000910152565b600081518084526131fb8160208601602086016131b7565b601f01601f19169290920160200192915050565b602081526000611e0060208301846131e3565b60006020828403121561323457600080fd5b5035919050565b60008083601f84011261324d57600080fd5b50813567ffffffffffffffff81111561326557600080fd5b60208301915083602082850101111561288e57600080fd5b60008060006040848603121561329257600080fd5b833567ffffffffffffffff8111156132a957600080fd5b6132b58682870161323b565b909790965060209590950135949350505050565b600080604083850312156132dc57600080fd5b82356132e781613185565b946020939093013593505050565b60008060006060848603121561330a57600080fd5b833561331581613185565b9250602084013561332581613185565b929592945050506040919091013590565b6000806020838503121561334957600080fd5b823567ffffffffffffffff81111561336057600080fd5b61336c8582860161323b565b90969095509350505050565b6000806000806060858703121561338e57600080fd5b843567ffffffffffffffff8111156133a557600080fd5b6133b18782880161323b565b90989097506020870135966040013595509350505050565b6020808252825182820181905260009190848201906040850190845b81811015613401578351835292840192918401916001016133e5565b50909695505050505050565b801515811461233157600080fd5b6000806040838503121561342e57600080fd5b823561343981613185565b915060208301356134498161340d565b809150509250929050565b634e487b7160e01b600052604160045260246000fd5b6000806000806080858703121561348057600080fd5b843561348b81613185565b9350602085013561349b81613185565b925060408501359150606085013567ffffffffffffffff808211156134bf57600080fd5b818701915087601f8301126134d357600080fd5b8135818111156134e5576134e5613454565b604051601f8201601f19908116603f0116810190838211818310171561350d5761350d613454565b816040528281528a602084870101111561352657600080fd5b82602086016020830137600060208483010152809550505050505092959194509250565b6000806040838503121561355d57600080fd5b50508035926020909101359150565b6000806040838503121561357f57600080fd5b823561358a81613185565b9150602083013561344981613185565b600181811c908216806135ae57607f821691505b6020821081036135ce57634e487b7160e01b600052602260045260246000fd5b50919050565b634e487b7160e01b600052601160045260246000fd5b6000816000190483118215151615613604576136046135d4565b500290565b6000821982111561361c5761361c6135d4565b500190565b600082821015613633576136336135d4565b500390565b634e487b7160e01b600052601260045260246000fd5b60008261365d5761365d613638565b500490565b600060018201613674576136746135d4565b5060010190565b60008261368a5761368a613638565b500690565b606081528360608201528385608083013760006080858301015260006080601f19601f870116830101905083602083015282604083015295945050505050565b634e487b7160e01b600052603260045260246000fd5b600083516136f78184602088016131b7565b83519083019061370b8183602088016131b7565b01949350505050565b60006020828403121561372657600080fd5b8151611e008161340d565b60006020828403121561374357600080fd5b8151611e0081613185565b634e487b7160e01b600052602160045260246000fd5b60006001600160a01b0380871683528086166020840152508360408301526080606083015261379660808301846131e3565b9695505050505050565b6000602082840312156137b257600080fd5b8151611e008161315256fea2646970667358221220089b00dcd2535782133aa3dca6cbbfd55fc54fe565442877de5c4c5f383817a064736f6c634300080d0033",
  "linkReferences": {},
  "deployedLinkReferences": {}
}