{
  "_format": "hh-sol-artifact-1",
  "contractName": "BreedableMock",
  "sourceName": "contracts/mocks/BreedableMock.sol",
  "abi": [
    {
      "inputs": [],
      "stateMutability": "nonpayable",
      "type": "constructor"
    },
    {
      "inputs": [],
      "name": "ApprovalCallerNotOwnerNorApproved",
      "type": "error"
    },
    {
      "inputs": [],
      "name": "ApprovalQueryForNonexistentToken",
      "type": "error"
    },
    {
      "inputs": [],
      "name": "ApprovalToCurrentOwner",
      "type": "error"
    },
    {
      "inputs": [],
      "name": "ApproveToCaller",
      "type": "error"
    },
    {
      "inputs": [],
      "name": "BalanceQueryForZeroAddress",
      "type": "error"
    },
    {
      "inputs": [],
      "name": "MintToZeroAddress",
      "type": "error"
    },
    {
      "inputs": [],
      "name": "MintZeroQuantity",
      "type": "error"
    },
    {
      "inputs": [],
      "name": "OwnerQueryForNonexistentToken",
      "type": "error"
    },
    {
      "inputs": [],
      "name": "TransferCallerNotOwnerNorApproved",
      "type": "error"
    },
    {
      "inputs": [],
      "name": "TransferFromIncorrectOwner",
      "type": "error"
    },
    {
      "inputs": [],
      "name": "TransferToNonERC721ReceiverImplementer",
      "type": "error"
    },
    {
      "inputs": [],
      "name": "TransferToZeroAddress",
      "type": "error"
    },
    {
      "inputs": [],
      "name": "URIQueryForNonexistentToken",
      "type": "error"
    },
    {
      "anonymous": false,
      "inputs": [
        {
          "indexed": true,
          "internalType": "address",
          "name": "owner",
          "type": "address"
        },
        {
          "indexed": true,
          "internalType": "address",
          "name": "approved",
          "type": "address"
        },
        {
          "indexed": true,
          "internalType": "uint256",
          "name": "tokenId",
          "type": "uint256"
        }
      ],
      "name": "Approval",
      "type": "event"
    },
    {
      "anonymous": false,
      "inputs": [
        {
          "indexed": true,
          "internalType": "address",
          "name": "owner",
          "type": "address"
        },
        {
          "indexed": true,
          "internalType": "address",
          "name": "operator",
          "type": "address"
        },
        {
          "indexed": false,
          "internalType": "bool",
          "name": "approved",
          "type": "bool"
        }
      ],
      "name": "ApprovalForAll",
      "type": "event"
    },
    {
      "anonymous": false,
      "inputs": [
        {
          "indexed": true,
          "internalType": "address",
          "name": "previousOwner",
          "type": "address"
        },
        {
          "indexed": true,
          "internalType": "address",
          "name": "newOwner",
          "type": "address"
        }
      ],
      "name": "OwnershipTransferred",
      "type": "event"
    },
    {
      "anonymous": false,
      "inputs": [
        {
          "indexed": true,
          "internalType": "address",
          "name": "from",
          "type": "address"
        },
        {
          "indexed": true,
          "internalType": "address",
          "name": "to",
          "type": "address"
        },
        {
          "indexed": true,
          "internalType": "uint256",
          "name": "tokenId",
          "type": "uint256"
        }
      ],
      "name": "Transfer",
      "type": "event"
    },
    {
      "inputs": [],
      "name": "BREEDING_ACTIVE",
      "outputs": [
        {
          "internalType": "bool",
          "name": "",
          "type": "bool"
        }
      ],
      "stateMutability": "view",
      "type": "function"
    },
    {
      "inputs": [],
      "name": "BREED_PRICE",
      "outputs": [
        {
          "internalType": "uint256",
          "name": "",
          "type": "uint256"
        }
      ],
      "stateMutability": "view",
      "type": "function"
    },
    {
      "inputs": [
        {
          "internalType": "address",
          "name": "to",
          "type": "address"
        },
        {
          "internalType": "uint256",
          "name": "tokenId",
          "type": "uint256"
        }
      ],
      "name": "approve",
      "outputs": [],
      "stateMutability": "nonpayable",
      "type": "function"
    },
    {
      "inputs": [
        {
          "internalType": "address",
          "name": "owner",
          "type": "address"
        }
      ],
      "name": "balanceOf",
      "outputs": [
        {
          "internalType": "uint256",
          "name": "",
          "type": "uint256"
        }
      ],
      "stateMutability": "view",
      "type": "function"
    },
    {
      "inputs": [
        {
          "internalType": "uint256",
          "name": "_male",
          "type": "uint256"
        },
        {
          "internalType": "uint256",
          "name": "_female",
          "type": "uint256"
        }
      ],
      "name": "breed",
      "outputs": [],
      "stateMutability": "nonpayable",
      "type": "function"
    },
    {
      "inputs": [],
      "name": "breedManager",
      "outputs": [
        {
          "internalType": "contract IBreedManager",
          "name": "",
          "type": "address"
        }
      ],
      "stateMutability": "view",
      "type": "function"
    },
    {
      "inputs": [],
      "name": "flipBreedingActive",
      "outputs": [],
      "stateMutability": "nonpayable",
      "type": "function"
    },
    {
      "inputs": [],
      "name": "flipBreedingActiveTest",
      "outputs": [],
      "stateMutability": "nonpayable",
      "type": "function"
    },
    {
      "inputs": [
        {
          "internalType": "uint256",
          "name": "tokenId",
          "type": "uint256"
        }
      ],
      "name": "getApproved",
      "outputs": [
        {
          "internalType": "address",
          "name": "",
          "type": "address"
        }
      ],
      "stateMutability": "view",
      "type": "function"
    },
    {
      "inputs": [
        {
          "internalType": "address",
          "name": "owner",
          "type": "address"
        },
        {
          "internalType": "address",
          "name": "operator",
          "type": "address"
        }
      ],
      "name": "isApprovedForAll",
      "outputs": [
        {
          "internalType": "bool",
          "name": "",
          "type": "bool"
        }
      ],
      "stateMutability": "view",
      "type": "function"
    },
    {
      "inputs": [],
      "name": "name",
      "outputs": [
        {
          "internalType": "string",
          "name": "",
          "type": "string"
        }
      ],
      "stateMutability": "view",
      "type": "function"
    },
    {
      "inputs": [],
      "name": "owner",
      "outputs": [
        {
          "internalType": "address",
          "name": "",
          "type": "address"
        }
      ],
      "stateMutability": "view",
      "type": "function"
    },
    {
      "inputs": [
        {
          "internalType": "uint256",
          "name": "tokenId",
          "type": "uint256"
        }
      ],
      "name": "ownerOf",
      "outputs": [
        {
          "internalType": "address",
          "name": "",
          "type": "address"
        }
      ],
      "stateMutability": "view",
      "type": "function"
    },
    {
      "inputs": [
        {
          "internalType": "bytes",
          "name": "signature",
          "type": "bytes"
        },
        {
          "internalType": "uint256",
          "name": "_tokenId",
          "type": "uint256"
        },
        {
          "internalType": "uint256",
          "name": "_gender",
          "type": "uint256"
        }
      ],
      "name": "registerGender",
      "outputs": [],
      "stateMutability": "nonpayable",
      "type": "function"
    },
    {
      "inputs": [],
      "name": "renounceOwnership",
      "outputs": [],
      "stateMutability": "nonpayable",
      "type": "function"
    },
    {
      "inputs": [
        {
          "internalType": "address",
          "name": "from",
          "type": "address"
        },
        {
          "internalType": "address",
          "name": "to",
          "type": "address"
        },
        {
          "internalType": "uint256",
          "name": "tokenId",
          "type": "uint256"
        }
      ],
      "name": "safeTransferFrom",
      "outputs": [],
      "stateMutability": "nonpayable",
      "type": "function"
    },
    {
      "inputs": [
        {
          "internalType": "address",
          "name": "from",
          "type": "address"
        },
        {
          "internalType": "address",
          "name": "to",
          "type": "address"
        },
        {
          "internalType": "uint256",
          "name": "tokenId",
          "type": "uint256"
        },
        {
          "internalType": "bytes",
          "name": "_data",
          "type": "bytes"
        }
      ],
      "name": "safeTransferFrom",
      "outputs": [],
      "stateMutability": "nonpayable",
      "type": "function"
    },
    {
      "inputs": [
        {
          "internalType": "address",
          "name": "operator",
          "type": "address"
        },
        {
          "internalType": "bool",
          "name": "approved",
          "type": "bool"
        }
      ],
      "name": "setApprovalForAll",
      "outputs": [],
      "stateMutability": "nonpayable",
      "type": "function"
    },
    {
      "inputs": [
        {
          "internalType": "uint256",
          "name": "_breedPrice",
          "type": "uint256"
        }
      ],
      "name": "setBreedPrice",
      "outputs": [],
      "stateMutability": "nonpayable",
      "type": "function"
    },
    {
      "inputs": [
        {
          "internalType": "uint256",
          "name": "_breedPrice",
          "type": "uint256"
        }
      ],
      "name": "setBreedPriceTest",
      "outputs": [],
      "stateMutability": "nonpayable",
      "type": "function"
    },
    {
      "inputs": [
        {
          "internalType": "address",
          "name": "_manager",
          "type": "address"
        }
      ],
      "name": "setBreedingManager",
      "outputs": [],
      "stateMutability": "nonpayable",
      "type": "function"
    },
    {
      "inputs": [
        {
          "internalType": "address",
          "name": "_manager",
          "type": "address"
        }
      ],
      "name": "setBreedingManagerTest",
      "outputs": [],
      "stateMutability": "nonpayable",
      "type": "function"
    },
    {
      "inputs": [
        {
          "internalType": "address",
          "name": "_address",
          "type": "address"
        }
      ],
      "name": "setTokenAddress",
      "outputs": [],
      "stateMutability": "nonpayable",
      "type": "function"
    },
    {
      "inputs": [
        {
          "internalType": "address",
          "name": "_yield",
          "type": "address"
        }
      ],
      "name": "setYieldToken",
      "outputs": [],
      "stateMutability": "nonpayable",
      "type": "function"
    },
    {
      "inputs": [
        {
          "internalType": "bytes4",
          "name": "interfaceId",
          "type": "bytes4"
        }
      ],
      "name": "supportsInterface",
      "outputs": [
        {
          "internalType": "bool",
          "name": "",
          "type": "bool"
        }
      ],
      "stateMutability": "view",
      "type": "function"
    },
    {
      "inputs": [],
      "name": "symbol",
      "outputs": [
        {
          "internalType": "string",
          "name": "",
          "type": "string"
        }
      ],
      "stateMutability": "view",
      "type": "function"
    },
    {
      "inputs": [
        {
          "internalType": "uint256",
          "name": "_male",
          "type": "uint256"
        },
        {
          "internalType": "uint256",
          "name": "_female",
          "type": "uint256"
        }
      ],
      "name": "testBreed",
      "outputs": [],
      "stateMutability": "nonpayable",
      "type": "function"
    },
    {
      "inputs": [
        {
          "internalType": "uint256",
          "name": "tokenId",
          "type": "uint256"
        }
      ],
      "name": "tokenURI",
      "outputs": [
        {
          "internalType": "string",
          "name": "",
          "type": "string"
        }
      ],
      "stateMutability": "view",
      "type": "function"
    },
    {
      "inputs": [],
      "name": "totalSupply",
      "outputs": [
        {
          "internalType": "uint256",
          "name": "",
          "type": "uint256"
        }
      ],
      "stateMutability": "view",
      "type": "function"
    },
    {
      "inputs": [
        {
          "internalType": "address",
          "name": "from",
          "type": "address"
        },
        {
          "internalType": "address",
          "name": "to",
          "type": "address"
        },
        {
          "internalType": "uint256",
          "name": "tokenId",
          "type": "uint256"
        }
      ],
      "name": "transferFrom",
      "outputs": [],
      "stateMutability": "nonpayable",
      "type": "function"
    },
    {
      "inputs": [
        {
          "internalType": "address",
          "name": "newOwner",
          "type": "address"
        }
      ],
      "name": "transferOwnership",
      "outputs": [],
      "stateMutability": "nonpayable",
      "type": "function"
    },
    {
      "inputs": [],
      "name": "yieldToken",
      "outputs": [
        {
          "internalType": "contract IEDOToken",
          "name": "",
          "type": "address"
        }
      ],
      "stateMutability": "view",
      "type": "function"
    }
  ],
  "bytecode": "0x6080604052600a805460ff60a01b191690556096600b553480156200002357600080fd5b506040518060400160405280600681526020016553564d6f636b60d01b8152506040518060400160405280600381526020016253564d60e81b8152506200007962000073620000b260201b60201c565b620000b6565b81516200008e90600390602085019062000106565b508051620000a490600490602084019062000106565b5050600060015550620001e8565b3390565b600080546001600160a01b038381166001600160a01b0319831681178455604051919092169283917f8be0079c531659141344cd1fd0a4f28419497f9722a3daafe3b4186f6b6457e09190a35050565b8280546200011490620001ac565b90600052602060002090601f01602090048101928262000138576000855562000183565b82601f106200015357805160ff191683800117855562000183565b8280016001018555821562000183579182015b828111156200018357825182559160200191906001019062000166565b506200019192915062000195565b5090565b5b8082111562000191576000815560010162000196565b600181811c90821680620001c157607f821691505b602082108103620001e257634e487b7160e01b600052602260045260246000fd5b50919050565b611e0380620001f86000396000f3fe608060405234801561001057600080fd5b50600436106101f05760003560e01c80637fd62c8f1161010f578063c87b56dd116100a2578063e985e9c511610071578063e985e9c514610428578063f2fde38b14610464578063f535f5461461036d578063fffc63b1146102ae57600080fd5b8063c87b56dd146103ef578063c8b5d46314610402578063d9ecad7b14610415578063de05e58f1461034757600080fd5b80639ac68ac1116100de5780639ac68ac1146103ad578063a22cb465146103c0578063b88d4fde146103d3578063bf424e7e146103e657600080fd5b80637fd62c8f1461036d57806389303a1b146103805780638da5cb5b1461039457806395d89b41146103a557600080fd5b806326a4e8d21161018757806370a082311161015657806370a082311461032c578063715018a61461033f57806371beeba11461034757806376d5de851461035a57600080fd5b806326a4e8d2146102b657806342842e0e146102f35780636352211e146103065780636b0a36cc1461031957600080fd5b806318160ddd116101c357806318160ddd1461027257806323b872dd1461028857806323ffce851461029b57806326290eca146102ae57600080fd5b806301ffc9a7146101f557806306fdde031461021d578063081812fc14610232578063095ea7b31461025d575b600080fd5b6102086102033660046118b3565b610477565b60405190151581526020015b60405180910390f35b610225610514565b6040516102149190611928565b61024561024036600461193b565b6105a6565b6040516001600160a01b039091168152602001610214565b61027061026b366004611970565b610603565b005b600254600154035b604051908152602001610214565b61027061029636600461199a565b6106c2565b6102706102a93660046119d6565b6106cd565b61027061072c565b6102706102c43660046119d6565b6009805473ffffffffffffffffffffffffffffffffffffffff19166001600160a01b0392909216919091179055565b61027061030136600461199a565b6107c2565b61024561031436600461193b565b6107dd565b6102706103273660046119f1565b6107ef565b61027a61033a3660046119d6565b610876565b6102706108de565b61027061035536600461193b565b610944565b600954610245906001600160a01b031681565b61027061037b3660046119d6565b6109a3565b600a5461020890600160a01b900460ff1681565b6000546001600160a01b0316610245565b610225610a2c565b6102706103bb366004611a70565b610a3b565b6102706103ce366004611aa0565b610bab565b6102706103e1366004611aed565b610c59565b61027a600b5481565b6102256103fd36600461193b565b610caa565b600a54610245906001600160a01b031681565b610270610423366004611a70565b610d54565b610208610436366004611bc9565b6001600160a01b03918216600090815260086020908152604080832093909416825291909152205460ff1690565b6102706104723660046119d6565b610f15565b60006001600160e01b031982167f80ac58cd0000000000000000000000000000000000000000000000000000000014806104da57506001600160e01b031982167f5b5e139f00000000000000000000000000000000000000000000000000000000145b8061050e57507f01ffc9a7000000000000000000000000000000000000000000000000000000006001600160e01b03198316145b92915050565b60606003805461052390611bfc565b80601f016020809104026020016040519081016040528092919081815260200182805461054f90611bfc565b801561059c5780601f106105715761010080835404028352916020019161059c565b820191906000526020600020905b81548152906001019060200180831161057f57829003601f168201915b5050505050905090565b60006105b182610ff7565b6105e7576040517fcf4700e400000000000000000000000000000000000000000000000000000000815260040160405180910390fd5b506000908152600760205260409020546001600160a01b031690565b600061060e826107dd565b9050806001600160a01b0316836001600160a01b03160361065b576040517f943f7b8c00000000000000000000000000000000000000000000000000000000815260040160405180910390fd5b336001600160a01b0382161480159061067b57506106798133610436565b155b156106b2576040517fcfb3b94200000000000000000000000000000000000000000000000000000000815260040160405180910390fd5b6106bd838383611023565b505050565b6106bd83838361108c565b6000546001600160a01b031633146102c45760405162461bcd60e51b815260206004820181905260248201527f4f776e61626c653a2063616c6c6572206973206e6f7420746865206f776e657260448201526064015b60405180910390fd5b6000546001600160a01b031633146107865760405162461bcd60e51b815260206004820181905260248201527f4f776e61626c653a2063616c6c6572206973206e6f7420746865206f776e65726044820152606401610723565b600a80547fffffffffffffffffffffff00ffffffffffffffffffffffffffffffffffffffff8116600160a01b9182900460ff1615909102179055565b6106bd83838360405180602001604052806000815250610c59565b60006107e8826112c7565b5192915050565b600a546040517f6b0a36cc0000000000000000000000000000000000000000000000000000000081526001600160a01b0390911690636b0a36cc9061083e908790879087908790600401611c36565b600060405180830381600087803b15801561085857600080fd5b505af115801561086c573d6000803e3d6000fd5b5050505050505050565b60006001600160a01b0382166108b8576040517f8f4eb60400000000000000000000000000000000000000000000000000000000815260040160405180910390fd5b506001600160a01b031660009081526006602052604090205467ffffffffffffffff1690565b6000546001600160a01b031633146109385760405162461bcd60e51b815260206004820181905260248201527f4f776e61626c653a2063616c6c6572206973206e6f7420746865206f776e65726044820152606401610723565b61094260006113fc565b565b6000546001600160a01b0316331461099e5760405162461bcd60e51b815260206004820181905260248201527f4f776e61626c653a2063616c6c6572206973206e6f7420746865206f776e65726044820152606401610723565b600b55565b6000546001600160a01b031633146109fd5760405162461bcd60e51b815260206004820181905260248201527f4f776e61626c653a2063616c6c6572206973206e6f7420746865206f776e65726044820152606401610723565b600a805473ffffffffffffffffffffffffffffffffffffffff19166001600160a01b0392909216919091179055565b60606004805461052390611bfc565b600a5460405163d9ecad7b60e01b815260048101849052602481018390526001600160a01b039091169063d9ecad7b906044016020604051808303816000875af1158015610a8d573d6000803e3d6000fd5b505050506040513d601f19601f82011682018060405250810190610ab19190611c76565b610b235760405162461bcd60e51b815260206004820152602860248201527f596f752063616e6e6f7420627265656420626f7468206f66207468652073616d60448201527f652067656e6465720000000000000000000000000000000000000000000000006064820152608401610723565b6009546001600160a01b0316639dc29fac33600b546040516001600160e01b031960e085901b1681526001600160a01b0390921660048301526024820152604401600060405180830381600087803b158015610b7e57600080fd5b505af1158015610b92573d6000803e3d6000fd5b50505050610ba7610ba03390565b6001611459565b5050565b336001600160a01b03831603610bed576040517fb06307db00000000000000000000000000000000000000000000000000000000815260040160405180910390fd5b3360008181526008602090815260408083206001600160a01b03871680855290835292819020805460ff191686151590811790915590519081529192917f17307eab39ab6107e8899845ad3d59bd9653f200f220920489ca2b5937696c31910160405180910390a35050565b610c6484848461108c565b6001600160a01b0383163b15158015610c865750610c8484848484611473565b155b15610ca4576040516368d2bf6b60e11b815260040160405180910390fd5b50505050565b6060610cb582610ff7565b610ceb576040517fa14c4b5000000000000000000000000000000000000000000000000000000000815260040160405180910390fd5b6000610d0260408051602081019091526000815290565b90508051600003610d225760405180602001604052806000815250610d4d565b80610d2c8461155f565b604051602001610d3d929190611c93565b6040516020818303038152906040525b9392505050565b600a546001600160a01b0316610dac5760405162461bcd60e51b815260206004820152601960248201527f4272656164696e6720636f6e7472616374206e6f7420736574000000000000006044820152606401610723565b6009546001600160a01b0316610e045760405162461bcd60e51b815260206004820152601360248201527f5969656c6420546f6b656e206e6f7420736574000000000000000000000000006044820152606401610723565b600a54600160a01b900460ff16610e5d5760405162461bcd60e51b815260206004820152601660248201527f4272656564696e67206973206e6f7420616374697665000000000000000000006044820152606401610723565b33610e67836107dd565b6001600160a01b0316148015610e8d575033610e82826107dd565b6001600160a01b0316145b610e9657600080fd5b600a5460405163d9ecad7b60e01b815260048101849052602481018390526001600160a01b039091169063d9ecad7b906044016020604051808303816000875af1158015610ee8573d6000803e3d6000fd5b505050506040513d601f19601f82011682018060405250810190610f0c9190611c76565b610b2357600080fd5b6000546001600160a01b03163314610f6f5760405162461bcd60e51b815260206004820181905260248201527f4f776e61626c653a2063616c6c6572206973206e6f7420746865206f776e65726044820152606401610723565b6001600160a01b038116610feb5760405162461bcd60e51b815260206004820152602660248201527f4f776e61626c653a206e6577206f776e657220697320746865207a65726f206160448201527f64647265737300000000000000000000000000000000000000000000000000006064820152608401610723565b610ff4816113fc565b50565b60006001548210801561050e575050600090815260056020526040902054600160e01b900460ff161590565b600082815260076020526040808220805473ffffffffffffffffffffffffffffffffffffffff19166001600160a01b0387811691821790925591518593918516917f8c5be1e5ebec7d5bd14f71427d1e84f3dd0314c0f7b2291e5b200ac8c7c3b92591a4505050565b6000611097826112c7565b9050836001600160a01b031681600001516001600160a01b0316146110e8576040517fa114810000000000000000000000000000000000000000000000000000000000815260040160405180910390fd5b6000336001600160a01b038616148061110657506111068533610436565b80611121575033611116846105a6565b6001600160a01b0316145b90508061115a576040517f59c896be00000000000000000000000000000000000000000000000000000000815260040160405180910390fd5b6001600160a01b03841661119a576040517fea553b3400000000000000000000000000000000000000000000000000000000815260040160405180910390fd5b6111a660008487611023565b6001600160a01b038581166000908152600660209081526040808320805467ffffffffffffffff1980821667ffffffffffffffff92831660001901831617909255898616808652838620805493841693831660019081018416949094179055898652600590945282852080546001600160e01b031916909417600160a01b4290921691909102178355870180845292208054919390911661127c57600154821461127c578054602086015167ffffffffffffffff16600160a01b026001600160e01b03199091166001600160a01b038a16171781555b50505082846001600160a01b0316866001600160a01b03167fddf252ad1be2c89b69c2b068fc378daa952ba7f163c4a11628f55a4df523b3ef60405160405180910390a45050505050565b6040805160608101825260008082526020820181905291810191909152816001548110156113ca57600081815260056020908152604091829020825160608101845290546001600160a01b0381168252600160a01b810467ffffffffffffffff1692820192909252600160e01b90910460ff161515918101829052906113c85780516001600160a01b03161561135e579392505050565b5060001901600081815260056020908152604091829020825160608101845290546001600160a01b038116808352600160a01b820467ffffffffffffffff1693830193909352600160e01b900460ff16151592810192909252156113c3579392505050565b61135e565b505b6040517fdf2d9b4200000000000000000000000000000000000000000000000000000000815260040160405180910390fd5b600080546001600160a01b0383811673ffffffffffffffffffffffffffffffffffffffff19831681178455604051919092169283917f8be0079c531659141344cd1fd0a4f28419497f9722a3daafe3b4186f6b6457e09190a35050565b610ba7828260405180602001604052806000815250611694565b604051630a85bd0160e11b81526000906001600160a01b0385169063150b7a02906114a8903390899088908890600401611cc2565b6020604051808303816000875af19250505080156114e3575060408051601f3d908101601f191682019092526114e091810190611cfe565b60015b611541573d808015611511576040519150601f19603f3d011682016040523d82523d6000602084013e611516565b606091505b508051600003611539576040516368d2bf6b60e11b815260040160405180910390fd5b805181602001fd5b6001600160e01b031916630a85bd0160e11b1490505b949350505050565b6060816000036115a257505060408051808201909152600181527f3000000000000000000000000000000000000000000000000000000000000000602082015290565b8160005b81156115cc57806115b681611d31565b91506115c59050600a83611d60565b91506115a6565b60008167ffffffffffffffff8111156115e7576115e7611ad7565b6040519080825280601f01601f191660200182016040528015611611576020820181803683370190505b5090505b841561155757611626600183611d74565b9150611633600a86611d8b565b61163e906030611d9f565b60f81b81838151811061165357611653611db7565b60200101907effffffffffffffffffffffffffffffffffffffffffffffffffffffffffffff1916908160001a90535061168d600a86611d60565b9450611615565b6001546001600160a01b0384166116d7576040517f2e07630000000000000000000000000000000000000000000000000000000000815260040160405180910390fd5b82600003611711576040517fb562e8dd00000000000000000000000000000000000000000000000000000000815260040160405180910390fd5b6001600160a01b038416600081815260066020908152604080832080547fffffffffffffffffffffffffffffffff00000000000000000000000000000000811667ffffffffffffffff8083168b0181169182176801000000000000000067ffffffffffffffff1990941690921783900481168b01811690920217909155858452600590925290912080546001600160e01b0319168317600160a01b42909316929092029190911790558190818501903b15611849575b60405182906001600160a01b038816906000907fddf252ad1be2c89b69c2b068fc378daa952ba7f163c4a11628f55a4df523b3ef908290a46118126000878480600101955087611473565b61182f576040516368d2bf6b60e11b815260040160405180910390fd5b8082036117c757826001541461184457600080fd5b61188e565b5b6040516001830192906001600160a01b038816906000907fddf252ad1be2c89b69c2b068fc378daa952ba7f163c4a11628f55a4df523b3ef908290a480820361184a575b50600155610ca4600085838684565b6001600160e01b031981168114610ff457600080fd5b6000602082840312156118c557600080fd5b8135610d4d8161189d565b60005b838110156118eb5781810151838201526020016118d3565b83811115610ca45750506000910152565b600081518084526119148160208601602086016118d0565b601f01601f19169290920160200192915050565b602081526000610d4d60208301846118fc565b60006020828403121561194d57600080fd5b5035919050565b80356001600160a01b038116811461196b57600080fd5b919050565b6000806040838503121561198357600080fd5b61198c83611954565b946020939093013593505050565b6000806000606084860312156119af57600080fd5b6119b884611954565b92506119c660208501611954565b9150604084013590509250925092565b6000602082840312156119e857600080fd5b610d4d82611954565b60008060008060608587031215611a0757600080fd5b843567ffffffffffffffff80821115611a1f57600080fd5b818701915087601f830112611a3357600080fd5b813581811115611a4257600080fd5b886020828501011115611a5457600080fd5b6020928301999098509187013596604001359550909350505050565b60008060408385031215611a8357600080fd5b50508035926020909101359150565b8015158114610ff457600080fd5b60008060408385031215611ab357600080fd5b611abc83611954565b91506020830135611acc81611a92565b809150509250929050565b634e487b7160e01b600052604160045260246000fd5b60008060008060808587031215611b0357600080fd5b611b0c85611954565b9350611b1a60208601611954565b925060408501359150606085013567ffffffffffffffff80821115611b3e57600080fd5b818701915087601f830112611b5257600080fd5b813581811115611b6457611b64611ad7565b604051601f8201601f19908116603f01168101908382118183101715611b8c57611b8c611ad7565b816040528281528a6020848701011115611ba557600080fd5b82602086016020830137600060208483010152809550505050505092959194509250565b60008060408385031215611bdc57600080fd5b611be583611954565b9150611bf360208401611954565b90509250929050565b600181811c90821680611c1057607f821691505b602082108103611c3057634e487b7160e01b600052602260045260246000fd5b50919050565b606081528360608201528385608083013760006080858301015260006080601f19601f870116830101905083602083015282604083015295945050505050565b600060208284031215611c8857600080fd5b8151610d4d81611a92565b60008351611ca58184602088016118d0565b835190830190611cb98183602088016118d0565b01949350505050565b60006001600160a01b03808716835280861660208401525083604083015260806060830152611cf460808301846118fc565b9695505050505050565b600060208284031215611d1057600080fd5b8151610d4d8161189d565b634e487b7160e01b600052601160045260246000fd5b600060018201611d4357611d43611d1b565b5060010190565b634e487b7160e01b600052601260045260246000fd5b600082611d6f57611d6f611d4a565b500490565b600082821015611d8657611d86611d1b565b500390565b600082611d9a57611d9a611d4a565b500690565b60008219821115611db257611db2611d1b565b500190565b634e487b7160e01b600052603260045260246000fdfea26469706673582212209d5b525d7533a750b71cd060ffcef61edd5c46dc5599d38c03f3e0853a3b4e2464736f6c634300080d0033",
  "linkReferences": {},
  "deployedLinkReferences": {}
}