{
  "_format": "hh-sol-artifact-1",
  "contractName": "BreedableMock",
  "sourceName": "contracts/mocks/BreedableMock.sol",
  "abi": [
    {
      "inputs": [],
      "stateMutability": "nonpayable",
      "type": "constructor"
    },
    {
      "inputs": [],
      "name": "ApprovalCallerNotOwnerNorApproved",
      "type": "error"
    },
    {
      "inputs": [],
      "name": "ApprovalQueryForNonexistentToken",
      "type": "error"
    },
    {
      "inputs": [],
      "name": "ApprovalToCurrentOwner",
      "type": "error"
    },
    {
      "inputs": [],
      "name": "ApproveToCaller",
      "type": "error"
    },
    {
      "inputs": [],
      "name": "BalanceQueryForZeroAddress",
      "type": "error"
    },
    {
      "inputs": [],
      "name": "MintToZeroAddress",
      "type": "error"
    },
    {
      "inputs": [],
      "name": "MintZeroQuantity",
      "type": "error"
    },
    {
      "inputs": [],
      "name": "OwnerQueryForNonexistentToken",
      "type": "error"
    },
    {
      "inputs": [],
      "name": "TransferCallerNotOwnerNorApproved",
      "type": "error"
    },
    {
      "inputs": [],
      "name": "TransferFromIncorrectOwner",
      "type": "error"
    },
    {
      "inputs": [],
      "name": "TransferToNonERC721ReceiverImplementer",
      "type": "error"
    },
    {
      "inputs": [],
      "name": "TransferToZeroAddress",
      "type": "error"
    },
    {
      "inputs": [],
      "name": "URIQueryForNonexistentToken",
      "type": "error"
    },
    {
      "anonymous": false,
      "inputs": [
        {
          "indexed": true,
          "internalType": "address",
          "name": "owner",
          "type": "address"
        },
        {
          "indexed": true,
          "internalType": "address",
          "name": "approved",
          "type": "address"
        },
        {
          "indexed": true,
          "internalType": "uint256",
          "name": "tokenId",
          "type": "uint256"
        }
      ],
      "name": "Approval",
      "type": "event"
    },
    {
      "anonymous": false,
      "inputs": [
        {
          "indexed": true,
          "internalType": "address",
          "name": "owner",
          "type": "address"
        },
        {
          "indexed": true,
          "internalType": "address",
          "name": "operator",
          "type": "address"
        },
        {
          "indexed": false,
          "internalType": "bool",
          "name": "approved",
          "type": "bool"
        }
      ],
      "name": "ApprovalForAll",
      "type": "event"
    },
    {
      "anonymous": false,
      "inputs": [
        {
          "indexed": true,
          "internalType": "address",
          "name": "previousOwner",
          "type": "address"
        },
        {
          "indexed": true,
          "internalType": "address",
          "name": "newOwner",
          "type": "address"
        }
      ],
      "name": "OwnershipTransferred",
      "type": "event"
    },
    {
      "anonymous": false,
      "inputs": [
        {
          "indexed": true,
          "internalType": "address",
          "name": "from",
          "type": "address"
        },
        {
          "indexed": true,
          "internalType": "address",
          "name": "to",
          "type": "address"
        },
        {
          "indexed": true,
          "internalType": "uint256",
          "name": "tokenId",
          "type": "uint256"
        }
      ],
      "name": "Transfer",
      "type": "event"
    },
    {
      "inputs": [],
      "name": "BREEDING_ACTIVE",
      "outputs": [
        {
          "internalType": "bool",
          "name": "",
          "type": "bool"
        }
      ],
      "stateMutability": "view",
      "type": "function"
    },
    {
      "inputs": [],
      "name": "BREED_PRICE",
      "outputs": [
        {
          "internalType": "uint256",
          "name": "",
          "type": "uint256"
        }
      ],
      "stateMutability": "view",
      "type": "function"
    },
    {
      "inputs": [
        {
          "internalType": "address",
          "name": "to",
          "type": "address"
        },
        {
          "internalType": "uint256",
          "name": "tokenId",
          "type": "uint256"
        }
      ],
      "name": "approve",
      "outputs": [],
      "stateMutability": "nonpayable",
      "type": "function"
    },
    {
      "inputs": [
        {
          "internalType": "address",
          "name": "owner",
          "type": "address"
        }
      ],
      "name": "balanceOf",
      "outputs": [
        {
          "internalType": "uint256",
          "name": "",
          "type": "uint256"
        }
      ],
      "stateMutability": "view",
      "type": "function"
    },
    {
      "inputs": [
        {
          "internalType": "uint256",
          "name": "_male",
          "type": "uint256"
        },
        {
          "internalType": "uint256",
          "name": "_female",
          "type": "uint256"
        }
      ],
      "name": "breed",
      "outputs": [],
      "stateMutability": "nonpayable",
      "type": "function"
    },
    {
      "inputs": [],
      "name": "breedManager",
      "outputs": [
        {
          "internalType": "contract IBreedManager",
          "name": "",
          "type": "address"
        }
      ],
      "stateMutability": "view",
      "type": "function"
    },
    {
      "inputs": [],
      "name": "flipBreedingActive",
      "outputs": [],
      "stateMutability": "nonpayable",
      "type": "function"
    },
    {
      "inputs": [],
      "name": "flipBreedingActiveTest",
      "outputs": [],
      "stateMutability": "nonpayable",
      "type": "function"
    },
    {
      "inputs": [
        {
          "internalType": "uint256",
          "name": "tokenId",
          "type": "uint256"
        }
      ],
      "name": "getApproved",
      "outputs": [
        {
          "internalType": "address",
          "name": "",
          "type": "address"
        }
      ],
      "stateMutability": "view",
      "type": "function"
    },
    {
      "inputs": [
        {
          "internalType": "address",
          "name": "owner",
          "type": "address"
        },
        {
          "internalType": "address",
          "name": "operator",
          "type": "address"
        }
      ],
      "name": "isApprovedForAll",
      "outputs": [
        {
          "internalType": "bool",
          "name": "",
          "type": "bool"
        }
      ],
      "stateMutability": "view",
      "type": "function"
    },
    {
      "inputs": [],
      "name": "name",
      "outputs": [
        {
          "internalType": "string",
          "name": "",
          "type": "string"
        }
      ],
      "stateMutability": "view",
      "type": "function"
    },
    {
      "inputs": [],
      "name": "owner",
      "outputs": [
        {
          "internalType": "address",
          "name": "",
          "type": "address"
        }
      ],
      "stateMutability": "view",
      "type": "function"
    },
    {
      "inputs": [
        {
          "internalType": "uint256",
          "name": "tokenId",
          "type": "uint256"
        }
      ],
      "name": "ownerOf",
      "outputs": [
        {
          "internalType": "address",
          "name": "",
          "type": "address"
        }
      ],
      "stateMutability": "view",
      "type": "function"
    },
    {
      "inputs": [
        {
          "internalType": "bytes",
          "name": "signature",
          "type": "bytes"
        },
        {
          "internalType": "uint256",
          "name": "_tokenId",
          "type": "uint256"
        },
        {
          "internalType": "uint256",
          "name": "_gender",
          "type": "uint256"
        }
      ],
      "name": "registerGender",
      "outputs": [],
      "stateMutability": "nonpayable",
      "type": "function"
    },
    {
      "inputs": [],
      "name": "renounceOwnership",
      "outputs": [],
      "stateMutability": "nonpayable",
      "type": "function"
    },
    {
      "inputs": [
        {
          "internalType": "address",
          "name": "from",
          "type": "address"
        },
        {
          "internalType": "address",
          "name": "to",
          "type": "address"
        },
        {
          "internalType": "uint256",
          "name": "tokenId",
          "type": "uint256"
        }
      ],
      "name": "safeTransferFrom",
      "outputs": [],
      "stateMutability": "nonpayable",
      "type": "function"
    },
    {
      "inputs": [
        {
          "internalType": "address",
          "name": "from",
          "type": "address"
        },
        {
          "internalType": "address",
          "name": "to",
          "type": "address"
        },
        {
          "internalType": "uint256",
          "name": "tokenId",
          "type": "uint256"
        },
        {
          "internalType": "bytes",
          "name": "_data",
          "type": "bytes"
        }
      ],
      "name": "safeTransferFrom",
      "outputs": [],
      "stateMutability": "nonpayable",
      "type": "function"
    },
    {
      "inputs": [
        {
          "internalType": "address",
          "name": "operator",
          "type": "address"
        },
        {
          "internalType": "bool",
          "name": "approved",
          "type": "bool"
        }
      ],
      "name": "setApprovalForAll",
      "outputs": [],
      "stateMutability": "nonpayable",
      "type": "function"
    },
    {
      "inputs": [
        {
          "internalType": "uint256",
          "name": "_breedPrice",
          "type": "uint256"
        }
      ],
      "name": "setBreedPrice",
      "outputs": [],
      "stateMutability": "nonpayable",
      "type": "function"
    },
    {
      "inputs": [
        {
          "internalType": "uint256",
          "name": "_breedPrice",
          "type": "uint256"
        }
      ],
      "name": "setBreedPriceTest",
      "outputs": [],
      "stateMutability": "nonpayable",
      "type": "function"
    },
    {
      "inputs": [
        {
          "internalType": "address",
          "name": "_manager",
          "type": "address"
        }
      ],
      "name": "setBreedingManager",
      "outputs": [],
      "stateMutability": "nonpayable",
      "type": "function"
    },
    {
      "inputs": [
        {
          "internalType": "address",
          "name": "_manager",
          "type": "address"
        }
      ],
      "name": "setBreedingManagerTest",
      "outputs": [],
      "stateMutability": "nonpayable",
      "type": "function"
    },
    {
      "inputs": [
        {
          "internalType": "address",
          "name": "_address",
          "type": "address"
        }
      ],
      "name": "setTokenAddress",
      "outputs": [],
      "stateMutability": "nonpayable",
      "type": "function"
    },
    {
      "inputs": [
        {
          "internalType": "address",
          "name": "_yield",
          "type": "address"
        }
      ],
      "name": "setYieldToken",
      "outputs": [],
      "stateMutability": "nonpayable",
      "type": "function"
    },
    {
      "inputs": [
        {
          "internalType": "bytes4",
          "name": "interfaceId",
          "type": "bytes4"
        }
      ],
      "name": "supportsInterface",
      "outputs": [
        {
          "internalType": "bool",
          "name": "",
          "type": "bool"
        }
      ],
      "stateMutability": "view",
      "type": "function"
    },
    {
      "inputs": [],
      "name": "symbol",
      "outputs": [
        {
          "internalType": "string",
          "name": "",
          "type": "string"
        }
      ],
      "stateMutability": "view",
      "type": "function"
    },
    {
      "inputs": [
        {
          "internalType": "uint256",
          "name": "_male",
          "type": "uint256"
        },
        {
          "internalType": "uint256",
          "name": "_female",
          "type": "uint256"
        }
      ],
      "name": "testBreed",
      "outputs": [],
      "stateMutability": "nonpayable",
      "type": "function"
    },
    {
      "inputs": [
        {
          "internalType": "uint256",
          "name": "tokenId",
          "type": "uint256"
        }
      ],
      "name": "tokenURI",
      "outputs": [
        {
          "internalType": "string",
          "name": "",
          "type": "string"
        }
      ],
      "stateMutability": "view",
      "type": "function"
    },
    {
      "inputs": [],
      "name": "totalSupply",
      "outputs": [
        {
          "internalType": "uint256",
          "name": "",
          "type": "uint256"
        }
      ],
      "stateMutability": "view",
      "type": "function"
    },
    {
      "inputs": [
        {
          "internalType": "address",
          "name": "from",
          "type": "address"
        },
        {
          "internalType": "address",
          "name": "to",
          "type": "address"
        },
        {
          "internalType": "uint256",
          "name": "tokenId",
          "type": "uint256"
        }
      ],
      "name": "transferFrom",
      "outputs": [],
      "stateMutability": "nonpayable",
      "type": "function"
    },
    {
      "inputs": [
        {
          "internalType": "address",
          "name": "newOwner",
          "type": "address"
        }
      ],
      "name": "transferOwnership",
      "outputs": [],
      "stateMutability": "nonpayable",
      "type": "function"
    },
    {
      "inputs": [],
      "name": "yieldToken",
      "outputs": [
        {
          "internalType": "contract IEDOToken",
          "name": "",
          "type": "address"
        }
      ],
      "stateMutability": "view",
      "type": "function"
    }
  ],
  "bytecode": "0x6080604052600a805460ff60a01b191690556096600b553480156200002357600080fd5b506040518060400160405280600681526020016553564d6f636b60d01b8152506040518060400160405280600381526020016253564d60e81b8152506200007962000073620000b260201b60201c565b620000b6565b81516200008e90600390602085019062000106565b508051620000a490600490602084019062000106565b5050600060015550620001e8565b3390565b600080546001600160a01b038381166001600160a01b0319831681178455604051919092169283917f8be0079c531659141344cd1fd0a4f28419497f9722a3daafe3b4186f6b6457e09190a35050565b8280546200011490620001ac565b90600052602060002090601f01602090048101928262000138576000855562000183565b82601f106200015357805160ff191683800117855562000183565b8280016001018555821562000183579182015b828111156200018357825182559160200191906001019062000166565b506200019192915062000195565b5090565b5b8082111562000191576000815560010162000196565b600181811c90821680620001c157607f821691505b602082108103620001e257634e487b7160e01b600052602260045260246000fd5b50919050565b611c7180620001f86000396000f3fe608060405234801561001057600080fd5b50600436106101f05760003560e01c80637fd62c8f1161010f578063c87b56dd116100a2578063e985e9c511610071578063e985e9c514610428578063f2fde38b14610464578063f535f5461461036d578063fffc63b1146102ae57600080fd5b8063c87b56dd146103ef578063c8b5d46314610402578063d9ecad7b14610415578063de05e58f1461034757600080fd5b80639ac68ac1116100de5780639ac68ac1146103ad578063a22cb465146103c0578063b88d4fde146103d3578063bf424e7e146103e657600080fd5b80637fd62c8f1461036d57806389303a1b146103805780638da5cb5b1461039457806395d89b41146103a557600080fd5b806326a4e8d21161018757806370a082311161015657806370a082311461032c578063715018a61461033f57806371beeba11461034757806376d5de851461035a57600080fd5b806326a4e8d2146102b657806342842e0e146102f35780636352211e146103065780636b0a36cc1461031957600080fd5b806318160ddd116101c357806318160ddd1461027257806323b872dd1461028857806323ffce851461029b57806326290eca146102ae57600080fd5b806301ffc9a7146101f557806306fdde031461021d578063081812fc14610232578063095ea7b31461025d575b600080fd5b610208610203366004611721565b610477565b60405190151581526020015b60405180910390f35b610225610514565b6040516102149190611796565b6102456102403660046117a9565b6105a6565b6040516001600160a01b039091168152602001610214565b61027061026b3660046117de565b610603565b005b600254600154035b604051908152602001610214565b610270610296366004611808565b6106c2565b6102706102a9366004611844565b6106cd565b6102706106d5565b6102706102c4366004611844565b6009805473ffffffffffffffffffffffffffffffffffffffff19166001600160a01b0392909216919091179055565b610270610301366004611808565b610719565b6102456103143660046117a9565b610734565b61027061032736600461185f565b610746565b61027a61033a366004611844565b6107cd565b610270610835565b6102706103553660046117a9565b610849565b600954610245906001600160a01b031681565b61027061037b366004611844565b610856565b600a5461020890600160a01b900460ff1681565b6000546001600160a01b0316610245565b61022561088d565b6102706103bb3660046118de565b61089c565b6102706103ce36600461190e565b610a11565b6102706103e136600461195b565b610abf565b61027a600b5481565b6102256103fd3660046117a9565b610b10565b600a54610245906001600160a01b031681565b6102706104233660046118de565b610bba565b610208610436366004611a37565b6001600160a01b03918216600090815260086020908152604080832093909416825291909152205460ff1690565b610270610472366004611844565b610d7b565b60006001600160e01b031982167f80ac58cd0000000000000000000000000000000000000000000000000000000014806104da57506001600160e01b031982167f5b5e139f00000000000000000000000000000000000000000000000000000000145b8061050e57507f01ffc9a7000000000000000000000000000000000000000000000000000000006001600160e01b03198316145b92915050565b60606003805461052390611a6a565b80601f016020809104026020016040519081016040528092919081815260200182805461054f90611a6a565b801561059c5780601f106105715761010080835404028352916020019161059c565b820191906000526020600020905b81548152906001019060200180831161057f57829003601f168201915b5050505050905090565b60006105b182610e0b565b6105e7576040517fcf4700e400000000000000000000000000000000000000000000000000000000815260040160405180910390fd5b506000908152600760205260409020546001600160a01b031690565b600061060e82610734565b9050806001600160a01b0316836001600160a01b03160361065b576040517f943f7b8c00000000000000000000000000000000000000000000000000000000815260040160405180910390fd5b336001600160a01b0382161480159061067b57506106798133610436565b155b156106b2576040517fcfb3b94200000000000000000000000000000000000000000000000000000000815260040160405180910390fd5b6106bd838383610e37565b505050565b6106bd838383610ea0565b6102c46110db565b6106dd6110db565b600a80547fffffffffffffffffffffff00ffffffffffffffffffffffffffffffffffffffff8116600160a01b9182900460ff1615909102179055565b6106bd83838360405180602001604052806000815250610abf565b600061073f82611135565b5192915050565b600a546040517f6b0a36cc0000000000000000000000000000000000000000000000000000000081526001600160a01b0390911690636b0a36cc90610795908790879087908790600401611aa4565b600060405180830381600087803b1580156107af57600080fd5b505af11580156107c3573d6000803e3d6000fd5b5050505050505050565b60006001600160a01b03821661080f576040517f8f4eb60400000000000000000000000000000000000000000000000000000000815260040160405180910390fd5b506001600160a01b031660009081526006602052604090205467ffffffffffffffff1690565b61083d6110db565b610847600061126a565b565b6108516110db565b600b55565b61085e6110db565b600a805473ffffffffffffffffffffffffffffffffffffffff19166001600160a01b0392909216919091179055565b60606004805461052390611a6a565b600a5460405163d9ecad7b60e01b815260048101849052602481018390526001600160a01b039091169063d9ecad7b906044016020604051808303816000875af11580156108ee573d6000803e3d6000fd5b505050506040513d601f19601f820116820180604052508101906109129190611ae4565b6109895760405162461bcd60e51b815260206004820152602860248201527f596f752063616e6e6f7420627265656420626f7468206f66207468652073616d60448201527f652067656e64657200000000000000000000000000000000000000000000000060648201526084015b60405180910390fd5b6009546001600160a01b0316639dc29fac33600b546040516001600160e01b031960e085901b1681526001600160a01b0390921660048301526024820152604401600060405180830381600087803b1580156109e457600080fd5b505af11580156109f8573d6000803e3d6000fd5b50505050610a0d610a063390565b60016112c7565b5050565b336001600160a01b03831603610a53576040517fb06307db00000000000000000000000000000000000000000000000000000000815260040160405180910390fd5b3360008181526008602090815260408083206001600160a01b03871680855290835292819020805460ff191686151590811790915590519081529192917f17307eab39ab6107e8899845ad3d59bd9653f200f220920489ca2b5937696c31910160405180910390a35050565b610aca848484610ea0565b6001600160a01b0383163b15158015610aec5750610aea848484846112e1565b155b15610b0a576040516368d2bf6b60e11b815260040160405180910390fd5b50505050565b6060610b1b82610e0b565b610b51576040517fa14c4b5000000000000000000000000000000000000000000000000000000000815260040160405180910390fd5b6000610b6860408051602081019091526000815290565b90508051600003610b885760405180602001604052806000815250610bb3565b80610b92846113cd565b604051602001610ba3929190611b01565b6040516020818303038152906040525b9392505050565b600a546001600160a01b0316610c125760405162461bcd60e51b815260206004820152601960248201527f4272656164696e6720636f6e7472616374206e6f7420736574000000000000006044820152606401610980565b6009546001600160a01b0316610c6a5760405162461bcd60e51b815260206004820152601360248201527f5969656c6420546f6b656e206e6f7420736574000000000000000000000000006044820152606401610980565b600a54600160a01b900460ff16610cc35760405162461bcd60e51b815260206004820152601660248201527f4272656564696e67206973206e6f7420616374697665000000000000000000006044820152606401610980565b33610ccd83610734565b6001600160a01b0316148015610cf3575033610ce882610734565b6001600160a01b0316145b610cfc57600080fd5b600a5460405163d9ecad7b60e01b815260048101849052602481018390526001600160a01b039091169063d9ecad7b906044016020604051808303816000875af1158015610d4e573d6000803e3d6000fd5b505050506040513d601f19601f82011682018060405250810190610d729190611ae4565b61098957600080fd5b610d836110db565b6001600160a01b038116610dff5760405162461bcd60e51b815260206004820152602660248201527f4f776e61626c653a206e6577206f776e657220697320746865207a65726f206160448201527f64647265737300000000000000000000000000000000000000000000000000006064820152608401610980565b610e088161126a565b50565b60006001548210801561050e575050600090815260056020526040902054600160e01b900460ff161590565b600082815260076020526040808220805473ffffffffffffffffffffffffffffffffffffffff19166001600160a01b0387811691821790925591518593918516917f8c5be1e5ebec7d5bd14f71427d1e84f3dd0314c0f7b2291e5b200ac8c7c3b92591a4505050565b6000610eab82611135565b9050836001600160a01b031681600001516001600160a01b031614610efc576040517fa114810000000000000000000000000000000000000000000000000000000000815260040160405180910390fd5b6000336001600160a01b0386161480610f1a5750610f1a8533610436565b80610f35575033610f2a846105a6565b6001600160a01b0316145b905080610f6e576040517f59c896be00000000000000000000000000000000000000000000000000000000815260040160405180910390fd5b6001600160a01b038416610fae576040517fea553b3400000000000000000000000000000000000000000000000000000000815260040160405180910390fd5b610fba60008487610e37565b6001600160a01b038581166000908152600660209081526040808320805467ffffffffffffffff1980821667ffffffffffffffff92831660001901831617909255898616808652838620805493841693831660019081018416949094179055898652600590945282852080546001600160e01b031916909417600160a01b42909216919091021783558701808452922080549193909116611090576001548214611090578054602086015167ffffffffffffffff16600160a01b026001600160e01b03199091166001600160a01b038a16171781555b50505082846001600160a01b0316866001600160a01b03167fddf252ad1be2c89b69c2b068fc378daa952ba7f163c4a11628f55a4df523b3ef60405160405180910390a45050505050565b6000546001600160a01b031633146108475760405162461bcd60e51b815260206004820181905260248201527f4f776e61626c653a2063616c6c6572206973206e6f7420746865206f776e65726044820152606401610980565b60408051606081018252600080825260208201819052918101919091528160015481101561123857600081815260056020908152604091829020825160608101845290546001600160a01b0381168252600160a01b810467ffffffffffffffff1692820192909252600160e01b90910460ff161515918101829052906112365780516001600160a01b0316156111cc579392505050565b5060001901600081815260056020908152604091829020825160608101845290546001600160a01b038116808352600160a01b820467ffffffffffffffff1693830193909352600160e01b900460ff1615159281019290925215611231579392505050565b6111cc565b505b6040517fdf2d9b4200000000000000000000000000000000000000000000000000000000815260040160405180910390fd5b600080546001600160a01b0383811673ffffffffffffffffffffffffffffffffffffffff19831681178455604051919092169283917f8be0079c531659141344cd1fd0a4f28419497f9722a3daafe3b4186f6b6457e09190a35050565b610a0d828260405180602001604052806000815250611502565b604051630a85bd0160e11b81526000906001600160a01b0385169063150b7a0290611316903390899088908890600401611b30565b6020604051808303816000875af1925050508015611351575060408051601f3d908101601f1916820190925261134e91810190611b6c565b60015b6113af573d80801561137f576040519150601f19603f3d011682016040523d82523d6000602084013e611384565b606091505b5080516000036113a7576040516368d2bf6b60e11b815260040160405180910390fd5b805181602001fd5b6001600160e01b031916630a85bd0160e11b1490505b949350505050565b60608160000361141057505060408051808201909152600181527f3000000000000000000000000000000000000000000000000000000000000000602082015290565b8160005b811561143a578061142481611b9f565b91506114339050600a83611bce565b9150611414565b60008167ffffffffffffffff81111561145557611455611945565b6040519080825280601f01601f19166020018201604052801561147f576020820181803683370190505b5090505b84156113c557611494600183611be2565b91506114a1600a86611bf9565b6114ac906030611c0d565b60f81b8183815181106114c1576114c1611c25565b60200101907effffffffffffffffffffffffffffffffffffffffffffffffffffffffffffff1916908160001a9053506114fb600a86611bce565b9450611483565b6001546001600160a01b038416611545576040517f2e07630000000000000000000000000000000000000000000000000000000000815260040160405180910390fd5b8260000361157f576040517fb562e8dd00000000000000000000000000000000000000000000000000000000815260040160405180910390fd5b6001600160a01b038416600081815260066020908152604080832080547fffffffffffffffffffffffffffffffff00000000000000000000000000000000811667ffffffffffffffff8083168b0181169182176801000000000000000067ffffffffffffffff1990941690921783900481168b01811690920217909155858452600590925290912080546001600160e01b0319168317600160a01b42909316929092029190911790558190818501903b156116b7575b60405182906001600160a01b038816906000907fddf252ad1be2c89b69c2b068fc378daa952ba7f163c4a11628f55a4df523b3ef908290a461168060008784806001019550876112e1565b61169d576040516368d2bf6b60e11b815260040160405180910390fd5b8082036116355782600154146116b257600080fd5b6116fc565b5b6040516001830192906001600160a01b038816906000907fddf252ad1be2c89b69c2b068fc378daa952ba7f163c4a11628f55a4df523b3ef908290a48082036116b8575b50600155610b0a600085838684565b6001600160e01b031981168114610e0857600080fd5b60006020828403121561173357600080fd5b8135610bb38161170b565b60005b83811015611759578181015183820152602001611741565b83811115610b0a5750506000910152565b6000815180845261178281602086016020860161173e565b601f01601f19169290920160200192915050565b602081526000610bb3602083018461176a565b6000602082840312156117bb57600080fd5b5035919050565b80356001600160a01b03811681146117d957600080fd5b919050565b600080604083850312156117f157600080fd5b6117fa836117c2565b946020939093013593505050565b60008060006060848603121561181d57600080fd5b611826846117c2565b9250611834602085016117c2565b9150604084013590509250925092565b60006020828403121561185657600080fd5b610bb3826117c2565b6000806000806060858703121561187557600080fd5b843567ffffffffffffffff8082111561188d57600080fd5b818701915087601f8301126118a157600080fd5b8135818111156118b057600080fd5b8860208285010111156118c257600080fd5b6020928301999098509187013596604001359550909350505050565b600080604083850312156118f157600080fd5b50508035926020909101359150565b8015158114610e0857600080fd5b6000806040838503121561192157600080fd5b61192a836117c2565b9150602083013561193a81611900565b809150509250929050565b634e487b7160e01b600052604160045260246000fd5b6000806000806080858703121561197157600080fd5b61197a856117c2565b9350611988602086016117c2565b925060408501359150606085013567ffffffffffffffff808211156119ac57600080fd5b818701915087601f8301126119c057600080fd5b8135818111156119d2576119d2611945565b604051601f8201601f19908116603f011681019083821181831017156119fa576119fa611945565b816040528281528a6020848701011115611a1357600080fd5b82602086016020830137600060208483010152809550505050505092959194509250565b60008060408385031215611a4a57600080fd5b611a53836117c2565b9150611a61602084016117c2565b90509250929050565b600181811c90821680611a7e57607f821691505b602082108103611a9e57634e487b7160e01b600052602260045260246000fd5b50919050565b606081528360608201528385608083013760006080858301015260006080601f19601f870116830101905083602083015282604083015295945050505050565b600060208284031215611af657600080fd5b8151610bb381611900565b60008351611b1381846020880161173e565b835190830190611b2781836020880161173e565b01949350505050565b60006001600160a01b03808716835280861660208401525083604083015260806060830152611b62608083018461176a565b9695505050505050565b600060208284031215611b7e57600080fd5b8151610bb38161170b565b634e487b7160e01b600052601160045260246000fd5b600060018201611bb157611bb1611b89565b5060010190565b634e487b7160e01b600052601260045260246000fd5b600082611bdd57611bdd611bb8565b500490565b600082821015611bf457611bf4611b89565b500390565b600082611c0857611c08611bb8565b500690565b60008219821115611c2057611c20611b89565b500190565b634e487b7160e01b600052603260045260246000fdfea2646970667358221220ea1c9ab674b1319b6f04a6fa134778289a85d2689d6dce7a95d1acf29952127364736f6c634300080d0033",
  "linkReferences": {},
  "deployedLinkReferences": {}
}