{
  "_format": "hh-sol-artifact-1",
  "contractName": "yieldTokenMock",
  "sourceName": "contracts/mocks/BreedableMock.sol",
  "abi": [
    {
      "inputs": [],
      "stateMutability": "nonpayable",
      "type": "constructor"
    },
    {
      "anonymous": false,
      "inputs": [
        {
          "indexed": true,
          "internalType": "address",
          "name": "from",
          "type": "address"
        },
        {
          "indexed": false,
          "internalType": "uint256",
          "name": "reward",
          "type": "uint256"
        }
      ],
      "name": "RewardClaimed",
      "type": "event"
    },
    {
      "inputs": [
        {
          "internalType": "address",
          "name": "_from",
          "type": "address"
        },
        {
          "internalType": "uint256",
          "name": "_amount",
          "type": "uint256"
        }
      ],
      "name": "burn",
      "outputs": [],
      "stateMutability": "nonpayable",
      "type": "function"
    },
    {
      "inputs": [
        {
          "internalType": "address",
          "name": "_from",
          "type": "address"
        },
        {
          "internalType": "uint256",
          "name": "_tokenId",
          "type": "uint256"
        }
      ],
      "name": "getReward",
      "outputs": [],
      "stateMutability": "nonpayable",
      "type": "function"
    },
    {
      "inputs": [
        {
          "internalType": "address",
          "name": "_from",
          "type": "address"
        },
        {
          "internalType": "uint256",
          "name": "_tokenId",
          "type": "uint256"
        }
      ],
      "name": "getTotalClaimable",
      "outputs": [
        {
          "internalType": "uint256",
          "name": "",
          "type": "uint256"
        }
      ],
      "stateMutability": "view",
      "type": "function"
    },
    {
      "inputs": [
        {
          "internalType": "address",
          "name": "_from",
          "type": "address"
        },
        {
          "internalType": "address",
          "name": "_to",
          "type": "address"
        },
        {
          "internalType": "uint256",
          "name": "_tokenId",
          "type": "uint256"
        }
      ],
      "name": "updateReward",
      "outputs": [],
      "stateMutability": "nonpayable",
      "type": "function"
    }
  ],
  "bytecode": "0x608060405234801561001057600080fd5b50610165806100206000396000f3fe608060405234801561001057600080fd5b506004361061004c5760003560e01c80632c8e8dfa146100515780633d0f2200146100665780639dc29fac1461008e578063f474c8ce1461008e575b600080fd5b61006461005f3660046100c9565b505050565b005b61007c610074366004610105565b600092915050565b60405190815260200160405180910390f35b61006461009c366004610105565b5050565b803573ffffffffffffffffffffffffffffffffffffffff811681146100c457600080fd5b919050565b6000806000606084860312156100de57600080fd5b6100e7846100a0565b92506100f5602085016100a0565b9150604084013590509250925092565b6000806040838503121561011857600080fd5b610121836100a0565b94602093909301359350505056fea26469706673582212204017a4e87230e15cb87566675d98d708f10ed382631c5e300ab62dedf70b36fd64736f6c634300080d0033",
  "linkReferences": {},
  "deployedLinkReferences": {}
}