{
  "_format": "hh-sol-artifact-1",
  "contractName": "BreedingManager",
  "sourceName": "contracts/BreedingManager.sol",
  "abi": [
    {
      "inputs": [
        {
          "internalType": "address",
          "name": "_vsamurai",
          "type": "address"
        },
        {
          "internalType": "address",
          "name": "_newOwner",
          "type": "address"
        },
        {
          "internalType": "address",
          "name": "_signingKey",
          "type": "address"
        }
      ],
      "stateMutability": "nonpayable",
      "type": "constructor"
    },
    {
      "anonymous": false,
      "inputs": [
        {
          "indexed": true,
          "internalType": "address",
          "name": "previousOwner",
          "type": "address"
        },
        {
          "indexed": true,
          "internalType": "address",
          "name": "newOwner",
          "type": "address"
        }
      ],
      "name": "OwnershipTransferred",
      "type": "event"
    },
    {
      "inputs": [],
      "name": "DOMAIN_SEPARATOR",
      "outputs": [
        {
          "internalType": "bytes32",
          "name": "",
          "type": "bytes32"
        }
      ],
      "stateMutability": "view",
      "type": "function"
    },
    {
      "inputs": [],
      "name": "SIGNUP_FOR_BREEDING_TYPEHASH",
      "outputs": [
        {
          "internalType": "bytes32",
          "name": "",
          "type": "bytes32"
        }
      ],
      "stateMutability": "view",
      "type": "function"
    },
    {
      "inputs": [
        {
          "internalType": "uint256",
          "name": "_male",
          "type": "uint256"
        },
        {
          "internalType": "uint256",
          "name": "_female",
          "type": "uint256"
        }
      ],
      "name": "breed",
      "outputs": [
        {
          "internalType": "bool",
          "name": "",
          "type": "bool"
        }
      ],
      "stateMutability": "view",
      "type": "function"
    },
    {
      "inputs": [
        {
          "internalType": "uint256",
          "name": "",
          "type": "uint256"
        }
      ],
      "name": "gender",
      "outputs": [
        {
          "internalType": "uint256",
          "name": "",
          "type": "uint256"
        }
      ],
      "stateMutability": "view",
      "type": "function"
    },
    {
      "inputs": [],
      "name": "owner",
      "outputs": [
        {
          "internalType": "address",
          "name": "",
          "type": "address"
        }
      ],
      "stateMutability": "view",
      "type": "function"
    },
    {
      "inputs": [
        {
          "internalType": "bytes",
          "name": "signature",
          "type": "bytes"
        },
        {
          "internalType": "uint256",
          "name": "_tokenId",
          "type": "uint256"
        },
        {
          "internalType": "uint256",
          "name": "_gender",
          "type": "uint256"
        }
      ],
      "name": "registerGender",
      "outputs": [],
      "stateMutability": "nonpayable",
      "type": "function"
    },
    {
      "inputs": [],
      "name": "renounceOwnership",
      "outputs": [],
      "stateMutability": "nonpayable",
      "type": "function"
    },
    {
      "inputs": [],
      "name": "signingKey",
      "outputs": [
        {
          "internalType": "address",
          "name": "",
          "type": "address"
        }
      ],
      "stateMutability": "view",
      "type": "function"
    },
    {
      "inputs": [
        {
          "internalType": "address",
          "name": "newOwner",
          "type": "address"
        }
      ],
      "name": "transferOwnership",
      "outputs": [],
      "stateMutability": "nonpayable",
      "type": "function"
    },
    {
      "inputs": [],
      "name": "vSamuraiContract",
      "outputs": [
        {
          "internalType": "contract IERC721",
          "name": "",
          "type": "address"
        }
      ],
      "stateMutability": "view",
      "type": "function"
    }
  ],
  "bytecode": "0x6080604052600480546001600160a01b031916905534801561002057600080fd5b50604051610cdb380380610cdb83398101604081905261003f916101d9565b6100483361016d565b600480546001600160a01b038084166001600160a01b03199283161790925560018054928616929091169190911790556100818261016d565b5050604080518082018252601381527f5265676973746572466f724272656564696e67000000000000000000000000006020918201528151808301835260018152603160f81b9082015281517f8b73c3c69bb8fe3d512ecc4cf759cc79239f7b179b0ffacaa9a75d522b39400f818301527ff5db6fd9e92704ef630ca54aa65b4a5177461877e74caace6a6faa537e196b28818401527fc89efdaa54c0f20c7adf612882df0950f5a951637e0307cdcb4c672f298b8bc660608201524660808201523060a0808301919091528351808303909101815260c090910190925281519101206002555061021c565b600080546001600160a01b038381166001600160a01b0319831681178455604051919092169283917f8be0079c531659141344cd1fd0a4f28419497f9722a3daafe3b4186f6b6457e09190a35050565b80516001600160a01b03811681146101d457600080fd5b919050565b6000806000606084860312156101ee57600080fd5b6101f7846101bd565b9250610205602085016101bd565b9150610213604085016101bd565b90509250925092565b610ab08061022b6000396000f3fe608060405234801561001057600080fd5b50600436106100be5760003560e01c80637ea517f1116100765780638da5cb5b1161005b5780638da5cb5b14610181578063d9ecad7b14610192578063f2fde38b146101b557600080fd5b80637ea517f11461013a578063821e95421461015a57600080fd5b806366f27fd3116100a757806366f27fd31461010a5780636b0a36cc1461011d578063715018a61461013257600080fd5b80630e5a8eec146100c35780633644e515146100f3575b600080fd5b6001546100d6906001600160a01b031681565b6040516001600160a01b0390911681526020015b60405180910390f35b6100fc60025481565b6040519081526020016100ea565b6004546100d6906001600160a01b031681565b61013061012b366004610954565b6101c8565b005b610130610358565b6100fc6101483660046109d3565b60036020526000908152604090205481565b6100fc7f86813ede0dbb72e3faf28da9e1ee21f49dc951cab83d22d778b5870ba07749d281565b6000546001600160a01b03166100d6565b6101a56101a03660046109ec565b6103be565b60405190151581526020016100ea565b6101306101c3366004610a0e565b610483565b8383838360006002547f86813ede0dbb72e3faf28da9e1ee21f49dc951cab83d22d778b5870ba07749d26101f93390565b6040805160208101939093526001600160a01b0390911690820152606081018590526080810184905260a0016040516020818303038152906040528051906020012060405160200161027d9291907f190100000000000000000000000000000000000000000000000000000000000081526002810192909252602282015260420190565b60405160208183030381529060405280519060200120905060006102d986868080601f01602080910402602001604051908101604052809392919081815260200183838082843760009201919091525086939250506105659050565b6004549091506001600160a01b0380831691161461033e5760405162461bcd60e51b815260206004820152601160248201527f496e76616c6964205369676e617475726500000000000000000000000000000060448201526064015b60405180910390fd5b505050600094855250506003602052506040909120555050565b6000546001600160a01b031633146103b25760405162461bcd60e51b815260206004820181905260248201527f4f776e61626c653a2063616c6c6572206973206e6f7420746865206f776e65726044820152606401610335565b6103bc6000610589565b565b60008281526003602052604081205460011461041c5760405162461bcd60e51b815260206004820152600f60248201527f4e4654206973206e6f74206d616c6500000000000000000000000000000000006044820152606401610335565b60008281526003602052604090205460021461047a5760405162461bcd60e51b815260206004820152601160248201527f4e4654206973206e6f742066656d616c650000000000000000000000000000006044820152606401610335565b50600192915050565b6000546001600160a01b031633146104dd5760405162461bcd60e51b815260206004820181905260248201527f4f776e61626c653a2063616c6c6572206973206e6f7420746865206f776e65726044820152606401610335565b6001600160a01b0381166105595760405162461bcd60e51b815260206004820152602660248201527f4f776e61626c653a206e6577206f776e657220697320746865207a65726f206160448201527f64647265737300000000000000000000000000000000000000000000000000006064820152608401610335565b61056281610589565b50565b600080600061057485856105f1565b915091506105818161065f565b509392505050565b600080546001600160a01b038381167fffffffffffffffffffffffff0000000000000000000000000000000000000000831681178455604051919092169283917f8be0079c531659141344cd1fd0a4f28419497f9722a3daafe3b4186f6b6457e09190a35050565b60008082516041036106275760208301516040840151606085015160001a61061b87828585610815565b94509450505050610658565b82516040036106505760208301516040840151610645868383610902565b935093505050610658565b506000905060025b9250929050565b600081600481111561067357610673610a3e565b0361067b5750565b600181600481111561068f5761068f610a3e565b036106dc5760405162461bcd60e51b815260206004820152601860248201527f45434453413a20696e76616c6964207369676e617475726500000000000000006044820152606401610335565b60028160048111156106f0576106f0610a3e565b0361073d5760405162461bcd60e51b815260206004820152601f60248201527f45434453413a20696e76616c6964207369676e6174757265206c656e677468006044820152606401610335565b600381600481111561075157610751610a3e565b036107a95760405162461bcd60e51b815260206004820152602260248201527f45434453413a20696e76616c6964207369676e6174757265202773272076616c604482015261756560f01b6064820152608401610335565b60048160048111156107bd576107bd610a3e565b036105625760405162461bcd60e51b815260206004820152602260248201527f45434453413a20696e76616c6964207369676e6174757265202776272076616c604482015261756560f01b6064820152608401610335565b6000807f7fffffffffffffffffffffffffffffff5d576e7357a4501ddfe92f46681b20a083111561084c57506000905060036108f9565b8460ff16601b1415801561086457508460ff16601c14155b1561087557506000905060046108f9565b6040805160008082526020820180845289905260ff881692820192909252606081018690526080810185905260019060a0016020604051602081039080840390855afa1580156108c9573d6000803e3d6000fd5b5050604051601f1901519150506001600160a01b0381166108f2576000600192509250506108f9565b9150600090505b94509492505050565b6000807f7fffffffffffffffffffffffffffffffffffffffffffffffffffffffffffffff83168161093860ff86901c601b610a54565b905061094687828885610815565b935093505050935093915050565b6000806000806060858703121561096a57600080fd5b843567ffffffffffffffff8082111561098257600080fd5b818701915087601f83011261099657600080fd5b8135818111156109a557600080fd5b8860208285010111156109b757600080fd5b6020928301999098509187013596604001359550909350505050565b6000602082840312156109e557600080fd5b5035919050565b600080604083850312156109ff57600080fd5b50508035926020909101359150565b600060208284031215610a2057600080fd5b81356001600160a01b0381168114610a3757600080fd5b9392505050565b634e487b7160e01b600052602160045260246000fd5b60008219821115610a7557634e487b7160e01b600052601160045260246000fd5b50019056fea26469706673582212206ed5c61526aa8925e7e670c3255a33f692e6a035fdd1500183acce829fdf443a64736f6c634300080d0033",
  "linkReferences": {},
  "deployedLinkReferences": {}
}